:020000040800F2
:1000000030070020450100088F1D0008CF1B0008A5
:100010008D1D0008F10500086122000800000000A5
:10002000000000000000000000000000D31E0008D7
:100030004F06000800000000B11D0008D51E000892
:100040005F0100085F0100085F0100085F01000810
:100050005F0100085F0100085F0100085F01000800
:100060005F0100085F0100085F0100085F010008F0
:100070005F0100085F0100085F0100085F010008E0
:100080005F0100085F0100085F0100085F010008D0
:100090005F0100085F0100085F0100085F010008C0
:1000A0005F0100085F0100085F0100085F010008B0
:1000B0005F0100085F0100085F0100085F010008A0
:1000C0005F0100085F0100085F0100085F01000890
:1000D0005F0100085F0100085F0100085F01000880
:1000E0005F0100085F0100085F0100085F01000870
:1000F0005F0100085F0100085F0100085F01000860
:100100005F0100085F0100085F0100085F0100084F
:100110005F0100085F0100085F0100085F0100083F
:100120005F0100085F0100085F0100085F0100082F
:10013000DFF80CD000F04AFA00480047A928000870
:10014000300700200648804706480047FEE7FEE7E4
:10015000FEE7FEE7FEE7FEE7FEE7FEE7FEE7FEE777
:100160004D1F0008310100082DE9F05F0546002011
:1001700092469B4688460646814640241BE0284618
:1001800041464746224600F020F853465A46C01AD8
:10019000914110D311461846224600F099F92D1AC4
:1001A00067EB01084F4622460120002100F090F93C
:1001B00017EB00094E41201EA4F10104DFDC484684
:1001C00031462A464346BDE8F09F202A04DB203A08
:1001D00021FA02F00021704721FA02F3D040C2F167
:1001E0002002914008431946704740EA01039B07EB
:1001F00003D009E008C9121F08C0042AFAD203E09C
:1002000011F8013B00F8013B521EF9D270472DE96D
:10021000FE4F804681EA0300C00F0C46009021F09B
:10022000004123F00045B8EB0200A94105D2404649
:10023000214690461C460B46024623F000401043E0
:1002400047D0270DC7F30A00C3F30A510290401AA2
:10025000019040286BDAC3F3130040F4801B009830
:10026000924620B10023D2EB030A63EB0B0B0198FB
:100270005946C0F14002504600F02AF906460D46A4
:1002800050465946019A00F032F910EB08006141DE
:10029000002487EA115284EAE7731A4340D0009A97
:1002A00062B3019A012A4FEA075215DC001B61EB89
:1002B00002014FF0004202EA0752CDE90042001C61
:1002C00041F5801132462B4600F032F903B0BDE80B
:1002D000F08F40462146F9E7001B61EB0201001C4C
:1002E00041F5801300185B412018A2F5001747EB79
:1002F000030140EAD570B6196D4111E06D084FEA6F
:10030000360645EAC0754FEA0752001B61EB020151
:10031000001C41F5801149084FEA30000019514195
:1003200032462B4603B0BDE8F04F00F0F2B800981B
:10033000012240000023D0EB020263EBE07300983F
:1003400021464FEAE074B8EB000061EB0401E9E7F5
:1003500083F000435BE781F0004158E72DE9FE4F51
:1003600081EA030404F0004421F0004100944FF0BE
:10037000000B23F0004350EA01045ED052EA03046C
:100380005BD0C3F30A54C1F30A552C44A4F2F334EE
:100390000194A0FB0254C1F3130141F48011C3F393
:1003A000130343F4801301FB024400FB034E840A51
:1003B000970A44EA815447EA8357A4FB07680295E9
:1003C0008D0A05FB07854FEA932C04FB0C54270587
:1003D000029D4FEA065847EA1637B5EB08056EEB63
:1003E000070C870E920E47EA811742EA8312A7FB99
:1003F0000201B6EB0B0164EB00042B0D43EA0C3356
:100400005E1844EB1C50DA465146E7FB0201C5F387
:1004100013044FEA0B3343EA14534FEA0432019CAE
:1004200043EA0603A4F10C040294009CCDE900B455
:1004300000F07EF803B0BDE8F08F00200146F9E738
:100440000EB540F2334102910021CDE900110A4678
:100450000B4600F06DF803B000BD0EB540F233421C
:1004600002920022CDE90022134600F061F803B0A9
:1004700000BDC1F30A5210B5C1F3130140F2FF33BE
:1004800041F480119A4201DA002010BD40F233435A
:100490009A42A2F2334203DC5242FFF796FE10BDAD
:1004A000904010BD30B50B460146002020220124AB
:1004B00009E021FA02F59D4205D303FA02F5491B32
:1004C00004FA02F52844151EA2F10102F1DC30BD48
:1004D000202A04DB203A00FA02F100207047914004
:1004E000C2F1200320FA03F3194390407047202AF9
:1004F00006DBCB17203A41FA02F043EAE07306E04C
:1005000041FA02F3D040C2F120029140084319465B
:10051000704710B5141E73F1000408DA401C41F155
:10052000000192185B411A4301D120F0010010BD77
:100530002DE9F04D92469B4611B1B1FA81F202E0ED
:10054000B0FA80F220329046FFF7C2FF04460F4611
:1005500040EA0A0041EA0B0153465A46084313D0C9
:10056000114653EA010019D0C8F140025046FFF786
:100570002CFE05460E46504659464246FFF7A8FF58
:10058000084305D0012004E020463946BDE8F08D3F
:100590000020054346EAE0762C4337430A9863057A
:1005A000E40AA0EB08000022FD0A44EA47540A309E
:1005B00002D500200146E9E7010510196941DDE98E
:1005C000084500196941BDE8F04DA2E7064C074D0A
:1005D00006E0E06840F0010394E807009847103413
:1005E000AC42F6D3FFF7A8FDCC290008EC2900089F
:1005F000FEE700B58BB0C0E90C120021009101911B
:1006000002910391049105910691012107910891AE
:100610000E210991694600F01BF80BB000BD10B522
:1006200004461520236B1860236B00209860236B11
:10063000D860206B0261206B1430FFF7D6FD0A21D1
:10064000204600F041F9002800D0012010BD70477D
:10065000F0B50C7D012303FA04F20468D4F80052CB
:100660004E6A25F47C5503EB06231D43C4F8005263
:100670000368D3F81C429443C3F81C424FF4107330
:10068000CD691C1DBDB90568D5F80C629643C5F847
:100690000C628E894D684F6966F31F45066803EB4F
:1006A000C707F5510E890D684F6966F31F45066847
:1006B00004EBC707F551CD69012D17D10568D5F8B1
:1006C0000C621643C5F80C620E884D684F6966F3DC
:1006D0001F45066803EBC703F5500D89CB684E69CB
:1006E00065F31F43056804EBC6042B518B69002B8F
:1006F0000368D3F8044211D054EA0204C3F8044258
:100700000B69002B0368D3F8144209D054EA0204A1
:10071000C3F81442096A012904D009E09443EDE7C3
:100720009443F5E70168D1F81C321343C1F81C3239
:100730000068D0F8001221F00101C0F8001200207A
:10074000F0BD2DE9F04104004FF0000504D094F80D
:100750003C00002618B107E00120BDE8F08184F8D4
:100760003D60204600F084F8022084F83C002068B8
:10077000016821F0020101602068016841F0010177
:10078000016000F08FFA07464FF0030804E000F024
:1007900089FAC01B0A2853D820684068C007F6D0E1
:1007A00021684868C00758D0A069012801D145F0E8
:1007B0008005E06901282FD025F04000226A012A37
:1007C0002DD020F02000626A012A2BD020F01000EA
:1007D000A26A012A29D020F00800E26A012A27D063
:1007E00020F004000A6822F0FC0202430A60D4E907
:1007F00002010843D4E90412114308436168491E09
:1008000008432168C8612068016821F00101016086
:1008100000F048FA054618E045F04000CEE740F009
:100820002000D0E740F01000D2E740F00800D4E705
:1008300040F00400D6E700F035FA401B0A2804D93E
:1008400004F83C8F0320667087E720684068C00783
:10085000F1D120684068C00703D0042084F83C0030
:100860007AE72664012084F83C00002075E7000048
:1008700010B50068114986B088421DD11048C16981
:1008800041F00071C161C0690E4C00F0007004902D
:100890004FF40060009000200190029069462046CD
:1008A00000F006F9A01400900220019003200390AC
:1008B0006946204600F0FCF806B010BD0064004018
:1008C00000100240000801402DE9F05F0E4601686B
:1008D00004468868400105D48868000102D488680D
:1008E000C0006FD594F83D0001280CD0012784F892
:1008F0003D7094F83C00222808D0322808D06228A5
:100900000ED0122005E00220BDE8F09F422000E05A
:10091000522084F83C008868400103D5002507E098
:100920007220F6E78868000101D5012500E0022564
:100930004FF4C07000EB05100A5802F001020A5093
:10094000216B8A68EAB3D4F800C05CF80030134326
:10095000CA68496842EAC1010B434CF80030216B78
:100960000A7C02F00F020A614FF4C271226801EBA7
:100970000511535823F00F03535022685358D4F8ED
:1009800030C0DCF810C043EA0C035350216B4FF425
:10099000C47303EB05130A7DD1F8151042EA012256
:1009A0002168CA50216B4FF4C67303EB05130A7E0E
:1009B000D1F8191042EA01222168CA5021680A5868
:1009C00001E00DE05AE042F001020A5000F06AF93D
:1009D00081464FF00008DFF8B0A0DFF8B0B026E0A5
:1009E00022681358D1F80CC0098843EA0C0343EA83
:1009F00041511150B3E7701C19D02EB100F052F9DB
:100A0000A0EB0900B04212D9032084F83C004DB19C
:100A1000012D09D04FF400002168886084F83D80E2
:100A2000032071E78020F7E74FF40040F4E7ADB111
:100A30002068012D816816D0154888430028DAD136
:100A400094F83C00422811D0522811D0722813D0BB
:100A500084F83C7084F83D80002055E72068816868
:100A60002AEA0100EAE72BEA0100E7E7222000E09A
:100A7000322084F83C00EDE76220FAE7042084F895
:100A80003C00012040E700000100000400010008D4
:100A90000000011031B500F005F9009C0546601C0E
:100AA00000D0641C00F0FEF8401BA042FAD338BD11
:100AB0002DE9F84FDFF8B8A100220AF1040B144623
:100AC00001274FF00F090BF1040E00BF0B6807FA66
:100AD00004F52B40AB4274D1DFF898C14E68A6EB09
:100AE0000C0866452BD00DDC032E34D005DC36B364
:100AF000012E19D0022E2FD11BE0112E16D0122E4E
:100B00002AD119E0B8F5881F19D006DCB8F5803F66
:100B100015D0B8F5801F1FD111E0B8F5001F0ED019
:100B2000B8F5041F18D10AE0CA6815E0CA68121D9A
:100B300012E0CA6808320FE0CA680C320CE08A681A
:100B40002AB1012A4FF0080203D0456104E00422D3
:100B500002E0056100E00022FF2B01D8064601E01B
:100B600000F104064FEA840501D9A5F12005D6F865
:100B700000C009FA05F82CEA080C02FA05F54CEA5F
:100B8000050CC6F800C04D68ED006AD53A4DAE6957
:100B900046F00106AE61AD6924F0030605F00105DB
:100BA0000095364D06EB050CDCF80850A6074FEA19
:100BB000167809FA08F6B543314EB04202D1002644
:100BC0001AE04EE02F4EB04201D1012614E02E4E25
:100BD000B04201D102260FE02C4EB04201D10326D3
:100BE0000AE02B4EB04201D1042605E0294EB04266
:100BF00001D1052600E0062606FA08F62E43CCF8B9
:100C000008604D68DAF80060ED03554601D51E43D3
:100C100000E09E432E604D68AD0305D5DBF8006013
:100C20001E43CBF8006004E0DBF800509D43CBF896
:100C300000504D68DEF80060ED02754601D51E4398
:100C400000E09E432E604D68AD0205D5084D0C3581
:100C50002E681E432E6004E0054E0C3635689D4319
:100C60003560641C102CFFF431AFBDE8F88F000034
:100C7000000401400000111000100240000001407B
:100C800000080140000C0140001001400014014028
:100C900000180140001C01400AB1016170470904BD
:100CA000FBE70000014800687047000000000020DA
:100CB00002480168491C01607047000000000020E4
:100CC000074810B5016841F010010160032000F0F1
:100CD0007FF8002000F006F800F018F8002010BDA2
:100CE0000020024010B5044607484FF47A710068AE
:100CF000B0FBF1F000F0C9FD00222146501E00F0CB
:100D000047F8002010BD0000040000201E4808B570
:100D1000816941F001018161806900F0010000906A
:100D2000032000F055F8002211466FF00B0000F090
:100D30002FF8002211466FF00A0000F029F8002277
:100D400011466FF0090000F023F800221146501FF1
:100D500000F01EF800221146101F00F019F80022C2
:100D60001146901E00F014F800221146501E00F0AB
:100D70000FF80648416821F0E0614160416841F0A8
:100D80008061416008BD0000001002400000014089
:100D9000F0B40E4B1B680C46C3F30223C3F10705E6
:100DA000042D00D90425191D072901D2002300E0D4
:100DB000DB1E012606FA05F1491E214099409E409E
:100DC000761E16403143F0BC00F0E2BF0CED00E0AF
:100DD000064900F0070208684FF6FF03184040EA92
:100DE0000220034A10430860704700000CED00E049
:100DF0000000FA052DE9F047DFF83C8105460E4674
:100E0000D8F8000000F00700B0420CD2D8F800106B
:100E100021F007013143C8F80010D8F8000000F0B5
:100E20000700B04263D12878444C800705D560683C
:100E3000A96820F0F000084360602878C00745D01A
:100E40006868012816D02168022816D08907002971
:100E50004DDA616821F0030101436160FFF722FF71
:100E60006968074641F2883001290FD0022981467E
:100E700019D027E021688903E9E78901E7E700BF86
:100E8000FFF710FFC11B494501D918E08146606892
:100E9000C0F381000128F3D118E000BFFFF702FF83
:100EA000C11B49450BD86068C0F381000228F5D109
:100EB0000CE000BFFFF7F6FEC11B494502D9032035
:100EC000BDE8F087606810F00C0FF3D1D8F800107F
:100ED000404601F00701B1420BD9016821F007013A
:100EE00031430160006800F00700B04201D00120EA
:100EF000E6E72878400705D56068E96820F4E060F7
:100F0000084360602878000706D56068296920F4E6
:100F1000605040EAC100606000F03CF86168084A37
:100F2000C1F30311515CC840064908600020FFF777
:100F3000D9FE0020C4E7000000200240001002405B
:100F4000B429000804000020014800687047000030
:100F5000040000200448054900684968044AC1F3B8
:100F60000221515CC840704704000020001002407C
:100F7000C42900080448054900684968044AC1F3C7
:100F8000C221515CC840704704000020001002409C
:100F9000C429000810B512A385B00FCB8DE80F004F
:100FA00013A0144B006804905A68134802F00C0117
:100FB00004290FD008290DD1C2F38344D2031DF8B0
:100FC000041009D55A6804ABC2F340429A5CB0FBE6
:100FD000F2F0484305B010BD08484843FAE7000066
:100FE00002030405060708090A0B0C0D0E0F10106A
:100FF000010200000010024000127A0000093D00CA
:101000002DE9F84F04460078B94DC00748D068680C
:10101000C0F38100012807D06868C0F3810002286E
:1010200009D16868C00306D52868800338D5606890
:1010300000286FD034E06068B0F5803F0BD010B16D
:10104000B0F5A02F11D0286820F4803028602868DF
:1010500020F4802002E0286840F480302860606836
:1010600088B1FFF71FFE064609E0286840F480209B
:101070002860F0E7FFF716FE801B642875D8286803
:101080008003F7D50CE0FFF70DFE064605E000BF34
:10109000FFF708FE801B6428F0D828688003F7D487
:1010A0002078944E80074FF001094FF000083BD59F
:1010B000686810F00C0F07D06868C0F38100022840
:1010C00009D16868C00306D42868800714D5206950
:1010D00001281FD110E02069B0B1C6F80090FFF7D9
:1010E000E1FD074605E000BFFFF7DCFDC01B02285D
:1010F000C4D828688007F7D52868616920F0F8000F
:1011000040EAC10028600FE0C6F80080FFF7CAFD82
:10111000074606E0E9E000BFFFF7C4FDC01B022858
:1011200023D828688007F7D4207800072CD5724888
:10113000A169D9B1C0F80090FFF7B4FD074604E0FB
:10114000FFF7B0FDC01B02280FD8686A8007F7D5EB
:101150006A484FF4FA510068B0FBF1F0009000BF0C
:101160000098411E0091FAD20EE080E0C0F80080A5
:10117000FFF798FD074604E0FFF794FDC01B022827
:1011800075D8686A8007F7D42078400760D5E86989
:101190000027C00008D4E86940F08050E861E869A1
:1011A000012700F08050009055480168C90513D40C
:1011B0000168834641F480710160FFF773FD824648
:1011C00006E000BFFFF76EFDA0EB0A0064284ED8D2
:1011D000DBF80000C005F5D5E06801280AD008B1A9
:1011E000052813D0286A20F001002862286A20F020
:1011F000040002E0286A40F001002862E06841F241
:10120000883B98B1FFF74EFD82460BE0286A40F01C
:1012100004002862EEE700BFFFF744FDA0EB0A01DF
:1012200059455AD8286A8007F6D50CE0FFF73AFDF1
:10123000824605E0FFF736FDA0EB0A0159454CD880
:10124000286A8007F6D41FB1E86920F08050E86171
:10125000E06988B36968C1F38101022945D0022899
:10126000C6F8608004D0FFF71DFD044638E034E086
:10127000FFF718FD074604E0FFF714FDC01B022826
:101280002BD828688001F7D4206AB0F5803F05D1BB
:101290006868A16820F4003008436860D4E9080158
:1012A0000843696821F4741108436860C6F86090C7
:1012B000FFF7F8FC044606E015E000BFFFF7F2FC7C
:1012C000001B022809D828688001F7D50BE000BF71
:1012D000FFF7E8FC001B022802D90320BDE8F88FC5
:1012E00028688001F4D40020F8E70120F6E7000028
:1012F00000100240000042428004424204000020EC
:101300000070004070B5040005D00025A56294F877
:10131000510010B104E0012070BD204600F034F807
:10132000022084F851002068016821F0400101602A
:10133000D4E901010843D4E9031211430843616968
:101340000843218B01F400710843E1690843216AD5
:101350000843A16A084321680860A069042101EAE2
:101360001040616A0843216848602168E06A0861AA
:101370002068C16921F40061C1616565012084F8BC
:101380005100002070BD000010B50068114986B002
:1013900088421CD11048816941F480518161806983
:1013A0000E4C00F480500490A02000900220019088
:1013B0000320039069462046FFF77AFB0021402076
:1013C000CDE90001029169462046FFF771FB06B0A6
:1013D00010BD000000300140001002400008014034
:1013E0002DE9F84F044640680026984617460D46FA
:1013F0004FF00409B0F5827F01D1A06890B194F854
:101400005000012819D04FF0010B84F850B0FFF7BD
:1014100049FC009094F851004FF0000A01280ED0CA
:1014200002267FE084F8519013460A462046CDF804
:10143000008000F031F9BDE8F88F0220FBE7002DB5
:101440006FD0002F6DD084F85190C4F854A0A563DC
:10145000A787E787C4F830A0A4F834A0A4F836A082
:10146000C4F840A0C4F844A0A0684FF40047B842B4
:1014700004D12068016821F480410160206801687E
:10148000490603D4016841F040010160E068B8B149
:1014900033E020688168C90706D0007B05F8010B9E
:1014A000E08F401EE0870BE0B8F1000F23D0B8F1C9
:1014B000FF3F05D0FFF7F6FB0099411A41451AD2CC
:1014C000E08F0028E5D11BE020688168C90706D0BD
:1014D000C06825F8020BE08F401EE0870DE0B8F1F0
:1014E000000F08D0B8F1FF3F07D0FFF7DBFB0099F2
:1014F000411A414501D3032614E0E08F0028E3D1CF
:101500006068B0F5827F0AD1A068B84202D0B0F519
:10151000806F04D12068016821F040010160606D96
:1015200000B1012684F851B084F850A0304682E71B
:101530002DE9F84F044690F85000002699461746CA
:101540000D4601280DD04FF0010B84F850B0FFF785
:10155000A9FB804694F85100B246012804D0022627
:1015600094E00220BDE8F88F002D7BD0002F79D0C9
:10157000032084F85100C4F854A02563A786E786A9
:10158000C4F838A0A4F83CA0A4F83EA0C4F844A035
:10159000C4F840A0A068B0F5004F04D120680168ED
:1015A00041F48041016020680168490603D4016864
:1015B00041F040010160E068B0F5006F606804D060
:1015C00030B3E08E012823D03EE010B1E08E012838
:1015D0001AD135F8021B206805E020688168890768
:1015E00006D535F8021BC160E08E401EE0860BE098
:1015F000B9F1000F34D0B9F1FF3F05D0FFF752FB2E
:10160000A0EB080149452BD2E08E0028E5D11EE071
:10161000216815F8010B087306E0206881688907C6
:1016200006D515F8011B0173E08E401EE0860BE025
:10163000B9F1000F14D0B9F1FF3F05D0FFF732FB2D
:10164000A0EB080149450BD2E08E0028E5D14B46BE
:10165000012202212046CDF8008000F0EFFB10B1FE
:10166000032613E011E042464946204600F0D6FB2F
:1016700018B101262020606508E0A06818B920682C
:10168000C16880680090606D00B1012684F851B097
:1016900084F850A0304665E72DE9F84F044690F8ED
:1016A000500000260A9F9A4693460D464FF00108C7
:1016B00001280ED0012084F85000FFF7F3FA81468C
:1016C00094F85100616801280CD0B1F5827F07D1F0
:1016D00002E00220BDE8F88FA16809B9042801D012
:1016E0000226BDE055B1BBF1000F07D0BAF1000FE3
:1016F00004D094F85100012802D004E00126AFE0A4
:10170000052084F8510000206065C4F838B0A4F8C2
:101710003EA0A4F83CA02563A4F836A0A4F834A009
:101720002064606420680168490603D4016841F0C0
:1017300040010160E068B0F5006F606804D0E8B374
:10174000E08E01283BD06AE010B1E08E01282ED156
:10175000216835F8020BC860E08E401EE08626E066
:10176000B8F1000F0DD0E08E58B12068816889076C
:1017700007D535F8021BC160E08E401EE0864FF0B1
:101780000008E08F58B120688168C90707D0C06899
:101790002BF8020BE08F401EE0874FF00108781C09
:1017A00005D0FFF77FFAA0EB0900B84246D2E08EE1
:1017B0000028D5D1E08F0028D2D136E0FFE721689C
:1017C00015F8010B0873E08E401EE08627E000BF8D
:1017D000B8F1000F0DD0E08E58B1206881688907FC
:1017E00007D515F8011B0173E08E401EE0864FF00F
:1017F0000008E08F58B120688168C90707D0C06829
:101800000BF8010BE08F401EE0874FF00108781CB9
:1018100005D0FFF747FAA0EB0900B8420ED2E08EE0
:101820000028D5D1E08F0028D2D13B4601220221E9
:101830002046CDF8009000F001FB08B103260FE030
:101840004A463946204600F0E9FA18B10126202020
:10185000606505E0A06818B92068C16880680090DC
:10186000012084F85100002084F85000304631E710
:101870004FF0E0210428086903D020F0040008613B
:10188000704740F00400FAE7704710B5401EB0F111
:10189000807F01D3012010BD4FF0E02460610F2153
:1018A000601700F075FA0020A06107202061002079
:1018B00010BD10B5FFF7E8FF10BD30B590F83C2023
:1018C000012A20D0012280F83C20022380F83D30FC
:1018D00003685C6824F070045C6003685C680D68F1
:1018E0002C435C6003689C6824F080049C6003685F
:1018F0009C6849680C439C6080F83D20002180F87A
:101900003C10084630BD022030BD10B5040003D0A5
:1019100094F83D0010B107E0012010BD002084F8CC
:101920003C00204600F00CF8022084F83D00211D08
:10193000206800F02FFB012084F83D00002010BD3E
:1019400008B500680649884208D10648816941F413
:1019500000618161806900F40060009008BD0000B2
:10196000002C01400010024070B5044690F83C0085
:10197000012817D0012584F83C50022084F83D004E
:101980002068826822F0770222F47F428260086831
:10199000502837D00DDC202859D005DC88B310281A
:1019A00041D151E0022070BD302853D040283AD1B7
:1019B0003FE060282ED070280BD0B0F5805F03D0B8
:1019C000B0F5005F2FD110E02068816821F0070199
:1019D00015E0CB68D1E90121206800F021FB2168E6
:1019E000886840F0770088601DE0CB68D1E901216C
:1019F000206800F015FB2068816841F48041816017
:101A000011E01EE0CA684968206800F01BFB502105
:101A1000206806E0CA684968206800F024FB60215D
:101A2000206800F007FB84F83D50002084F83C005B
:101A300070BDCA684968206800F004FB4021206836
:101A4000EFE700212068ECE710212068E9E720217A
:101A50002068E6E730212068E3E770B5040004D091
:101A600094F83900002510B106E0012070BD84F81B
:101A70003850204600F022F8242084F839002068ED
:101A8000C16821F40051C160204600F0FFFA2068CF
:101A9000016921F4904101612068416921F02A0126
:101AA00041612068C16841F40051C160E5632020B4
:101AB00084F8390084F83A00002070BD10B5006841
:101AC000114986B088421DD11048816941F4804196
:101AD000816180690E4C00F4804004904FF40070E6
:101AE0000090022001900320039069462046FEF7F3
:101AF000DFFF00212015CDE9000102916946204653
:101B0000FEF7D6FF06B010BD0038014000100240BD
:101B1000000801402DE9F843044690F839001F46BB
:101B200016460D46202850D1A5B19EB194F8380034
:101B300001284AD0012084F838004FF00008C4F88A
:101B40003C80212084F83900FFF7ACF8A684814658
:101B5000E68426E00120BDE8F883E08C401EE084A6
:101B6000A0684B46B0F5805F4FF000024FF0800157
:101B70002046009703D000F041FBE8B90DE000F0EB
:101B80003DFBC8B928882168C0F308004860206977
:101B900008B16D1C05E0AD1C03E0216815F8010BD0
:101BA0004860E08C0028D8D14B46002240212046D6
:101BB000009700F023FB08B10320CCE7202084F835
:101BC000390084F838800020C5E70220C3E7FEE72B
:101BD000104810B50E4901600421416000214FF406
:101BE00080228160C0E90312D200C0E90521C161F1
:101BF000016241628162C162FEF7A3FD002805D047
:101C0000BDE81040452104A000F057BC10BD000005
:101C100000640040140000202E2E2F5372632F63A7
:101C2000616E2E63000000000E4810B5816986B019
:101C300041F00401816180690B4C00F004000490C4
:101C4000002210212046FFF727F8102000900120E5
:101C500001900220039069462046FEF729FF06B056
:101C600010BD00000010024000080140114810B5EE
:101C70000F4901604FF48271416000218160C160B1
:101C80004FF400720161C0E905123822C0E9072152
:101C9000416281620A21C162FFF734FB002805D04E
:101CA000BDE81040452104A000F007BC10BD0000B5
:101CB00000300140580000202E2E2F5372632F73E6
:101CC00070692E630000000010B5184886B01649F0
:101CD0000160472141601021816001210024C0E999
:101CE000031444618461FFF710FE18B1402110A075
:101CF00000F0E3FB4FF48050009069460B48FFF77B
:101D000033FE18B146210AA000F0D7FB049404A9C1
:101D100006480594FFF7D1FD002803D04D2104A00B
:101D200000F0CBFB06B010BD002C0140F0000020FD
:101D30002E2E2F5372632F74696D2E6300000000E6
:101D40000D4810B50B4901604FF46121416000213D
:101D500081600C22C160C0E904128161C161FFF79A
:101D60007CFE002805D0BDE81040422103A000F011
:101D7000A4BB10BD00380140B00000202E2E2F5310
:101D800072632F75736172742E630000FEE77047F3
:101D90000907090E002806DA00F00F0000F1E02024
:101DA00080F8141D704700F1E02080F8001470479F
:101DB0007047F0B517460646B9422ED20C46154676
:101DC00036F8110018E06D1EADB2AC4203D236F801
:101DD00015208242F7D936F8152026F8142001E0A4
:101DE000641CA4B2AC4203D236F814208242F7D26B
:101DF00036F8142026F81520AC42E6D326F8140055
:101E000024B1601E82B23046FFF7D3FF641CA1B23A
:101E10003A463046BDE8F040CBE7F0BD38B50B465A
:101E2000009204460022802100F008F8002804D027
:101E3000606D40F020006065032038BD2DE9F04161
:101E40001D4617460E460446DDF8188035E0681C2E
:101E500033D02DB1FEF726FFA0EB0800A8422CD30B
:101E60002068416821F0E00141606068B0F5827F40
:101E70000BD1A068B0F5004F02D0B0F5806F04D14F
:101E80002068016821F040010160A06AB0F5005FA0
:101E90000AD1206801684DF6FF7211400160206888
:101EA000016841F400510160012084F851000020D4
:101EB00084F850000320BDE8F0812068806836EA8D
:101EC000000004D00020B842C1D10020F3E7012077
:101ED000F9E7704710B5FEF7EBFEBDE81040FFF7DD
:101EE000E8BC30B58FB001210804CDE90010002412
:101EF000029402250491CDE907504FF4E0100990B7
:101F00006846FFF77DF800B1FEE70F20CDE90A052E
:101F10004FF48060CDE90C4002210AA80E94FEF730
:101F200069FF00B1FEE7FFF70FF84FF47A71B0FBDD
:101F3000F1F0FFF7AAFC0420FFF79AFC00221146FB
:101F4000501EFEF725FF0FB030BD00000D480168A0
:101F500041F00101016041680B4A11404160016894
:101F60000A4A11400160016821F480210160416842
:101F700021F4FE0141604FF41F0181600449C00358
:101F800008607047001002400000FFF8FFFFF6FEF7
:101F900008ED00E0F0B502681C4B1D4D1D4E1E4FB4
:101FA0001E4C4FF0804C984209D0A04207D06045AB
:101FB00005D0A84203D0B04201D0B84204D122F0EB
:101FC000700E4A6842EA0E02984209D0A04207D039
:101FD000604505D0A84203D0B04201D0B84203D139
:101FE00022F44075CA682A4322F080054A692A43D0
:101FF00002608A68C2620A688262984201D0A04286
:1020000001D10969016301214161F0BD002C01404A
:102010000004004000080040000C00400034014073
:1020200010B5846842EA032224F47F440A43224321
:10203000826010BD826822F070020A4342F00701FC
:102040008160704710B5036A046A24F001040462D9
:10205000846924F0F00444EA021423F00A020A43DB
:102060008461026210BD10B5036A23F0100303629D
:102070008369046A23F4704343EA023224F0A00324
:1020800043EA01118261016210BD00002DE9F041B7
:10209000044600680169E26821F44051114301617E
:1020A0002169A0680843616908432168CA6841F250
:1020B0000C639A430243CA6020684169A26921F413
:1020C0004071114341614C492068642532268842A1
:1020D0003CD1FEF74FFF00EBC00101EB001061683F
:1020E0008900B0FBF1F7FEF745FF00EBC00101EB03
:1020F00000106168B0468900B0FBF1F0B0FBF5F06C
:102100006FF01801484307EB800106EB0110B0FBAC
:10211000F5F000F0F006FEF72DFF00EBC00101EB3B
:10212000001061688900B0FBF1F0B0FBF5F006EB40
:102130000016FEF71FFF00EBC00101EB0010616805
:102140008900B0FBF1F7FEF715FF3BE0FEF702FF59
:1021500000EBC00101EB001061688900B0FBF1F7F2
:10216000FEF7F8FE00EBC00101EB00106168B0461D
:102170008900B0FBF1F0B0FBF5F06FF018014843B7
:1021800007EB800106EB0110B0FBF5F000F0F00664
:10219000FEF7E0FE00EBC00101EB00106168890072
:1021A000B0FBF1F0B0FBF5F006EB0016FEF7D2FE47
:1021B00000EBC00101EB001061688900B0FBF1F792
:1021C000FEF7C8FE00EBC00101EB0010616889005A
:1021D000B0FBF1F0B0FBF5F06FF01801484307EBEE
:1021E000800108EB0110B0FBF5F0216800F00F0052
:1021F00030448860BDE8F081003801402DE9F041AD
:10220000984617460E460446069D1DE0681C1BD0E6
:102210002DB1FEF747FDA0EB0800A84214D92068B5
:10222000C16821F4D071C1602068416921F00101C9
:102230004161202084F8390084F83A00002084F8B5
:1022400038000320BDE8F0812068006836EA00000D
:1022500004D00020B842D9D00020F3E70120F9E7EC
:10226000FEE700002DE9F04F06464D008DB0174601
:102270008B460024284600F067FB0290284600F0B9
:1022800063FB019000208246804605468146FEF7AA
:1022900009FD384442F21077089027E0304600F0FC
:1022A000C1F80020401C80B2B842FBD3708940F2D4
:1022B000A561A0F21450884218D2304600F0C9F847
:1022C0000020401C80B2B842FBD3B08940F2A56127
:1022D000A0F21450884209D20298718920F8141093
:1022E0000198B18920F81410641CA4B2FEF7DAFC3E
:1022F0000899884201D25C45D0D3002C7ED0671E5D
:10230000BAB200210298FFF754FDBAB20021019839
:10231000FFF74FFD022C79D9012100200EE0029A2F
:1023200032F811C0019A1CEB0A0A40EB080832F897
:10233000113013EB09094541491C89B2B942EEDB62
:10234000029924F001000A90085AFEF779F8324AFF
:10235000324BFEF703F8A71E0090F8170B910346C7
:1023600009903A4650464146FDF7FEFEFEF775F8E5
:10237000294A2B4BFDF7F2FF0B9B009AFDF747FF15
:10238000FEF777F880B2F081804601990A98085AE2
:10239000FEF756F8204A214BFDF7E0FF82460591F3
:1023A0003A4648462946099BFDF7DEFEFEF755F8FA
:1023B000194A1B4BFDF7D2FF5246059BFDF727FF3D
:1023C000FEF757F881B2A8F214504FF4AF725043A1
:1023D00040F2A46290FBF2F031827082C820A1F238
:1023E0001451414391FBF2F0B082C4EB0421B1FBE4
:1023F000FBF0C4B2019800F02FFA00E006E002986A
:1024000000F02AFA0DB02046BDE8F08F0020F081E0
:1024100030827082E8E700009A9999999999C93FAA
:102420009999E93F10B50446018940680022FEF7FA
:1024300033FCD021206800F038F804F10A0120684C
:1024400000F022F8218901226068FEF725FC6089EE
:1024500010BD10B50446018940680022FEF71CFC3F
:102460009021206800F021F804F10C01206800F0B0
:102470000BF8218901226068FEF70EFCA08910BDCF
:10248000C0E900120381704738B50C464FF47A73E7
:1024900002226946FEF7A4FF9DF800009DF8011096
:1024A000400100EBD100208038BD13B54FF47A73A2
:1024B000012201A9FFF73CF81CBDFEE70FB4054B54
:1024C00010B503A9044A029800F018F810BC5DF892
:1024D00014FB0000412800080800002002E008C8A2
:1024E000121F08C1002AFAD170477047002001E08E
:1024F00001C1121F002AFBD1704700002DE9FF4FD8
:102500008BB088460546002606E025280BD0DDE97D
:102510000D1290476D1C761C28780028F5D10FB05D
:102520003046BDE8F08F0024A146A2460122AE4904
:1025300000E0044315F8013F203B02FA03F0084293
:10254000F7D128782A2810D06FF02F022878A0F130
:102550003001092915D809EB890102EB410144F04A
:10256000020400EB01096D1CF0E758F8041B5FEA58
:10257000010903D544F40054C9F1000944F00204F0
:102580006D1C28782E2817D115F8010F44F004048B
:102590002A280ED06FF02F022878A0F130010929E7
:1025A0000AD80AEB8A0102EB410100EB010A6D1C1B
:1025B000F2E758F804AB6D1C28786C280FD006DCC5
:1025C0004C2817D068280DD06A2814D104E074284C
:1025D00010D07A280FD10DE044F400140AE044F43E
:1025E000801401E044F440146978814202D104F57A
:1025F00080146D1C6D1C2878692865D006DC0028C5
:102600008DD0632827D0642806D15DE06E2808D0DD
:1026100073282AD0752877D0DDE90D129047761CF3
:10262000E0E0C4F30250022809D003280DD0D8F806
:10263000001004280DD00E6008F10408D2E0D8F88C
:102640000010F217C1E90062F6E7D8F800100E801A
:10265000F2E70E70F0E718F8041B8DF80010002068
:102660008DF80100EB46012003E058F804BB4FF061
:10267000FF3061074FF0000701D40AE07F1C574587
:102680000DDA8742FADB1BF807100029F6D106E0C5
:102690007F1C8742FCDB1BF807100029F8D1DDE91D
:1026A0000D23A9EB07008146214600F0B1F8304424
:1026B000C61904E0DDE90D121BF8010B90477F1EDF
:1026C000F8D22146484688E058F8040BC4F302517A
:1026D0004FF00A0B032900D100B2042900D140B207
:1026E000002802DA40422D2102E0210505D52B21E8
:1026F0008DF82410012104E006E0E10710D020212C
:10270000F6E708AF089113E058F8040BC4F3025140
:102710004FF00A0B032900D180B2042900D1C0B2C6
:102720000021EEE75946FDF7BDFE303107F8011DE7
:102730000028F7D1ADEB070000F1200B600702D5B0
:1027400024F4803401E04FF0010ADA4502DDAAEBFF
:102750000B0000E00020824600EB0B0108980144CA
:10276000A9EB01000A90E00306D4DDE90D23214620
:102770000A9800F04DF806444FF0000908E009A956
:1027800011F80900DDE90D12904709F10109761CE5
:1027900008998945F3DBE0030CD5DDE90D232146DB
:1027A0000A9800F035F8064404E0DDE90D12302007
:1027B0009047761CBAF10001AAF1010AF5DC05E0A8
:1027C000DDE90D1217F8010B9047761CBBF10001F3
:1027D000ABF1010BF4DC0A982146DDE90D2300F092
:1027E00005F806446D1C97E6092801002DE9F04123
:1027F000044600251E461746880404D405E03946E1
:102800002020B0476D1C641EF9D52846BDE8F08134
:102810002DE9F041044600251E469046C80301D527
:10282000302700E02027880404D505E041463846DB
:10283000B0476D1C641EF9D52846BDE8F081000044
:1028400013B54FF6FF73012269460248FFF762F99C
:1028500000981CBDB000002010B5002821D0114BFD
:102860000022001F196803E0814203D80A46496824
:102870000029F9D152B11368841A9C4204D100682E
:1028800018441060104602E0506000E0186039B152
:1028900002680B1A934203D10B681A44026049681C
:1028A000416010BD0C00002098B0FEF709FAFFF758
:1028B00018FBFFF7B9F9FFF7D9F9FFF789F9FFF727
:1028C0003FFAFFF701FA07AA10A91748FDF791FE92
:1028D0001023164A164901A8FFF7D2FD0024322220
:1028E000642101A8641CFFF7BDFC0028F7D0BDF8E7
:1028F0001620002AF3D0BDF81830002BEFD0214667
:102900000CA0FFF7DBFDBDF81600ADF80000BDF828
:102910001800ADF80200042269460348FDF77FFE67
:102920006420FEF7B7F8DAE7140000200008014041
:1029300058000020252D313075252D313075252D7D
:102940003130750D0A000000F0B50B30154D20F048
:1029500007010024144A0FE003688B420BD38B421B
:1029600005D95E1A43184768C3E9006700E0436869
:10297000136002C004E0021D10680028ECD120465C
:10298000002802D1286808B10020F0BD064A074897
:102990001060074A121A22F00702C0E90024012041
:1029A0002860D7E7100000200C0000203401002030
:1029B00030030020000000000000000001020304BA
:1029C000060708090000000001020304EC290008C2
:1029D0000000002014000000DC240008002A000889
:1029E000140000201C070000EC2400080000000078
:1029F00000A24A04000000000000000000000000E7
:0400000508000131BD
:00000001FF
