:020000040800F2
:10000000000002205DA8040883230408712304086B
:100010008523040895230408A52304080000000094
:10002000000000000000000000000000B5230408EC
:10003000B723040800000000B9230408BD23040806
:10004000A9A80408F12404080325040809250408C4
:1000500081240408A9A80408852404088B24040822
:1000600091240408972404089D240408CD4A040818
:10007000DD4A0408ED4A0408FD4A04080D4B040853
:100080001D4B04082D4B0408A9A80408A9A80408BE
:10009000C1250408C9250408A9A80408A324040844
:1000A0001D25040823250408352504083B250408DC
:1000B00041250408472504084D250408E1250408C6
:1000C000E7250408ED250408F3250408A9A8040879
:1000D000A9A804089D250408A3250408A925040847
:1000E000C7240408F724040809240408792504080F
:1000F0007F25040897250408912504083D4B040832
:10010000A9A80408A9A8040855250408A9A8040852
:10011000AF250408B52504086D25040873250408D7
:100120004D4B04085D4B04086D4B04087D4B0408DF
:100130008D4B0408A9A80408FD240408A9A80408F4
:10014000D1250408D9250408A9A80408FD2304081A
:100150009D4B0408AD4B0408BD4B0408BB250408A7
:10016000A9A80408A9A80408A9A80408A9A804081B
:10017000A9A80408A9A80408A9A804080000000068
:10018000A9A80408A9A8040842884378007843EA8B
:10019000022340EA032070470B0A017043700B0CE6
:1001A000090E8370C1707047036A0239023B99429D
:1001B0003DBFC389406B01FB03000020704700F185
:1001C0000B010023DA0142EA530310F8012B52FA23
:1001D00083F38842DBB2F5D11846704737B50D4638
:1001E000044618B900232B60092018E00368002B8F
:1001F000F8D05A79002AF5D0598982889142F1D1F4
:100200000DF107020621186802F004FB0028E9D16D
:100210009DF8070010F00100E4D123682B6003B0C3
:1002200030BDCA7E8B7E032843EA022301BF487D8E
:100230000A7D42EA002243EA024318467047C2F3AD
:1002400007238A76CB760378032B01BF120C0A753D
:10025000120A4A757047F8B5856B00F13C070446F1
:1002600001232A463946006802F0ACFAA0B9E36AD5
:10027000626AE071EB1A934201D30020F8BDA679BF
:10028000012EFAD9636A20681D442A4601233946A3
:1002900002F098FA013EF3E70120F8BDC3790BB1F3
:1002A000FFF7D9BF18467047F8B50446FFF7F6FFC9
:1002B0000546002842D16379032B37D1277A012FD5
:1002C00034D104F13C0601464FF4007230463DF053
:1002D0008CFC552384F83A32AA2384F83B3252230B
:1002E0004122722184F83C3084F83D30612384F847
:1002F0003E3084F83F2084F8222284F8233284F8A8
:10030000201284F8211204F50970A169FFF744FF57
:10031000616904F50A70FFF73FFFA26A20680132A5
:10032000A2633B46314602F04DFA25720022114687
:10033000206802F06FFA003018BF0120F8BD836B0F
:100340008B4270B506460D4611D0FFF7A7FF044655
:1003500070B92A46012306F13C01306802F00EFA1A
:1003600000281CBF4FF0FF350124B56300E00024D6
:10037000204670BD002310B5C3714FF0FF33836377
:100380000446FFF7DCFF30BB94F83B2294F83A3286
:1003900043EA02234AF6552293421ED194F83C3098
:1003A000E92B05D0E36B104A03F0FF13934216D1FB
:1003B00004F17200FFF7E8FE0C4B20F07F409842FA
:1003C0000FD004F18E00FFF7DFFE094B984214BFF7
:1003D0000220002010BD042010BD032010BD02200B
:1003E00010BD002010BD00BFEB009000464154003E
:1003F000464154332DE9F041437986B0044601F07B
:10040000FE05ABB10DF107020621006802F002FA09
:100410009DF80730D8070BD4002D00F00A8103F0B7
:10042000040303F0FF00002B00F026810A2023E1E3
:100430000023637105210DF10702206802F0EAF93B
:100440009DF80730D90700F1F6800DB15A07EDD4B9
:1004500000212046FFF78EFF0228034604D0012822
:1004600000F2E280257965B304F20225002102AF93
:1004700015F8040C10B12846FFF786FE47F8210056
:100480000131042905F11005F2D1267906B1013EAA
:1004900057F826502DB129462046FFF76BFF03463B
:1004A00000E00323227912B1042B06D1BFE0012B17
:1004B00007D90136032EEBD9B6E0012B01D90D2067
:1004C000DAE094F8482094F8473043EA0223B3F581
:1004D000007FF4D194F8536094F8523053EA062622
:1004E00004D104F16000FFF74FFE064694F84C80FB
:1004F000666208F1FF33012B84F80680DFD894F898
:1005000049108BB2E381002BD9D04B1E0B42D6D1C0
:1005100094F84D3094F84E7043EA07273B07A781C3
:10052000CDD194F8500094F84F3053EA002003D115
:1005300004F15C00FFF728FE94F84B3094F84A2051
:1005400052EA0323BBD006FB08FE03EB17127244EA
:100550008242B4D8801AB0FBF1F00028AFD04FF639
:10056000F57188422B4400F102012A4465D840F617
:10057000F57C60452162A562E362626374D8002F56
:100580009DD07344236301EB410301F0010101EBB2
:100590005301012701F2FF11B6EB512F8FD34FF01A
:1005A000FF33A3616361032F4FF0800323722FD1C8
:1005B00094F86D2094F86C3043EA0223012B27D184
:1005C000691C2046FFF7BBFE10BB94F83B2294F851
:1005D0003A32207243EA02234AF65522934217D157
:1005E00004F13C00FFF7D0FD254B984210D104F5F3
:1005F0000870FFF7C9FD234B984209D104F5097033
:10060000FFF7C2FDA06104F50A70FFF7BDFD606150
:100610001D4A6771138801339BB2138063810020E8
:100620001A4B2361E06127E0042B7FF448AF0120DF
:1006300022E0284620E003201EE0E362626394F893
:10064000663094F86720216253EA0223A5627FF4A2
:1006500036AF002F7FF433AF04F16800FFF794FD4D
:1006600003272063890095E7002F3FF428AF7344E8
:100670002363490002278DE706B0BDE8F08100BF83
:100680005252614172724161260000202800002010
:1006900001292DE9F04706460C4615466FD9036A35
:1006A00099426CD24379022B3CD0032B4CD0012BC6
:1006B00065D101EB5108C16A01EB5821FFF73FFEFC
:1006C000074600285CD106F13C0A08F10109C8F38D
:1006D000080814F001041FBF1AF8083003F00F02D5
:1006E0002B0103F0F00314BF1343EBB20AF80830F8
:1006F000F16A0123F37101EB59213046FFF71FFE28
:100700000746E8BBC9F3080914B1C5F3071506E0AD
:100710001AF80910C5F3032521F00F010D430AF85B
:10072000095029E0C16A01EB1421FFF708FE0746D2
:1007300030BB640006F13C0304F4FF741A191D5524
:10074000C5F30725557017E0C16A01EBD411FFF717
:10075000F6FD0746A0B9A40006F13C0304F4FE74BC
:100760001C442046FFF710FD25F0704500F0704155
:1007700029432046FFF710FD0123F37100E0022713
:100780003846BDE8F0870129F8B505460C4652D930
:10079000036A99424FD24379022B29D0032B38D0D8
:1007A000012B48D101EB5106C16A01EB5621FFF73D
:1007B000C6FD10B14FF0FF30F8BD771CE96AC6F3F3
:1007C00008062E4401EB5721284696F83C60FFF7B7
:1007D000B6FD0028EED1C7F308073D44E30795F8BE
:1007E0003C0046EA00204CBF0009C0F30B00F8BDF6
:1007F000C16A01EB1421FFF7A2FD0028DAD16400E1
:100800003C3504F4FF742B1958782B5D43EA002023
:10081000F8BDC16A01EBD411FFF791FD0028C9D1E1
:10082000A40005F13C0004F4FE742044FFF7ACFC86
:1008300020F07040F8BD0120F8BDB1F5001FF8B5FB
:1008400005460C4601D30220F8BDCA06FBD18268DA
:100850000668296162B97379022B01D9336B33B908
:10086000B389B3EB541FEED9336BAB6116E01A4674
:10087000F7897F02BC4211460CD32868FFF783FF3B
:10088000431C024618D00128DDD9336A9842DAD2D7
:10089000E41BEFE73046FFF787FCA861AB696A61AC
:1008A000002BD0D003EB54233C36C4F3080434446B
:1008B000AB61EC610020F8BD0120F8BD2DE9F041ED
:1008C000804605680F4631B96E69A6B12B6A9E4213
:1008D00028BF012610E02846FFF755FF012845D91B
:1008E000431C03D14FF0FF30BDE8F0812B6A9842E2
:1008F0003DD33E4600E0012634462B6A01349C423B
:1009000005D3012E02D80020BDE8F0810224214643
:10091000D8F80000FFF737FF30B1012826D00130AA
:10092000E0D0B442E9D1EEE74FF0FF32214628464D
:10093000FFF7AEFEC0B947B92A6AAB696C61023AEB
:1009400093420AD2013BAB6107E022463946284672
:10095000FFF79EFE0028EFD006E02B7A43F001035C
:100960002B722046BDE8F0810128BBD00120BDE8F4
:10097000F081F8B50D46012D0746114601D8022039
:10098000F8BD0468236A9D42F9D22AB14FF0FF32C4
:100990002046FFF77DFE08BB29463868FFF7F3FEC7
:1009A000064608B90020F8BD0128E8D0431C14D041
:1009B000002229462046FFF76BFE78B9226AA36918
:1009C000911E8B4205D20133A361237A43F00103C8
:1009D000237296423546DFD3E4E70120F8BD2DE9C6
:1009E000F0410025D0F800808D75836906460C46DD
:1009F000002B62D0C36A013316D001F11507D8F875
:100A0000103033F8150060B100213DF06DF928B1C8
:100A1000FF2D05D0013507F8010FF0E7054600E08E
:100A2000002525440023AB750023A17D1A462E2501
:100A3000F769501CBA5C202A21D0052A08BFE5229C
:100A4000092804D1E71801B9BD757D72013304EBA3
:100A5000030E8EF8092089B9A2F14107192F0BD88E
:100A6000F769082897F80CC08CBF102708271CEAE4
:100A7000070F1CBF2032D2B28EF8162001330B288C
:100A80000246D5D131B9E2189175F269127B002A7C
:100A900008BF0023234400225A72F369DB7A2372D1
:100AA000F16901F11C00FFF76FFB206001F11600F6
:100AB000FFF76AFBE080000CA080BDE8F08183694D
:100AC0002DE9F04705460F46002B6DD0026902F173
:100AD0002008B8F5001F67D2C8F308090468B9F107
:100AE000000F59D141690133836131B9A389B3EB57
:100AF000581F51D80023AB6156E0E389013B13EA4C
:100B0000582349D12046FFF73EFE0128064602D869
:100B10000220BDE8F087421C02D10120BDE8F08729
:100B2000236A984232D3002FE4D069692846FFF740
:100B3000C5FE064600283AD00128E9D0431CECD077
:100B40002046FFF7ABFB07460028E6D101464FF4ED
:100B5000007204F13C003DF048F831462046FFF7B2
:100B600023FB4FF0010AA063E3899F420BD284F874
:100B700007A02046FFF76FFB0028CED1A36B0133FF
:100B80000137A363F0E7A36BDF1BA7636E613146F8
:100B90002046FFF709FBA8613C344C44C5F810809F
:100BA000EC610020BDE8F0870420BDE8F087072055
:100BB000BDE8F087F8B50F46002104460668FFF748
:100BC0003CFEA8B90546A1693046FFF7B8FB78B9E5
:100BD000E3691B78E52B00D01BB90135BD4201D17B
:100BE000F8BD054601212046FFF769FF0028EAD03D
:100BF000042808BF0720F8BD2DE9F84F4FF0FF0883
:100C0000474E046807460D46C1460420B9690029CD
:100C100078D02046FFF793FB002874D1F86902785A
:100C2000002A78D0C37AE52A03F03F03BB7160D075
:100C30002E2A5ED023F02001A1F1080CDCF1000186
:100C400041EB0C01A94254D10F2B46D1510605D5D9
:100C50003969437BF96202F0BF0202E0914548D155
:100C6000434690F80D80984542D1C17E837E43EA89
:100C700001231BB2002B3CD10178D4F810E001F025
:100C80003F0101394FF00D0C0CFB01FC4FF0010945
:100C90004FF6FF7A995D00EB010B415C9BF801B0C8
:100CA00041EA0B21B9F1000F08D0BCF1FE0F20D8AA
:100CB0002EF81C1089460CF1010C01E0514518D1A9
:100CC00001330D2BE6D103785B0620D5BCF1FE0F76
:100CD0000FD800232EF81C3019E0B9F1000F03D112
:100CE000FFF76DFA804518D04FF0FF33FB6214E038
:100CF00098464FF0FF0900213846FFF7E0FE002834
:100D000084D000E048B10023BB61BDE8F88F531EDA
:100D10005FFA83F9EFE70420F5E70020BDE8F88FDC
:100D200096160608C16A4B1C2DE9F0410446056879
:100D3000066903D1E5274FF001080FE0FFF77DFDBD
:100D4000A8B9F7E7E3691F7085F8078023699E4219
:100D50000DD901462046FFF7B2FE28B9A169284601
:100D6000FFF7EDFA0028EDD0042808BF0220BDE807
:100D7000F08100002DE9F04F002185B00446D0F845
:100D80000090FFF75AFD002840F09C804FF0FF33A1
:100D9000FF26E362B0460093A1694846FFF7CFFA09
:100DA000002840F08F80E5692F78002F7FD0EA7A05
:100DB000E52F02F03F03A3716DD0120702D50F2B70
:100DC00069D101E00F2B53D194F82B30580666D42B
:100DD000790605D523696E7BE36207F0BF0701E062
:100DE000B8455AD16B7BB34257D1EE7EAA7E42EA18
:100DF000062636B2002E5ED195F80080D9F810B0E4
:100E000008F03F0808F1FF324FF00D0808FB02F828
:100E100001212E4AB25CA81815F802A040784AEACF
:100E2000002AB1B1B8F1FE0F45D8504603933CF00B
:100E300079FF08F1010202903BF8180001923CF0A2
:100E400071FF0299039B814235D1019A5146904628
:100E500003E04FF6FF7292452DD101360D2ED8D109
:100E60002A78520629D541B33BF818202AB322E04C
:100E7000B8F1000F04D12846FFF7A1F9864218D037
:100E800094F82B30DB0706D40B2204F1200128460E
:100E90003CF0CDFEB0B1009BE3624FF0FF080021B3
:100EA0002046FFF70CFE00283FF476AF0AE004204E
:100EB00008E0404606E01E46EFE7013F5FFA87F88C
:100EC0001E46ECE705B0BDE8F08F00BF9616060899
:100ED0002DE9F04F90F82BA01AF0A00489B0054638
:100EE00040F0E18007683A6932F814300BB1013400
:100EF000FAE705F1200696E807000DF114091AF04B
:100F0000010F89E8070067D0402385F82B304FF0A8
:100F100001084FF07E0B99E807003346D7F810E040
:100F200003C323F8022BB8F1050F4FEA12421A70DF
:100F300001D8434616E0AEF10201434631F8022FD4
:100F400082B1102002F0010E0EEB430313F4803F38
:100F50001CBF83F4883383F0210301384FEA520227
:100F6000F0D1EBE7072203F00F0000F1300139293F
:100F700088BF00F13701013A03A810441B094170F2
:100F8000F1D108A9114401F814BC9A4204D0F15CD3
:100F9000202901D00133F8E73344072A9BBF08A971
:100FA0008918202111F8141C03F8011BA3EB06017A
:100FB00098BF01320729F0D92846FFF7DBFE30B988
:100FC00008F10108B8F1640FA5D1072089E00428D1
:100FD00040F0878085F82BA01AF0020F1BBF0C345D
:100FE0000D230124B4FBF3F418BF01342146284635
:100FF000FFF7E0FD002874D1013C56D0296928464E
:10100000A1EB4411FFF719FC00286AD13046FFF725
:10101000D6F88046A9693846FFF791F98646002838
:101020005FD1EB69D7F810C018734FF00F02E1B22F
:10103000DA729876D8764A1E0D20424383F80D80E6
:10104000019270464FF6FF7948451FBF019A3CF860
:10105000120001320192244A1EF802A00EF1010E84
:1010600003EB0A0B03F80A004FEA102A002808BF16
:101070004846BEF10D0F8BF801A0E5D14FF6FF7E7B
:10108000704503D0019A3CF812200AB941F04001A2
:1010900019700123FB7100212846FFF710FD00BBEA
:1010A000013CB7D101E006201BE0A9693846FFF7F3
:1010B00046F90446A0B920222146E8693CF095FD96
:1010C00003CEEB6918605960B278318819819A7241
:1010D00095F82B30EA6903F0180313730123FB71B1
:1010E000204609B0BDE8F08F961606082DE9F74FA7
:1010F0000B78D0F800B02F2B0646884601D05C2B29
:1011000001D1424602E0DBF81C3008E013782F2BB7
:10111000904602F10102F9D05C2BF7D00023B360B6
:1011200098F800301F2B5ED880230021304686F8C7
:101130002B3003B0BDE8F04FFFF77FBB2F285BD00B
:101140005C2859D0B4F5807F00F0338101213CF058
:10115000CBFD002800F02D817F2804D8994A12F891
:10116000013F002B54D127F8020F25461AF8010F32
:101170001F2805F10104E1D81F28A0448CBF0024DA
:101180000424012D47D1B9F800302E2B49D100237A
:1011900029F8153006F11F029D4294BF20212E210F
:1011A00001330B2B02F8011FF6D144F0200486F81E
:1011B0002B403046FFF7DEFD96F82B30002840F03C
:1011C000D8805A0700F1FB80B379DB0640F1E58057
:1011D00033699BF80500C3F308030BF13C01194484
:1011E000FFF71FF8B0603368D3F8109008F1FF3AAA
:1011F000A9F102070025B9E708EB040301E05C2A26
:10120000BAD1C8EB030413F8012B2F2AF7D1F8E762
:101210009842A4D1CDE0022D03D1B9F802302E2B93
:10122000B1D009EB450304E033F8022D202A03D1A5
:10123000013D002DF8D101E02E2AF9D0002109EB63
:10124000450329F81510002D00F0B3804FF0203031
:1012500070623062C6F8270039F81120202A01D1C7
:101260000131F9E72E2AFBD021B144F0030401E05B
:10127000013D03D033F8022D2E2AF9D100234FF07F
:10128000080A1F4639F811004A1C00284DD02028B2
:1012900003D02E2805D1AA4208D044F003041146F9
:1012A000F0E7534505D2AA4217D184E05345C0F078
:1012B0008280BAF10B0F04D144F003044FF00B0A03
:1012C00033E0AA4202D044F003042ED8BF00FFB29C
:1012D0002A464FF00B0A0823E1E77F280ED90021A8
:1012E0008DE80C003CF000FD9DE80C0018B136497B
:1012F000084410F8800C44F0020430B1DFF8CCE070
:101300001EF8011F29B18842FAD144F003045F207E
:1013100006E0A0F1410189B2192940D847F002073F
:10132000F118013381F82000B9E796F82030E52B59
:1013300004BF052386F82030BAF1080F04BFBF00B0
:10134000FFB207F00C030C2B03D007F00302032AB3
:1013500001D144F00204A1073FF529AF07F00307CC
:10136000012F08BF44F01004042B08BF44F0080408
:101370001DE7042823D113F0200F03F0040307D046
:10138000002B3FF430AF802386F82B30002016E08E
:10139000002B14BF0420052011E005200FE0A0F170
:1013A000610189B219299EBF203847F0010780B238
:1013B000B6E7062003E0BAF10B0F87D17CE703B054
:1013C000BDE8F08F51160608A31606085A1606083F
:1013D00000214171FFF70EB82DE9F04F06468DB0A0
:1013E00092461D460C46002900F0B58003F03F08E8
:1013F0004146FEF7FFFF0746002840F0B6800DF19A
:101400003009514649F8306D4846FFF76FFE20B964
:101410009DF92B30002BB8BF062015F01C0F4CD0C7
:1014200040B1042802D14846FFF752FD48F00808B1
:1014300048B197E09DF8063013F0110F40F091800D
:101440006D0700F18A8018F0080F45D048F0CAFCFB
:101450000246014607980E30FEF79EFE0798114699
:101460001630FEF799FE079B2022DA72DDF81CB0D9
:10147000B24659461AF8050FFEF7D3FE002205467C
:1014800059465046FEF7DBFE079B00221A775A7733
:101490009A77DA770123F371E5B129464846D6F801
:1014A00038A0FFF766FA00285CD151463046FEF7B7
:1014B00046FF013D756150B154E0002852D19DF8BE
:1014C0000630D8064BD4A90701D5DA0749D418F05D
:1014D000080F01D048F04008B36B079D2362656296
:1014E00070792946FEF79DFE0146A06005F11C00BB
:1014F000FEF74AFE7389A38018F0200F4FF0000317
:101500000546E060266084F810806374E3616361DF
:101510002FD070B3B6F80E8060614FEA4828A84516
:101520000CD22068FFF72FF901280146C8EB05050A
:1015300003D9431CF3D1012700E00227A161A7B919
:10154000C5F30803ABB13046FEF72EFE60B100EBE9
:101550005520E0610DE009200CE0082002E00420A5
:1015600000E00720074600E00227002323603846FA
:1015700000E000200DB0BDE8F08F2DE9F74F984650
:1015800000230F46C8F8003001A905461446FEF7AF
:1015900025FE002840F08280687C00287ED12B7CCC
:1015A000DA077AD5EB686869181A844228BF0446BE
:1015B000002C70D06B69C3F30802002A48D1019A4D
:1015C000B2F80E9009F1FF3919EA532910D10BB97D
:1015D000A86803E0A9692868FFF7D5F8012801D8B1
:1015E000022002E0431C02D10120687456E0A86189
:1015F000DDF804B0A9695846FEF7D6FD0028EFD003
:10160000660A09EB000A21D0BBF80E30DBF80000B7
:1016100009EB06029A4288BFC9EB030633465246DD
:10162000394601F0ABF80028DED10199CB795BB1E6
:10163000886BCAEB0000864206D94FF400723C3139
:1016400007EB40203CF091FA760219E0C5F81CA0A7
:101650006E69E9690198C6F30806C6F50076A642E8
:1016600028BF2646FEF76BFE0028BDD101996B69A5
:101670003C31C3F308033246194438463CF075FA4E
:101680006B6933446B61D8F8003033443744C8F891
:101690000030A41B8CE7204600E0072003B0BDE823
:1016A000F08F2DE9F74F9B4600238946CBF8003099
:1016B00001A904461646FEF791FD002840F0AC80D3
:1016C000607C002840F0A880237C9A0740F1A3802A
:1016D0006369F3424DD3DE434BE06369C3F3080211
:1016E000002A7BD1019AD789013F17EA532743D0BB
:1016F0000198E369826B9A425DD0DDF804A0A1698C
:101700005046FEF751FD002848D0750A07EB000847
:1017100056D0BAF80E30DAF800007A199A4288BF2B
:10172000DD1B2B464246494601F04CF88246002814
:1017300038D1019FB96BC8EB01018D4209D94FF433
:10174000007209EB412107F13C003CF00EFA87F8EA
:1017500007A06D026369E2682B4463619A422CBF63
:10176000E260E360DBF800302B44A944CBF80030A2
:10177000761B002EB1D109E01BB9A06860B9014603
:1017800000E0A1692046FFF799F828B9237C43F0CF
:101790004003237400203FE0012801D1022002E031
:1017A000431C02D10120607436E0A368A061002BC5
:1017B0009ED1A0609CE7FEF771FD00289DD0F1E767
:1017C0006269E3689A4207D35046FEF767FD002836
:1017D000E8D1019BC3F83880C4F81C806569E169D1
:1017E0000198C5F30805C5F50075B54228BF354613
:1017F000FEF7A5FD0028D5D1019863693C30C3F3FD
:1018000008032A46184449463CF0AFF9019B4FF0C3
:101810000102DA719EE7072003B0BDE8F08FF7B54B
:1018200001A90446FEF7DAFC054660BB237C5B0693
:1018300029D548F0D7FA216A07460198FEF77FFDBF
:10184000054600BB666AF37A43F02003F372206812
:10185000A26831460530FEF7F2FCE16806F11C0093
:10186000FEF79AFC394606F11600FEF795FC019842
:10187000B5740123F574C371FEF716FD237C23F0C4
:10188000400305462374284603B0F0BD13B5044653
:10189000FFF7C5FF28B901A92046FEF79FFC00B954
:1018A000206002B010BD70B50E468CB00021054618
:1018B000FEF7A0FD0446E8B90CA8314640F8305DBB
:1018C000FFF714FC044680B99DF92B30002B02DA97
:1018D000029BEB610EE09DF80630DB0609D5079907
:1018E0006879FEF79EFCE86104E0042808BF05243F
:1018F00000E0052420460CB070BD2DE9F0470E46EF
:101900000021D2B0317081469046FEF773FD074644
:10191000002873D1D9F81C30CDF8009002934546C9
:10192000DDF808A0BAF1000F4DD020216846FEF77F
:1019300084FF044600285AD106994846FEF7FFFC6A
:101940000446002853D1079999F80500FEF769FC71
:10195000214602906846FEF770FF0446002846D1F3
:1019600000216846FFF748F90446002842D107994C
:1019700099F80500FEF755FC824504D10CA968468C
:10198000FFF72DF807E021466846FFF798F8044670
:101990000028E5D02EE00CAB23449B7D0BB1013435
:1019A000F9E7E31C9D4221D32A1B234632442BB185
:1019B000013B0CA91944897DD154F8E7E44325443F
:1019C0002F237355ACE7454503D12F22731C32708A
:1019D00009E072193346AD1B12F8011B03F8011B15
:1019E00059194145F8D300221A7007E011242746FF
:1019F0003346F8E7042C08BF0224F8E7384652B013
:101A0000BDE8F08773B50D4601A90446FEF7E6FB75
:101A1000002876D1607C002873D1E368AB4204D201
:101A2000227C12F0020F08BF1D460022636962612A
:101A3000002D64D0019AD68976026BB1013B6A1EF3
:101A4000B3FBF6F1B2FBF6F28A4205D372421340C1
:101A50006361ED1AA16910E0A16869B92046FEF73B
:101A60002DFF0128014601D1022002E0013002D100
:101A70000120607445E0A160A161B9B900232CE0A8
:101A8000636933446361237C9A07A5EB060510D58F
:101A90002046FEF713FF014680B14B1CE8D0012918
:101AA000E2D9019B1B6A9942DED2A161B542E7D817
:101AB00005E02068FEF767FE0146EEE7054663692C
:101AC0002B446361C5F30803002BD7D00198FEF7C0
:101AD0006BFB0028C8D000EB5523E268656995428E
:101AE00081BF227CE56042F040022274C5F3080009
:101AF00038B1E2699A4218BFE361002001E02B4649
:101B0000F4E702B070BD70B5054616460C4611B339
:101B10000021FEF76FFCD8B9256031462046FFF75B
:101B2000E5FAF0B994F92B30002B07DBA379DB063B
:101B30000DD56879E169FEF774FBA0606B89A3801D
:101B400000212046FEF779FE0428034605D1052032
:101B50000023236070BD092070BD002BF8D118460A
:101B600070BD0428F3D0F3E713B501A90446FEF7CE
:101B700035FB00B9206002B010BD73B50E4601A957
:101B80000546FEF72BFB0446C0B90146284616B9A8
:101B9000FEF753FE11E0FFF72FF810F0FB0F0CD10A
:101BA00031462846FEF71BFF21462846FEF787FFF1
:101BB000042814BF0446002400E00446204602B076
:101BC00070BD70B50E468CB0002104461546FEF778
:101BD00011FC0094044680B931466846FFF786FA46
:101BE000044650B99DF92B30002B05DB2DB1294659
:101BF0006846FEF7F4FE00E0062420460CB070BDF7
:101C00002DE9F0478A4600210446FEF7F3FB05461E
:101C1000002856D1D4F82090A369A9F1020293427A
:101C200002D8CAF800304CE06379012B10D10227AA
:101C3000064639462046FEF7A6FD431C35D001284E
:101C400035D000B90136236A01379F42F1D331E024
:101C5000E16A074680460646B8F1000F0AD12046E1
:101C600001F10108FEF76BFB18BB414604F13C078C
:101C70004FF400786379022B09D17A783B7853EAE4
:101C8000022308BF01360237A8F1020809E03846EE
:101C9000FEF77AFA20F0704000B901360437A8F157
:101CA0000408B9F10109D7D104E0012502E00225B9
:101CB00000E00546CAF80060237AA66143F00103FC
:101CC00023722846BDE8F087F0B50E4699B0022190
:101CD0000546FEF78FFB00950446002841D13146AA
:101CE0006846FFF703FA044600283AD19DF82B30E6
:101CF000980606D41A0604D49DF80670F9072FD466
:101D000001E006242DE007996879FEF78AFAFB06C0
:101D1000064612D5EB699E4222D021460CA80C95AE
:101D20000E96FEF78AFD0446D8B901460CA8FEF7C8
:101D300063FF0446A0B1042813D16846FEF7F2FF02
:101D4000044670B926B92846FEF7AEFA044608E004
:101D5000024631466846FEF70CFE044608B9F2E733
:101D60000724204619B0F0BD2DE9F04F0E468DB086
:101D700002210446FEF73EFB00940546002840F091
:101D8000A78031466846FFF7B1F9054658B10428E7
:101D900040F09E809DF82B3003F0200303F0FF01FC
:101DA0001BB1062594E0082592E06846FEF786FD03
:101DB000E3895B020393064640B1012E04D0731CF5
:101DC00040F08180012502E0022500E0072548F06F
:101DD00009F88246002D56D131462046FEF7E4F937
:101DE00004F13C074FF400722946814638463BF027
:101DF000FCFE4FF02033E3637B60C7F807302E23EF
:101E000084F83C30102384F84730514604F15200E6
:101E100004F10508FEF7C0F9324639464046FEF7A0
:101E20000EFA04F15C013B460A4653F8040B42F8F3
:101E3000040B8B42F9D12E2384F85D306379029A2A
:101E4000032B03D1236B9A4208BF00224046FEF7C2
:101E5000F6F9B4F80EB0D944CBEB0902BBF1000F90
:101E600017D04FF00103A263E3712046FEF7F3F9A8
:101E7000054640B901464FF4007238463BF0B5FEC6
:101E80000BF1FF3BE8E7002231466846FEF771FDA3
:101E90001EE06846FFF71CF805460028F3D1079DB1
:101EA000514605F11600FEF777F9294632464046BD
:101EB000FEF7C5F91023EB720123E3712046FEF70C
:101EC000F3F9054604E02046FEF7E8F905467EE70B
:101ED00028460DB0BDE8F08F2DE9F0410C469EB0CC
:101EE000022106469046FEF785FA002840F08480DD
:101EF0001EAF214647F8606D3846FFF7F7F8002817
:101F00007AD19DF8433013F0A00F68D10D996A463D
:101F100001F10B0301F11B0418685968154603C54C
:101F20000833A3422A46F7D1186828601B792B7121
:101F30003D460FCD12AC0FC40FCD0FC495E80F0076
:101F400084E80F00414612A8FFF7D0F840B9089B7B
:101F5000149A9A4245D10A9B169A9A4241D101E0BD
:101F6000042849D112A8FEF7B3FF002844D11999DB
:101F70000DF1020301F10D020DF1120053F8044BB3
:101F800042F8044B8342F9D1188810809B789370F3
:101F90009DF80030012443F02003CB72F471CB7A1A
:101FA000DB0622D5149B089A9A421ED07079FEF760
:101FB00038F901463046FEF7F7F8014698B1304649
:101FC000FEF7BDF9C0B996F85D302E2B0DD1149AED
:101FD00006F15C01701DFEF732F9F47105E0062090
:101FE0000AE0082008E0022006E03846FEF79AFEE4
:101FF00010B93046FEF758F91EB0BDE8F081000078
:102000002DE9F0410E4692B002210746FEF7F2F9A3
:10201000002840F0838006973246931B12F8011B7C
:102020001F29FAD83344B342A3EB06041CD013F89B
:10203000012D202AF7D000258DF80050B04601214F
:1020400018F8010B3BF050FE3BF06CFE00213BF01A
:102050004BFE08B9062061E0324A12F8013F002B1E
:1020600036D09842F9D1F5E70024002106A808915E
:10207000FEF7E3FB002851D1012106A8FEF7BCFDC5
:1020800020B90D9AA4B9E523137019E0042845D1AD
:10209000E4B1012106A8FEF78DFD00283ED12022E3
:1020A00001460D983BF0A1FD0D9B0822DA720D9AB6
:1020B0006B4603CB1060516019889B789372118135
:1020C0000123FB713846FEF7EFF827E0204625E0B4
:1020D000FF2820D9092DBDD812AB2B44020A03F8E2
:1020E000482C013512AA6B1C1544C6EB0802944219
:1020F00005F8480C01D91D46A1E76A466B4420202B
:10210000991A0A2902D803F8010BF9E79DF8003063
:10211000E52BAAD19EE70A2DE4D99BE712B0BDE8D2
:10212000F08100BF311706082DE9F04FD0F800808C
:1021300091B01C4600234371049103790393154623
:1021400005210DF13702404600F064FB9DF8373061
:10215000DF0700F1D6825E0700F1D5820EAA0321C7
:10216000404600F057FB30B90E9A531EB3F5004FAE
:1021700001D21A4201D001230E9335B1A04BA5F52F
:1021800000729A4201D91320CEE26A1E2A40FAD187
:102190001A9B5B0A06935B020793069B0BB90E2002
:1021A000C2E2039B23B301232146404600F0E6FA36
:1021B000002840F0A88194F8FF2194F8FE3143EA0A
:1021C00002234AF655229342E9D1039B04EB031103
:1021D00001F5D7710B79002BE1D001F10800FDF773
:1021E000D3FF834601F10C00FDF7CEFF0F9015E001
:1021F0000FAA0121404600F00DFB002840F083812A
:10220000049B13F0080F0F9B0CBF4FF03F0B4FF0D8
:10221000000B9B45C3D8CBEB03030F93DDF83C9039
:10222000B9F1310FBBD96A0A802AACD8049B03F0FC
:10223000020303F0FF0C3BB1049B03F00703022BE6
:1022400007D0049BD80704D5049BD9079BD5022748
:1022500000E003274FEA193308930E9B591E5B4297
:102260000993032F4FEA59430A910B934FF6F57EDA
:1022700075D14AB96349012631F8023F2BB10B9D54
:102280009D4202D37600F7E71646B9FBF6F35E49A6
:102290009D00A3F57F43F63B05F207258B424FEAED
:1022A00055253FF67CAF002302934FF0200A20E033
:1022B000089D9D4204D3760031F8023F002BF7D1F0
:1022C00040F6F573B9FBF6F59D429BBF05EB45055E
:1022D000013502356D088CBF6D00033505F2FF1521
:1022E0004FF020038CBF022701276D0A02934FF0A5
:1022F000010A0BEB0A030193029B01990998EB1861
:102300000B440A99032F194401EA000108BF019800
:10231000A1EB030101BF40188A440146019118BF97
:102320006D18CBEB06110B449945FFF438AFCAEB9F
:10233000090302995B1B032FA3EB0103B3FBF6F325
:10234000059312D0022F26D1059B734516D9002A7A
:1023500040F0DB817600402E00F2DD81324612B97A
:102360002A490126A8E71646AAE773451AD8002A83
:102370007FF415AF72083FF412AF7AE7059B40F681
:10238000F5718B420ED8002A7FF409AF7200802AC3
:102390003FF605AFE3E7059A40F6F5739A423FF63C
:1023A000FEAE01274FF40072002120463BF01DFCD9
:1023B000174B84F80EA01A6822605A6862601A8966
:1023C0009B7A2281032F4FF00202A3724FF0000389
:1023D000E3722273CAF3072A4FF00102637418BF35
:1023E0000223B9F5803F667384F80FA02274A374AA
:1023F00010D284F81390C9F3072984F814900EE0E2
:1024000000FEFF0042160608FFFFFE0F2217060817
:1024100062160608494604F12000FDF7BDFEF823C8
:1024200063753F2323764FF00009FF2384F819904A
:10243000A37684F81B90594604F11C00FDF7ACFE0E
:10244000032F30D147F0CEFC014604F14300FDF7E5
:10245000A3FE294604F12400FDF79EFE022384F822
:102460002C30012384F83030062384F83230802366
:1024700084F84030292384F84230AD4B84F82D9005
:1024800084F82E9084F82F9084F8319084F833905B
:1024900004F1470203F1100153F8040B42F8040B56
:1024A0008B42F9D11BE047F09DFC014604F1270067
:1024B000FDF772FEC5F30723E375802384F824300B
:1024C000292384F826309B4BA57504F12B0203F1D8
:1024D000100153F8040B42F8040B8B42F9D1198810
:1024E0009B7893704FF0AA0A4FF055031180404635
:1024F00084F8FE3184F8FFA101235A46214600F0FA
:1025000061F9814608B101200EE1032F3FD101237B
:102510000BF106022146404600F054F94FF40072D8
:10252000494620463BF061FB5223237063706123D0
:10253000A37084F8E731059B41227221E27084F890
:10254000E41184F8E51184F8E621591E04F5F470CD
:10255000FDF722FE022384F8EC314FF0550384F896
:10256000FE310BF107020123214684F8ED9184F836
:10257000EE9184F8EF9184F8FFA1404600F022F933
:1025800001230BEB03022146404600F01BF9079A9A
:10259000002120463BF029FB032F0FD1F8232370A5
:1025A000FF236370A370E37023716371A371E37100
:1025B00023726372A3720F23E37207E0012F5E4957
:1025C000204618BF6FF00701FDF7E6FD069B019A54
:1025D000AB4228BF2B4621464046994600F0F2F810
:1025E000014600288FD14FF4007220463BF0FDFADF
:1025F000019BB5EB09054B440193E7D1029B032FE7
:1026000008BF33460293029B069A934228BF1346A3
:102610002146019A40461D4600F0D4F800287FF478
:1026200072AF019B2B440193029B5B1B0293EAD187
:10263000032F08D00F9BB3F5803F06D2022F14BFA3
:102640000125042502E00C2500E00625039B83B14B
:10265000002201232146404600F090F8024600285F
:102660007FF451AF039B04EB031383F8B2510123B2
:1026700040E0049B1B0708D500221146404600F0AD
:10268000C9F8003018BF01204EE04FF400720399E2
:1026900020463BF0AAFA552384F8FE310F9A84F8BD
:1026A000C251AA2384F8FF319DF80C3084F8BE3162
:1026B00084F8C1315A4443F6C163B2FBF3F2FE23FE
:1026C00084F8C331930843F03F03012684F8C431F2
:1026D00084F8C521594604F5E37084F8BF6184F895
:1026E000C061FDF759FD0F9904F5E570FDF754FD44
:1026F000039A33462146404600F064F80028BBD0D8
:1027000001E7032010E00A200EE0BCF1000F3FF4C7
:1027100046AD0327ADE5BCF1000F01D00327A9E5C5
:10272000802E3FF63CAD19E611B0BDE8F08F00BF3A
:102730006E16060882160608F8FFFF0010B504465C
:1027400008B9012010BD83885B0705D4A369002B5D
:102750000CBF0420002010BD032303630123436347
:1027600000F128020021022028F0A7FB024B98422A
:10277000ECD04308EAD0E4E754A00508F8B50F46CA
:1027800016460546E0B1808810F0010408D02C6997
:102790001A4631463846A047003018BF0120F8BD20
:1027A000560046F0010658022E612AF0D5FD05F1CB
:1027B000080268612146022028F07FFB2046F8BD10
:1027C0000420F8BDF8B50F4616460546F0B18269FB
:1027D000F2B1808810F0010408D02C6A1A46314604
:1027E0003846A047003018BF0120F8BD760046F0FB
:1027F000010658022E622AF0AFFD05F11802686248
:102800002146022028F059FB2046F8BD0420F8BDDF
:102810000220F8BD10B5144600285BD083885B0702
:102820002AD5062956D8DFE801F0040D1646554989
:102830004E00072303630123436300F128020021B4
:10284000022027E0092303630123436300F12802E8
:102850000021022025E00B2303630123436300F1E1
:1028600028020021022028F028FB1B4B83421ED0A7
:1028700029F050FF208024E006292BD8DFE801F062
:10288000040D171B2A1E2300836AD3B1002100F117
:102890002802084628F011FB13E0002100F1300265
:1028A000084628F00AFB29F035FF206009E04FF4C4
:1028B0000073238005E00123236002E0FFF73EFF61
:1028C0002070002010BD8369002B0CBF042300235F
:1028D0002370F6E7042010BD54A0050808B543682E
:1028E0003BB10430FEF7D2FF18B1034B185C29F05E
:1028F000DDF9024808BD00BF00DF050854A0050847
:102900000868FFF7EBBF000037B51C46043001AB89
:102910001546FEF7C6FE10B1054B1B5C03E001989F
:10292000854203D01C2323604FF0FF3003B030BD3D
:1029300000DF050813B51C46043001ABFEF71DFE91
:1029400028B1044B1B5C23604FF0FF3000E001987E
:1029500002B010BD00DF05082DE9F843814650683C
:1029600090460F462FF090FC254A0138002410F8BD
:10297000013F0BB3722B13D008D8612B19D0622BF7
:102980000CD02B2BF3D144F00304F0E7772B0AD0C3
:10299000782B0BD0742B08BF1746E8E7194FE6E7F2
:1029A00044F00104E3E744F00A04E0E744F00604DD
:1029B000DDE744F01204DAE72C201DF06FFB064639
:1029C000054646F8047BD8F800002FF05DFCE3B222
:1029D0000246314609F13800FEF7FEFC074630B1E9
:1029E00028461DF075FB084BD85D29F05FF9E3061A
:1029F00003D529693046FFF705F82846BDE8F88376
:102A0000A0DF050864DF050800DF050830B587B0E2
:102A1000054603AC084611461A46064B009301943E
:102A2000032329F015FB224629460020FFF794FFD7
:102A300007B030BDE8DE050870B5054608460C460F
:102A400029F08CFD2346024602492846BDE8704025
:102A500000F0FCBF20DF0508022970B504461546CA
:102A60001E4615D15368012B04D0022B06D05BB94A
:102A7000116806E013683BB15F2313E00169136836
:102A80001944201DFEF7BEFFA3692B60002070BD16
:102A9000012906D10430FEF7C2FE30B1034B1B5CA6
:102AA00000E0162333604FF0FF3070BD00DF0508F3
:102AB0001FB5054B019102920449039301AAFFF748
:102AC0004BFF05B05DF804FB54A00508A0DF050826
:102AD00030B500F10C04C7B0694605462046FFF743
:102AE0004CF8014638BB9DF8163023B3032030F074
:102AF000A1FE2B7A04460DF116003BB13BF0A9F87C
:102B000001460DF116002FF065F806E03BF0A1F844
:102B100001460DF116002FF0FFF8A0609DF8083077
:102B2000DB064CBF48F201034FF00113E3600123C1
:102B30002361204603E02046FFF716F8002047B047
:102B400030BD0000F8B505463C200E4617461DF086
:102B500097FA0A4B03600A4B43600446077200F180
:102B60000C01324605F13800FEF7CDFF18B1054BD8
:102B7000185C29F09BF82046F8BD00BF749F05083B
:102B8000D12A000800DF050800B5C7B06A46383012
:102B9000FFF717F838B99DF8083013F0100F14BF7D
:102BA0000120022000E0002047B05DF804FB000097
:102BB0002DE9F74F06299DF830500DD8012903D98A
:102BC0003F230370013000E009B1002303700129A5
:102BD00094BF00200120FEE110EE104A002C0ADA1A
:102BE000B4EE400AF1EE10FA05D62D25441C05700E
:102BF000B1EE400A04E015B1441C057000E0044643
:102C00009FEDCB7A0190F0EEC07AF4EE477A02F0B5
:102C1000200CF1EE10FA5FFA8CF50ADD85F049031D
:102C2000237085F04E0385F046056370E11CA570A6
:102C30000DE0B4EE400AF1EE10FA0CD785F04E0329
:102C4000DBB285F0410523706570E11CA3700023A1
:102C50000B70081ABFE1002B42F02002B8BF062318
:102C6000672A02D1002B08BF0123251A0139491B0D
:102C700010EE105A002D17D1662A09D15D1CA94209
:102C8000D8BF8B1E00275E1C6621BE463D46D4E0A1
:102C90005D1DA942D8BF8B1F652A11464FF0000663
:102CA00040F0BE802B27BCE0B5F17E5F68D2DFED3F
:102CB000A17ADFF888E2DFF88892B4EEE70AF1EE55
:102CC00010FA4FF00006ACBF4FF031084FF030085B
:102CD00020273546BEEC017AB4EEC07AF1EE10FA48
:102CE000C4BF09EB060A9AED007A06F10406C4BFD8
:102CF000ED1920EE070A182E4FEA6707EAD110EE09
:102D0000106AB6F17E5F10D2B4EEE70AF1EE10FA67
:102D100006DB002D14BF2D272B27B7EE000A05E098
:102D2000F2EE047A20EE270A01352D27662A03D019
:102D3000672A1DD1042D1BDC672A04BF05F1FF366D
:102D40009B195E1CB142D8BF8B1E84F80080002BFB
:102D500000F02D812E2161701E4602343021013D8C
:102D600062D01EB104F8011B013EF8E737465CE073
:102D70004E1FB342C0F22181672A5AD08B1F59E0FF
:102D80000026DFF8BCE1DFF8B48120273546FEECF1
:102D9000017AF4EEC07AF1EE10FA9CBF08EB060956
:102DA000D9ED007A06F104069CBFED1920EE270A42
:102DB000182E4FEA6707EAD1F2EE047AB4EEE70A7A
:102DC000F1EE10FAA2BFDFED5C7A013520EE270AA2
:102DD000662A0AD18D420ADA5E190136B1421ADC3E
:102DE000491B8B1E17D54B1E15E0652A08D14E1FB7
:102DF000B34225DB00268B1F2B27B64665211CE03E
:102E0000672A22D11E1DB14200DC4B1F9D4280F279
:102E1000CA80691C5B1AEE180136AE46002706E030
:102E20003746B646354608E02F464FF0FF3E66214E
:102E300003E0334611460026B64623EAE37308E072
:102E40002B274FF0000E652105E0002611462B27A9
:102E5000B646652901D15E1C06E0672904D113B985
:102E60000126334600E01E464FF000084FF02E0AC0
:102E7000B2EE047A46451ADDFDEEC07AF04517EE53
:102E800090BA0BF1300B04F1010984F800B004D1C1
:102E90001BB104F1020984F801A0F8EEE77A08F109
:102EA000010830EE670A4C4620EE070AE2E7662A80
:102EB00002D1012D5EDC85E0F1EE047AB4EEE70A82
:102EC000F1EE10FA49DB661E4FF03009B04618F8F3
:102ED00001E9BEF12E0F01D14646F7E7AEF1300A07
:102EE000BAF1090F01D9701C0CE0BEF1390F05D001
:102EF0000EF1010E86F800E0304603E0B04288F89B
:102F00000190E9D10678302E27D190F801E0BEF18A
:102F10002E0F17D1662915D02D2F80F800E04670AE
:102F200003D1013D08BF2B270DE001350BE000BFA9
:102F3000FFFF7F7FF8FF7F3FCDCCCC3DA081050810
:102F40008881050801342146884204D211F8016CB9
:102F500001F80169F8E731210170672A0AD14BB104
:102F600023461C46013B14F8012C302AF9D02E2AA6
:102F700008BF1C4697B10A2195FBF1F393FBF1F2D0
:102F800001FB135501FB12324CF0450C3032303549
:102F900084F800C06770A270E570043400232370C9
:102FA000019BE01A17E0672100262B2744E7013434
:102FB0001F464FF0FF3E662102E011464FF0000E23
:102FC000002646E7F1EE047AB4EEE70AF1EE10FAD5
:102FD000BFF679AFCEE703B0BDE8F08F08B5044681
:102FE00031B1054B03608A6B096800232BF088FA26
:102FF00020461DF027F800BF7C9405082DE9FF4707
:103000001F46019246180AB905460BE0023A222AE9
:10301000FAD9384828F07EFC207801351EF026F9D0
:10302000002855D0B5422C46F6D34FF00008311B8E
:10303000204601AA27F0F7FB0444A1460025B1452C
:103040004B461CD219F8012BA2F1300ABAF1090F34
:1030500007D942F02002A2F1610119290FD8A2F18B
:10306000570A01998A450AD2284635F065FAE0B92F
:10307000019B03FB05A595EA4503E0D515E0B8F1F2
:10308000000F00D06D426D0045F00105A34217D03E
:103090001C46B442234606D2187801341EF0E6F8E6
:1030A0000028F6D10CE021D00AE004A8019B40F8EA
:1030B000044D4246311B2CF045FC039B0546E5E7D9
:1030C0000D49019A0D482BF07FF93946FFF786FF2D
:1030D00023782B2B02D12C468046A8E72D2B0ABF44
:1030E0002C464FF000084FF00108A0E7284604B036
:1030F000BDE8F087B8810508DB810508708F0508F9
:103100002DE9F04F2DED028B83B01646DDF8389097
:10311000019300EB0108054645452C4606D2207870
:1031200001351EF0A3F80028F6D15DE0002700234A
:103130009FED828A9FED827A254619469A461A4665
:10314000F2EE046A4FF00A0B45454AD295F800E0CA
:10315000AEF1300CBCF1090F05F1010018D8022ABC
:1031600002D10BFB01C13AE0B4EEC78AF1EE10FACE
:103170000BD507EE90CAF8EEE77A012AE8EE267A38
:10318000B0EE678A2BD1013B29E042BB013326E038
:103190001AB9BEF12E0F02D120E0022A14D04EF04F
:1031A0002002652A10D1804509D96A782B2A01D1DD
:1031B000A81C04E02D2A04BFA81C4FF0010A4045BA
:1031C00000F0818002220AE0F6B14EF0200EBEF13E
:1031D0006A0F0ABF05460026012615E001220546B2
:1031E000B2E720462C460CE023782B2B72D12C46DC
:1031F0000746454519D300239FED508A28461946B6
:103200009A46254600260446BAF1000F00D04942EE
:10321000CB1800EE903AB2EE040AF8EEE00A3BF06A
:103220000BFC20EE088A19E00746237843F02003C0
:10323000692B15D06E2B7FF47AAFA31C984512D959
:10324000637843F02003612B0DD1A37843F0200372
:103250006E2B08D19FED3B8AE51C002657B107E095
:10326000A31C98453BD877B39FED348A25460026AA
:10327000B1EE488AA54226D045452B4606D218789D
:1032800001351DF0F3FF0028F6D11CE01BD126B15B
:10329000F0EE480A9FED290A05E0019B53B1DFEDEE
:1032A000270AB0EE480A03B0BDEC028BBDE8F04F30
:1032B0002AF01ABAB0EE480A03B0BDEC028BBDE8A2
:1032C000F04F2BF03FBA204920482BF0DBF849465D
:1032D000FFF784FE2D2BA7D12C46012789E76378C1
:1032E00043F020036E2BBED1A37843F02003662B5E
:1032F000B9D1E31D984504F103051AD9E37843F0E9
:103300002003692B15D1237943F020036E2B10D1B4
:10331000637943F02003692B0BD1A37943F0200399
:10332000742B06D1E37943F02003792B01D104F10A
:10333000080500269FED068A90E700BF0000000008
:10334000EC78AD600000C07F03820508708F05082F
:103350000000807F084611463FF098BD70B50546D5
:1033600008460E463AF075FC044620B102466B68EA
:10337000286831469847204670BD00002DE9F74F78
:103380000D9C01919146A41A9DF8302012F0DF0F98
:10339000064609D0302A0CAA244F0EBF4FF0100861
:1033A00017464FF0010802E0214F4FF0100813F0CC
:1033B000800205D0022394FBF3F3E51A1C4602E0D9
:1033C00013F0010511D1002C12DDA246D045C346F1
:1033D000A8BFD346736830685A463946CBEB0A0A11
:1033E0009847BAF1000FF1DC03E02546144600E0EF
:1033F0000024B9F1000F05D07368019930684A467E
:1034000098474C44002D0DDD2C44A845C146A8BF6B
:10341000A946736830684A463946C9EB050598479E
:10342000002DF2DC204603B0BDE8F08F4F6D05089B
:10343000606D05082DE9F04389B08046119E9DF826
:103440004890139F0AB900220DE0002904DA2D22CA
:103450008DF80F2049420EE0B00701D52B2202E083
:103460007207F0D520228DF80F2021B908AC302347
:1034700004F8013D14E0109A08ACA2F10A050DF120
:10348000100EB1FBF3F003FB1012092ACCBF521946
:10349000303204F8012D7445014601D00028F0D1E6
:1034A00016F040039DF80F500DD0ADB101220192EE
:1034B000CDF8009033460DF10F014046FFF75EFF57
:1034C000013F054608E03DB104AA944284BF04F8D8
:1034D000015C04F1FF341D4608AA0197CDF8009065
:1034E0003346121B21464046FFF748FF284409B0E7
:1034F000BDE8F0832DE9F04F91B011F0010F824645
:1035000089461A9D9DF86CB01C9EDDF8748010D120
:1035100011F0030F03D109687F48814209D0484662
:103520000593049229F0F6F8059B049A400040F0B8
:10353000010915F0810106D1BBF1300F03D14645D9
:10354000B8BF464688464846059304922CF007F9D2
:103550000028049A059B08A80BDBAF0701D52B2197
:1035600002E06C0705D520218DF820100DF1210413
:1035700000E00446E9061ED5022A05D1214630277F
:1035800001F8027B5F1C14E0082A0AD1AF054FF056
:103590003001217045BF03F10E0161700134023426
:1035A00009E0102A07D12146302701F8027B03F1F8
:1035B000170767700C46002115F0200F2170A4EB4F
:1035C000000404940CAF0CBF0C462C24B8F1010F7E
:1035D0000997C8BF45F0400510270A97DBB215F0E0
:1035E00040070B918DF81F100394029314D0002311
:1035F0008DE80C000AA94B460BAA09A82BF062FF24
:1036000003782D2B814618D18DF81F300B9B013B81
:1036100000F101090B9310E0019000924B460BAAB8
:103620000AA909A82BF04EFFB8F1010F81466DDD04
:103630000B9C4445B8BF44460CE0B8F1010F64DD73
:103640000B9C9DF81F304445B8BF444603B101347C
:10365000049B1C44A64209DD05F00103002BA6EBE8
:10366000040416BF27460027002401E000273C463B
:1036700025F001054CB120230093002301941A4644
:1036800026495046FFF77AFE04464FF0300B690694
:103690001BD59DF81F3053B10122002301920093E6
:1036A0000DF11F015046FFF769FE013E0444049BE3
:1036B0005BB10123019300230093049A08A95046AB
:1036C000FFF75CFE049B0444F61AB8F1010FC8BF73
:1036D00046460196CDF800B02B460B9A4946504617
:1036E000FFF74CFE04444FB12023009300230197C1
:1036F0001A460A495046FFF741FE044409980CABAC
:10370000984205D01CF0E4FC02E000273C46BEE7EE
:10371000204611B0BDE8F08F849A0508431B0608C7
:103720002DE9F04316468BB0B20780469946129FAA
:1037300005D416F0040F0CBF0023202300E02B2338
:1037400000930A46139B202102A8FFF731FAF305E4
:1037500005460DD5431C1F2B0AD80AAA154425225D
:1037600005F8202C0AAA1A44002102F8201C1D4644
:1037700016F0400412D09DF808302F2B4FF00003B4
:103780000ED8012202A9019200934046FFF7F6FDF0
:10379000013F0446013D0DF1090103E002A901E0EA
:1037A00002A91C460197CDF8009033462A464046B0
:1037B000FFF7E4FD20440BB0BDE8F0832DE9F04FA6
:1037C000814689B0144600250E46334613F8012B76
:1037D0005AB9B1420DD2771AD9F80430D9F800009D
:1037E0003A4698473D44314603E0252AF1D01E462B
:1037F000EBE70B78002B00F02081013120234FF004
:1038000000080F780E464A1C002F4BD02D2F02D1F6
:1038100048F0010817E02B2F02D148F0020812E00F
:10382000202F02D148F004080DE0212F02D148F0EA
:10383000080808E0302F03D000274FF00A0E04E0FC
:1038400048F040083B461146DBE70E4611F8012BD5
:10385000A2F13000092803D80EFB0727303FF4E718
:103860002E2A1FD172782A2A04D0084600224FF04F
:103870000A0C07E02268002A06F1020604F104019E
:1038800013DB0DE00178A1F1300EBEF1090F064601
:1038900000F1010003D80CFB0212303AF2E7214696
:1038A0000C4604E04FF0FF3201E00C460022317874
:1038B0006C2908BF013696F800B0BBF1000F00F08C
:1038C000BC80BBF1640F70D012D8BBF1500F00F078
:1038D000828005D8ABF14501022940F28B80A0E03F
:1038E000BBF1620F19D029D8BBF1580F68D098E00E
:1038F000BBF1710F2DD006D8BBF1670F7AD9BBF1A0
:10390000700F68D08DE0BBF1750F44D0BBF1780F1C
:1039100056D0BBF1730F2ED083E0226804F1040A65
:103920008DE88800434612B10422464901E0464929
:1039300005224846FFF722FD05447BE008A92268DE
:1039400001F8042D04F1040A8DE8880001224346A1
:10395000EFE707A92068059204931DF096FA059AEF
:10396000049B0146501C8DE8880004F1040A08BF3E
:10397000079A4346DDE7511C04F1040A246805D187
:10398000204604933AF065F9049B02468DE88800CE
:1039900021464346CDE702936123009304F1040AD4
:1039A0000397CDF804800A231EE00293612300935D
:1039B00004F1040A0397CDF804800A23012214E0DD
:1039C000ABF1170B029304F1040A0397CDF80480BE
:1039D0005FFA8BF306E0029304F1040A0397CDF833
:1039E0000480612300931023002221684846FFF7DA
:1039F00021FDA1E7073424F00704D4E90001059272
:103A000004934EF0D5FB059A019200EE100A009740
:103A1000049B42465946484604F1080AFFF780FED7
:103A20008AE7D9F80430D9F80000012231469847D6
:103A30000135A246711C5446C6E6284609B0BDE8C9
:103A4000F08F00BF446D0508496D05080EB403B53D
:103A500003AA52F8041B0192FFF7B0FE02B05DF812
:083A600004EB03B07047000005
:020000040802F0
:10000000024B9A680260986000207047F00400205C
:10001000024B9A6812689A60704700BFF004002093
:10002000C460056146618761C0F81C80C0F82090FB
:10003000C0F824A0C0F828B0C0F82CD0C0F808E060
:10004000FFF7DEBF0D4A08B593680BB921F09EFE9D
:100050001968586091601846C468056946698769DF
:10006000D0F81C80D0F82090D0F824A0D0F828B088
:10007000D0F82CD0D0F808E001207047F004002020
:1000800010B50021044600F0ABFA18B914B12046AF
:100090000BF02AFC10BD002100F0A2BA10B501211E
:1000A000044600F09DFA18B914B120460BF01CFC70
:1000B00010BDFFF7E5BF10B501220C4600F0D2FBE2
:1000C00018B914B120460BF00FFC10BD00F0CABBEC
:1000D00000F058BB3448D0F800332DE9F04F4FF012
:1000E000030E00F50076044600F5407BB34244D988
:1000F0001D1FD0F8E8C153F8041CC0F800530022BB
:1001000001328B184FEA930803F003031CF80880B0
:100110005B0048FA03F303F00303022BF0D0D0F89E
:10012000F43112014FEA920C03EB0113CAB3043B02
:1001300053F8042F110719D1D0F8F451AA4215D35E
:10014000551BD4F8F8714FEA95182D0905F00301F5
:10015000BA424FEA410109D2D4F8E8A11AF808904E
:1001600049FA01F202F00302012A08D0BCF1010CA5
:10017000DED1D0F80033B342BAD8BDE8F08F0EFA22
:1001800001F141EA09010AF80810D4F800135945B1
:1001900001F1040836BFC4F80083C4F8FC210D60E7
:1001A000E4E72B46A2E700BFF0040020F8B521F0F9
:1001B0000F031C1A164A174DE400A2FB0424640A1C
:1001C0000119A3EB84172246C5F8F0110021C5F8E8
:1001D000F831C5F8EC41C5F8E801C5F8F4711DF037
:1001E00004FDA2000732D2080021D5F8F0011DF06D
:1001F000FCFC002301214FF0FF32A5F80613C5F8DF
:100200000C23C5F81033A5F80433C5F80833F8BD3E
:10021000F32C23FAF0040020034AB2F8043301332C
:10022000A2F80433704700BFF0040020034AB2F87C
:100230000433013BA2F80433704700BFF0040020F0
:10024000034BB3F80403003018BF0120704700BF10
:10025000F00400202DE9F843254DB5F804330022C1
:1002600005F500710133A5F80433C5F80013C5F88E
:100270000823C5F8FC212C1F05F5E8762F4605F567
:1002800040794FF0030854F8043F1A0719D1D5F804
:10029000F421934215D39A1AD7F8F8014FEA921E27
:1002A000120902F0030183424FEA410109D2D7F853
:1002B000E8C11CF80E0040FA01F303F00303012B20
:1002C00005D0FFF707FFA642DDD1BDE8F88308FAA5
:1002D00001F101430CF80E10D7F80013494501F164
:1002E000040036BFC7F80003C7F8FC310A60E8E72E
:1002F000F004002000293FD02DE9F0471F4E0D46A5
:10030000A0F1040906F540780024032759F8043FBA
:100310001A0718D1D6F8F421934214D39A1A4FEA47
:10032000921E120902F003014800D6F8F8118B4220
:1003300009D2D6F8E8A11AF80EC04CFA00F303F07F
:100340000303012B06D00134FFF7C4FEA542DDD123
:10035000BDE8F08707FA00F141EA0C010AF80E1037
:10036000D6F80013414501F1040036BFC6F800037A
:10037000C6F8FC310A60E6E7704700BFF0040020D1
:100380002DE9F04F564ED6F8EC01D6F8FC3183B08B
:10039000800006F50075374643B30024C6F80053C5
:1003A000C6F8FC4118B945E0013484421AD2A208CB
:1003B000D6F8E81104F003038A5C5B0042FA03F309
:1003C00003F00303032BEFD1D7F800331A1DC7F84E
:1003D00000231C60FFF77EFED7F8EC01013480009B
:1003E0008442E4D3D6F8FC31002BD6D110B39C461E
:1003F000DFF8EC801D464FF0030A06E0032B62D0C5
:10040000012B22D00135854214D2AF08D6F8E8215D
:1004100005F00304D15D640041FA04F303F0030323
:10042000022B02EB070EE9D1BCF1000F3FD10135E1
:100430008542EAD3B6F804330022013BA6F8043320
:10044000C6F8102303B0BDE8F08F4FEAD50BD8F8FB
:10045000F02112F80BC005F007094CFA09F0C307A8
:100460005A4424D52901D8F8F4014358084493B1DB
:100470006A460E210AF090FD009A3AB10BF04EFC4C
:100480009DE803000BF030FC0BF05EFCD6F8F02189
:1004900012F80BC05A44012303FA09F32CEA030CA7
:1004A00082F800C0D6F8E831D95D03EB070E0AFAEE
:1004B00004F421EA04018EF80010D6F8EC014FF0A4
:1004C000010C80009EE7022303FA04F421EA0401F0
:1004D000D155D8F8EC014FF0000C984092E700BFDE
:1004E000F00400203D4BD3F8F411D3F8F8212DE9A6
:1004F000F047D3F8EC61D3F8E871521A0023026098
:100500001D46B60043608360C3600361436183613D
:100510009C469E461C461A4699461946984617F828
:1005200009904B0049FA03F303F00303012B30D089
:1005300027D3022B02D10135456001340132B2428A
:100540000ED04FEA920902F0030117F809304FEA82
:10055000410A43FA0AF313F0030301D0012BDED161
:10056000012C1AD0022C2BD081698C4288BF846167
:10057000B2421BD0012B27D04FEA920902F00301AF
:10058000CDE70CF1010CC0F808C00EF1010E0024FB
:10059000D4E7013545601C46D0E7016901310161AE
:1005A00081698C4288BF8461B242E3D1C6450ED9CD
:1005B000B242C0F80CE00AD0F0464FF0000EDBE784
:1005C000416901314161CFE7F045F6D2F0E72D01F5
:1005D0004FEA0C1345608360BDE8F087F00400200B
:1005E0000F302DE9F84F070900F0C680644EB6F8C9
:1005F0000433002B40F0C080B6F80633002B0D46C4
:100600000CBF4FF001094FF0000949D1DFF87081AC
:100610000024D6F81023D6F8EC01824238D2D8F85C
:10062000E8E10EEB02011AE00134BC4241D213F0C2
:100630000C0F1ED10134BC4280F0958013F0300FB6
:100640001CD10134BC4280F0918013F0C00F1AD14C
:100650000134BC4280F08D800132824218D211F800
:10066000013B13F0030FDFD013F00C0F4FF0000429
:10067000E0D013F0300F4FF00004E2D013F0C00FC1
:100680004FF00004E4D0013282424FF00004E6D380
:10069000B9F1000F70D127F0CDF94FF00109B8E79B
:1006A000D6F80823D6F80C339A42AFD327F0C2F914
:1006B000ACE79300012CA3EB040003F1010C00F163
:1006C000010804BF4FEA9C02C6F810234FEA9802C3
:1006D00008F003011EF802404FEA4109012101FA26
:1006E00009F10230214383420EF8021028BF4FF077
:1006F000020E0FD38408D6F8E82100F0030112F8A7
:10070000049049000EFA01F1013041EA09018342E7
:100710001155EFD2D6F8F4A1D6F80833DFF860907F
:100720004FEA0814C8EB0C020AEB040B1F44120139
:1007300058460021C6F808731DF057FA85B100230A
:10074000D9F8F0014AF804304FEAD8010122435C9D
:1007500008F0070802FA08F848EA030800F80180E0
:100760005846BDE8F88F9200531CA3E79200931CF3
:10077000A0E79200D31C9DE70020BDE8F88F00BFE2
:10078000F0040020F0B41C4EB6F804338BBB80B3E9
:10079000D6F8F431D6F8F051C01AC10904096A5CE0
:1007A00004F007070123BB4022EA03036B54D6F889
:1007B0001033D6F8E8518009984238BFC6F81003C4
:1007C000A00804F00303295C03275B0007FA03F386
:1007D00021EA03032B540134D6F8E851A00804F0B1
:1007E0000303295C5A0041FA02F202F00302022AD2
:1007F000EBD0F0BC704700BFF0040020034610F0BF
:100800000F002AD1164AD2F8F4118B4215D310B436
:10081000D2F8F841A3420ED25B1AD2F8E8419A0905
:100820001909A25C01F003035B0042FA03F303F031
:100830000303012B02D05DF8044B704701300B1805
:100840009A0803F00303A25C5B0042FA03F303F08F
:100850000303022BF2D00001EDE70020704700BF38
:10086000F00400202DE9F84F8E46002800F0128198
:100870008D4C002959D0B4F80463002E40F08980D3
:10088000D4F8F411D4F8EC31C1EB00094FEA191592
:10089000691C4FEA830C0EF10F078C454FEA1717BE
:1008A00040F2FE80D4F8E8A14FF001084FEA910B26
:1008B00001F003031AF80BB05B004BFA03F303F0EB
:1008C0000303022B00F087802BB9013606EB0803E7
:1008D0009F4200F28280B8457BD000F2838046447C
:1008E000B7428246704657D808EB05023D44AA42FB
:1008F00038BF4FF0020E0DD29008D4F8E86102F034
:100900000303315C5B000EFA03F301320B43AA428E
:100910003354F1D1C8EB070212010AEB0810002191
:100920001DF063F95046BDE8F88FB4F8043383BB7B
:10093000D4F8F411D4F8F061401AC1090509725CC9
:1009400005F007070123BB4022EA03037354D4F8E0
:100950001033D4F8E8618009984238BFC4F8100316
:10096000A80805F00303315C03275B0007FA03F3D3
:1009700021EA030333540135D4F8E861A80805F0EF
:100980000303315C5A0041FA02F202F00302022A28
:10099000EBD00020BDE8F88F4FEAD919D4F8F03138
:1009A000414E13F8091005F0070541FA05F505F069
:1009B0000101002AEDD0FFF713FE05460028E8D01C
:1009C0004FEA081251461DF0D0F8B6F804334BB385
:1009D0002846BDE8F88F08F1010801318C457FF405
:1009E00065AF78E705EB070EA84472464FF0030C9D
:1009F0009608D4F8E8712C4DB95D02F003035B0052
:100A00000CFA03F3013221EA03034245BB55EFD14F
:100A1000D5F810334FEA9E079F42DAD2C5F810731B
:100A2000BDE8F88FD6F8F401D6F8F0E1C0EB0A0083
:100A3000C10907091EF8013007F0070C012202FA6C
:100A40000CF223EA02030EF80130D6F810338009C5
:100A5000984238BFC6F81003D4F8E861B80807F028
:100A60000303315C4FF0030E5B000EFA03F321EA3F
:100A7000030333540137D4F8E861B80807F00303DF
:100A8000315C5A0041FA02F202F00302022AEBD072
:100A900028469EE701467046BDE8F84FFFF7A0BD27
:100AA0004FF0010817E700BFF004002010B58AB02E
:100AB00003A80B4CFFF716FD0599049B039A0091C0
:100AC00020460849E2F7C2FF06A80DC8099901901F
:100AD000009120460449E2F7B9FF0AB010BD00BFFB
:100AE0003C6D050850220508742205082DE9F041E7
:100AF000544F5549D7F8F4215448E2F7A7FFD7F8E7
:100B0000EC11890018BF00251FD181E005F0030614
:100B100076004FEA9508D7F8E8314A4A13F80830CA
:100B200043FA06F606F00306022E6FD0032E6BD0B2
:100B3000012E44D02E2246494448E2F787FFD7F8D9
:100B4000EC1101358900A94262D9A806DED18D4297
:100B50006CD2D7F8E8014FEA950805F0030610F8C3
:100B60000830760033419A0721D12C4604E0825C9C
:100B700042FA03F39B0708D1013404F003038C42CB
:100B80004FEA94024FEA4303F1D3621B7F2A0ED946
:100B9000920930492D48E2F759FFD7F8EC3124F09B
:100BA0003F05B5EB830F33D24FEA950800262A4A5A
:100BB0002A4926482B011A40E2F748FFABE7D2F852
:100BC000F411274A2B01CB58934229D0254A93424E
:100BD00028D0254A93422FD0244A93421ED0244A3B
:100BE00093421BD0234A93421ED0234A93421BD0E8
:100BF000224A934222D0224A934221D0214A934250
:100C000014BF68224D2296E76D2294E73D2292E7B9
:100C10001D490E48BDE8F041E2F7A0BB53228AE728
:100C2000542288E74C2286E7412284E705F0030638
:100C300076004FEA9508BAE744227CE746227AE735
:100C4000422278E7F0040020BC2205083C6D05082C
:100C500000230508DC220508F0FF0F00F822050834
:100C600084AE0508849B0508E08C0508A0AB050848
:100C70005CAB05084C8A0508108A050840960508F3
:100C8000FC970508EC9C0508D8220508054B5B6914
:100C90005A68824201D91B68FAE7801A043053F877
:100CA00020007047F0040020014441F205538842BF
:100CB00005D210F8012B03EB43135340F7E798B22A
:100CC000002808BF01207047034B044A5A610022E4
:100CD000C3F8D421704700BFF004002014F10508C8
:100CE0002DE9F84F82468946FFF7DEFF134B5C691A
:100CF000834604B3E66804F1100707EB86063D4619
:100D0000B54216D2A84658F8040B03889B450ED16D
:100D1000837899450BD14A46514603301CF087FF32
:100D200028B96368E81B03EBA000BDE8F88F4546CF
:100D3000E6E72468DDE72046BDE8F88FF0040020F0
:100D40002DE9F84F81460E46FFF7CAFF02460028FC
:100D50007CD1404CD4F8D401351DD0B1D4F8DC316D
:100D6000D4F8D8112B448B4213D92944FFF7AEF99C
:100D7000074648B90246D4F8DC11D4F8D401FFF78D
:100D8000A5F9C4F8D47104E0D4F8D8312B44C4F8E0
:100D9000D831D4F8D431C3B97F2D8CBF2F468027EA
:100DA0003846FFF778F9C4F8D40148B92846FFF768
:100DB00072F9284BC3F8D40108B928462FE02F4612
:100DC0000023C4F8D871C4F8DC31D4F8DCA1D4F81D
:100DD000D4B1DFF88080314655444846C4F8DC5130
:100DE000FFF762FF0BEB0A070BF80A003246000A16
:100DF000BE703E4478704946F81C00251CF0B5FED4
:100E0000F57063699868DB68834215D30230C000CF
:100E1000FFF741F9D8F8143018B9986840000AF083
:100E200063FD5968DA6803609B68C5600A445B002B
:100E300042608360C8F814006269D1684B1C0431B9
:100E4000D36042F821705268013A1A441046BDE856
:100E5000F88F00BFF004002010B504461CF0F9FE26
:100E600001462046BDE81040FFF76ABF08B5FFF70E
:100E70000DFF008808BD08B5FFF708FF807808BDA2
:100E800008B5FFF703FF033008BD08B5FFF7FEFE06
:100E900083780B60033008BD2DE9F8431D4600231D
:100EA00003600B6013602B60174BDFF860905C6988
:100EB0000746884616460CB34C451FD03B680133A5
:100EC0003B60D8F80020E3681344C8F80030E368BA
:100ED00004F1100202EB83018A4207D252F8043B6C
:100EE00098783368043303443360F5E72046FFF70E
:100EF00085FC2B68246818442860DCE72A6833687E
:100F000013442B60BDE8F883F004002014F10508B9
:100F1000F8B50C4B0C4F5C6994B1BC4210D0E3683F
:100F200004F1100505EB8306B54207D255F8042BF2
:100F3000064907480332E2F789FDF5E72468EBE745
:100F4000F8BD00BFF004002014F10508743805084E
:100F50003C6D050838B5446803682144994205464C
:100F600011D9037BDB0703D5002107480AF0B2FC47
:100F700001F1100424F00704083421468068FFF7CB
:100F80009AF82C60A86038BDAC8F050870B505468E
:100F90000E4611461446FFF7DDFF6B68A86822462F
:100FA000184431461CF009FE6B681C446C6070BD2F
:100FB00070B5466804468E42354628BF0D4601216D
:100FC000FFF7C8FFA368681C5919721B18441CF06E
:100FD000F4FD6368A06801336360284470BD38B5D0
:100FE00004460025002914BF0846012020606560E2
:100FF000FFF746F8237BA06065F30003237338BD39
:1010000038B505460C460131FFF7E9FF6C6038BD85
:1010100000234360037B016043F00103826003739C
:101020007047000038B514460546FFF7D8FF024B5D
:101030002560636038BD00BF8D0F0208037BDB07AE
:1010400010B5044602D48068FFF742F80023A3607D
:1010500010BD38B505461020FFF712F829460446A2
:10106000FFF7BDFF204638BD10B5044650B1037BE5
:10107000DB0702D48068FFF72BF82046BDE810405C
:10108000FFF726B810BD000038B5037BDB07044628
:101090000D4603D5002107480AF01CFC0168806852
:1010A0002944FFF708F82368A0601D442560184410
:1010B00038BD00BFAC8F050838B504460D46FFF7B4
:1010C00049FF6368A0681D446560184438BD90E816
:1010D0000C009A4210B5044602D10121FFF7D4FF5B
:1010E000A26863680021D154A06810BD10B50C46F9
:1010F0000121FFF7E1FF047010BD7F29F8B50D460F
:1011000004D80121FFF7D8FF0570F8BDB1F5006FD5
:101110004FEA911401F03F0609D20221FFF7CCFFFC
:1011200064F03F0466F07F0604704670F8BDB1F5C8
:10113000803F4FEA11370ED20321FFF7BDFF04F0C5
:101140003F0467F01F0764F07F0466F07F060770B6
:1011500044708670F8BD0421FFF7AEFFAD0C07F0B8
:101160003F0704F03F0465F00F0567F07F0764F068
:101170007F0466F07F06057047708470C670F8BD06
:1011800038B5054608460C461CF063FD214602466C
:101190002846BDE83840FFF7F9BE10B51446FFF702
:1011A00007FF047010BD10B51446FFF701FF04706F
:1011B00010BD43688B4234BF00235B1A4360704705
:1011C00038B5154642688A4204460B460ED9294472
:1011D0008A4201D8436038BD8068D21A521B01444C
:1011E00018441CF0EAFC6268521B626038BD037848
:1011F0001A0613D503F07F034022134203D023EADB
:1012000002035208F9E710F8012F02F0C00180290B
:1012100004D102F03F0242EA8313F4E71846704714
:10122000421C10460132037803F0C003802BF8D033
:1012300070470023814207D911F8012D02F0C00246
:10124000802A18BF0133F5E718467047014403466A
:10125000002099421A4608D9127802F0C002802A6A
:1012600003F1010318BF0130F3E770477F289DBFEA
:10127000024B185CC0F3400000207047716D0508F8
:101280007F289DBF024B185CC0F3C0000020704750
:10129000716D05087F289DBF024B185CC0F380006C
:1012A00000207047716D05087F289DBF024B185CB8
:1012B000C0F3801000207047716D05087F2809D8A1
:1012C000064B1B5C13F00C0F06D1A0F15F035842D4
:1012D000584170470020704701207047716D050824
:1012E0007F289DBF024B185CC0F3001000207047A0
:1012F000716D05087F289DBF024B185CC0F340103C
:1013000000207047716D050808B50246FFF7E8FF39
:1013100010B102F1200008BD104608BD08B5024614
:10132000FFF7E8FF10B1A2F1200008BD104608BD8C
:101330003038092884BF20F020000738704710B5E6
:1013400001440246E5240020914216D912F8013BDF
:1013500020B11B0615D50138C0B2F5E7BF2B09D95E
:10136000F72B0FD8DB0803F0060344FA03F303F06E
:101370000300E9E71B0605D4E6E7B0FA80F0400970
:1013800010BD002010BD023981420B4603D31A88DC
:101390000239002AF8D00233181A4010704770B58D
:1013A0001C09944214D2121B01EB4401154603F0B0
:1013B0000F030C6831F8026B012D08BF3446DC4086
:1013C000A4B2013D20F8024BF3D11CB9501E70BDF0
:1013D000002070BD104670BDF0B5059F0024D21BE3
:1013E0002546BC420AD031F814E033F81460764444
:1013F000354420F814502D0C0134F2E7640006192E
:10140000023C2144374614463CB131F8023F1D44AA
:1014100027F8025B013C2D0CF6E706EB42031DB1F9
:10142000012126F812100233181A4010F0BDF0B452
:10143000049F0024D21B2546BC420AD031F8146018
:10144000354433F81460AD1B20F814502D140134CA
:10145000F2E764000719023C0C44164639463EB1D7
:1014600034F8023F1D4421F8025B013E2D14F6E7DB
:1014700007EB4201F0BCFFF786BF2DE9F0439E4623
:1014800008AB93E84801079C571E02398446C2EB1B
:1014900004097C1C21D031F8024F04F57F4509EB8B
:1014A0000704A74205F1FF052E4423BFBEF80050F4
:1014B00005F57F44FF344FF6FF74444486EA040583
:1014C00013FA85F32CF8023B28BF0EF1020E4FEA07
:1014D0001448360C1B0C013FDBE700EB420113B153
:1014E00020F812300231BDE8F043FFF74CBF10B5D1
:1014F000044638B18068FEF7EBFD2046BDE8104099
:10150000FEF7E6BD10BD38B50446806801298CBFE2
:101510000D46022518B12368B5EB930F07D9690072
:10152000FEF7C9FD2368A06065F39F03236038BD03
:1015300038B505460C20FEF7A3FD2A78037862F340
:1015400000036FF341030370044628682368C0F367
:101550009D0060F39F0323606B686360AB680BB909
:10156000A3600AE04000FEF78BFDA0602A68A9682E
:10157000C2F39D0252001CF0F8FA204638BD10B5A7
:101580004B0018441A4449B130F8023D32F8024D7C
:101590001B1B002B04DB06D10139F4E7084610BD04
:1015A0004FF0FF3010BD012010BD38B505460C4688
:1015B0000221FFF7A8FF2B78002CB5BF43F00103F1
:1015C0006FF300032B702B704FF00003B4BF614228
:1015D00021466B6039B16B68AA68581C686022F8B4
:1015E0001310090CF6E738BD037803F0FE036FF320
:1015F0004103037003686FF39F030360002343609C
:101600008360704728B103789B0702D48068FEF797
:101610005FBD704738B505460C464968FFF773FF54
:1016200022782B78A86862F300032B7063686B60E4
:101630006268A1685200BDE838401CF096BA0346C3
:1016400009B959607047FFF7B0BF08B5FFF7CCFF85
:10165000BDE80840FFF7F3BF30B40578816005F0BE
:10166000FE0545F002050570056862F39F0500223E
:1016700005604260194630BCFFF7E1BFF8B504468B
:101680009DF8185004211F461646FFF73CFF2378AB
:1016900055B1002E77F1000206DA43F001037242E1
:1016A000237067EB470304E06FF3000323703246B7
:1016B0003B460021616052EA03010CD06168A068DA
:1016C0004D1C656020F81120110C41EA0341180CF3
:1016D0000A460346EFE7F8BD2DE9F04110EE106A27
:1016E0000378F20F62F300030370C6F30F4313F4A1
:1016F000FF43074603D100237B60BDE8F081B3F5CB
:10170000FF4FF8D0C6F3C753A3F17F05002DF2DBDE
:1017100004D10121BDE8F041FFF747BF162DC6F304
:101720001606D8BFC5F1170546F40006DCBFEE402B
:101730000025A3F16F084FF01004C8BF093598FBCE
:10174000F4F8D8BF2C464146C2BF963B05F00F05C2
:1017500093FBF4F4FFF7D7FEC7F8048024B16200CE
:101760000021B8681CF041FA45B1BB6806FA05F2E1
:10177000C5F1100523F81420EE40013464004FEA4F
:101780004808444504D0BB681E53360C0234F8E7C1
:10179000BDE8F0812DE9F8438F1804460D46C2F3E9
:1017A0005B0198460131089EFFF7ADFE2278B8F143
:1017B000000F02D042F0010201E068F300020023B2
:1017C000227063602846B1B2B84230D20278A2F1EA
:1017D0003003092B00F1010E0CD9A2F14103192BA2
:1017E00002D8A2F1370305E0A2F16103192B1ED83C
:1017F000A2F15703B3421AD2A068D4F804C09BB236
:101800006246804642B1B8F8009009FB013328F8DF
:10181000023B013A1B0CF5E700EB4C0213B120F838
:101820001C300232121A521062607046CCE7401B24
:10183000BDE8F883F8B5044615461E4621B1531E8F
:101840001E444FF0FF3700E00127E9000F3109097E
:101850002046FFF758FE237800216FF30003237022
:1018600061609DB100230F2908DC32788A40134360
:10187000013D9BB201F108013E44F4D16268501C65
:101880006060A068103920F81230EAE7A06861684B
:1018900000EB4101FFF777FD6060F8BD0A46416843
:1018A00038B509B95368C3B11378047803F001035C
:1018B00004F001055B1B10D15368994205D307D88A
:1018C00092688068FFF75BFE03E04FF0FF3000E0B6
:1018D0000120E30702D5404238BD184638BD884292
:1018E00010B5044601D0FFF795FE23786FF300038F
:1018F000237010BD884210B5044601D0FFF78AFE60
:101900002378C3F30002C2F1010262F300032370E3
:1019100010BD88421FB5044601D0FFF77BFE626808
:1019200042B901212046FFF7EEFDA2680123138092
:10193000636021E02378D9070ED56FF30003A16817
:1019400023700123ADF80E30009308460DF10E030D
:10195000FFF76DFD606013E0511C2046FFF7D3FDDB
:10196000A16862680123ADF80E30009308460DF1BE
:101970000E03FFF731FD6060237843F0010323700D
:1019800004B010BD2DE9F0470F46496806461446DD
:1019900001B12AB939463046BDE8F047FFF73ABEF3
:1019A00002F10F052D092944FFF7ADFD7968B368F1
:1019B000B86805EB010814F00F0208F1004404F1C7
:1019C000FF3401F1004E6FF0010C4FEA44040EF1B8
:1019D000FF3E0CFB01FC0CEB4E0E08BF1022234413
:1019E00070449A464FF0000EC2F1100259B130F81F
:1019F000119049EA0E0929FA02FE2AF802E9013992
:101A00004FEA094EF2E72EFA02FE03EB0C0923F827
:101A10000CE06B00C3F1020305F100429944013A66
:101A2000520048461CF0E1F802344C44B8F1000F73
:101A300005D034F8023D13B908F1FF38F6E7C6F8CF
:101A400004803A78337862F300033370BDE8F0879E
:101A5000F0B50E46496885B00546144601B122B975
:101A600031462846FFF7D6FD45E0FFF74CFD2346FB
:101A70007268B168A868FFF792FC686031782B78CB
:101A800061F300032B70DB07024634D5002377682F
:101A9000ADF80E302109BB4212D08B4210D0B06895
:101AA00030F8130050B10123B942ADF80E3009D31C
:101AB0000123A968C2B90B806B601CE00133EAE71F
:101AC000B94218D2B36804F00F0433F8111001239F
:101AD00003FA04F4013C214218BFADF80E30BDF802
:101AE0000E30002BE4D106E0009308460DF10E0302
:101AF000FFF772FC686005B0F0BD73B553680C4623
:101B0000496899420646154606D308D89268A068E7
:101B1000FFF735FD002802DA23462C461D462278C1
:101B20002B7861685340DB070CD430460131FFF756
:101B3000EAFC6B680093AB686268A168B068FFF765
:101B40004BFC0AE03046FFF7DEFC6B680093AB68A5
:101B50006268A168B068FFF76AFC70602278337829
:101B600062F30003337002B070BDF7B553680C46E2
:101B7000496899420646154606D30AD89268A06875
:101B8000FFF7FDFC002804DA234601272C461D46FA
:101B900000E0002722782B7861685340DB070CD5E2
:101BA00030460131FFF7AFFC6B680093AB686268A9
:101BB000A168B068FFF710FC0AE03046FFF7A3FC0D
:101BC0006B680093AB686268A168B068FFF72FFC90
:101BD0007060227833781FB1C2F30002C2F10102B3
:101BE00062F30003337003B0F0BD2DE9F04F1646E9
:101BF0004A6873689A420C463EBF34460B461E46FE
:101C000023780546D80785B022D4337813F001072E
:101C10001ED161682846FFF776FCA868A468D6F84C
:101C200008E071683B46994208D034F813603EF8EA
:101C30001320324020F813200133F4E700EB410178
:101C4000FFF7A1FB2B7868606FF300032B7068E04F
:101C5000616828460131FFF756FCAB680093327883
:101C60002378D4F804E0A1687068D6F80890DDF80D
:101C700000B083EA020707F0010787F001075FFA67
:101C800087F87F42BFB203F0010302F0010202971E
:101C90005F42BFB2C2F1000CA1F1020ACEEB00011B
:101CA00001971FFA8CFC0EF1FF370391791C20D0AD
:101CB0003AF8021F019841400B44039902983944B5
:101CC0008F422ABFB9F8001061468CEA01010A442C
:101CD00003EA020181EA000118FA81F128BF09F143
:101CE00002092BF8021B120C1B0C4FEA1148013F92
:101CF000DCE7009B03EB4E01B8F1000F04D0009A23
:101D0000012322F81E3002310098FFF73CFB686087
:101D100033782278C3F3000313402A7863F3000278
:101D20002A7005B0BDE8F08F2DE9F84F17464A68D4
:101D30007B689A420C463EBF3C460B461F462378C2
:101D4000DA07064633D43B7813F001052FD16168DA
:101D5000FFF7D9FB62687B68D6F808E0D4F808C0C2
:101D6000D7F80880D01A2A46934208D03CF812408F
:101D700038F8121021432EF812100132F4E75B00FC
:101D80000EEB0302023B63440146144629B133F8CB
:101D9000025F24F8025B0139F8E702EB4002CEEB68
:101DA000020233785210726061F3000349E0616807
:101DB00030460131FFF7A7FB7B682578D7F808800C
:101DC0003F786168B068A46805F0010507F0010775
:101DD000C5F1000CC7F1000E1FFA8CFC1FFA8EFE35
:101DE0004A1E023C82464FF00109C1EB030B531C13
:101DF0001FD034F8023F83EA0C031D440BEB0203AF
:101E00009A422ABFB8F8003073468EEA03031F4493
:101E100045EA07036FEA030319FA83F328BF08F1C1
:101E200002082AF8023B3F0C2D0C4FEA1349013AF5
:101E3000DDE700EB4101FFF7A6FA3378706043F06D
:101E400001033370BDE8F88FF0B516464A68736831
:101E50009A4238BF0B460C463CBF34461E46277894
:101E6000337861685F4017F0010785B0054639D1C6
:101E7000FFF749FB227812F0010223D173686168F1
:101E8000A868A768D6F808E0C91A934208D037F8BE
:101E900012603EF81240744020F812400132F4E71C
:101EA0005B00C418023B3B440A4626462AB133F87D
:101EB000027F26F8027B013AF8E704EB4101FFF7C5
:101EC00062FA0AE003970297019773680093B36878
:101ED0006268A168A868FFF7D0FA2B7868606FF392
:101EE00000031CE00131FFF70EFB3378A86803F014
:101EF000010383F001030393237803F0010383F0CC
:101F0000010302930123019373680093B36862682D
:101F1000A168FFF7B2FA2B78686043F001032B70D9
:101F200005B0F0BD2DE9F04F4B6885B004460E4674
:101F300015460BB1536823B90023636005B0BDE8B3
:101F4000F08F814206D1FFF7F3FAAE42074608D17F
:101F5000054606E0824206D1FFF7EAFA0546074643
:101F600002E03E4600E000276B6871682046194495
:101F7000FFF7C9FA2268A068C2F39D02520000214F
:101F80001BF033FEA3680193B368D6F804C0029334
:101F9000019BD5F808906A6803EB4C006FF00103D1
:101FA00003FB0CF303930023039900EB010822B316
:101FB000029BE646A3F1020A0021BEF1000F0ED0FB
:101FC000B9F800B03AF8023F0BFB0313B8F800B0C1
:101FD0005B4428F8023B190C0EF1FF3EEDE7034687
:101FE00000F1020E09B10180734601995B1A5B1082
:101FF000013A09F102097046D6E7636031782B781F
:102000004B4013F0010F237838460CBF62F30003F6
:1020100043F00103237005B0BDE8F04FFFF767BA46
:102020004B6870B50646144613B11378DA0702D52B
:102030000023736070BD636823B90121BDE870405F
:10204000FFF7B3BA0846FFF773FA05462046FFF7D5
:102050006FFA012104463046FFF7A7FA636883B19F
:10206000A3681B88DB0704D52A4631463046FFF7B4
