:020000040800F2
:10000000B00700209D010008E71F0008D31D00086D
:10001000E51F0008A90200080126000800000000F2
:10002000000000000000000000000000B7200008F1
:100030004D0400080000000029200008B920000835
:10004000B7010008B7010008B7010008B7010008B0
:10005000B7010008B7010008B7010008B7010008A0
:10006000B7010008B7010008B7010008B701000890
:10007000B7010008B7010008B7010008B701000880
:10008000B7010008B7010008B7010008B90200086D
:10009000AD020008B7010008B7010008B701000869
:1000A000B7010008B7010008B7010008B701000850
:1000B000B7010008B9210008B7010008B70100081E
:1000C000B7010008B7010008B7010008B701000830
:1000D000B7010008B7010008B7010008B701000820
:1000E000B7010008B7010008B7010008B701000810
:1000F000B7010008B7010008B7010008B701000800
:10010000B7010008B7010008B7010008B7010008EF
:10011000B7010008B7010008B7010008B7010008DF
:10012000B7010008B7010008B7010008B7010008CF
:10013000B7010008B7010008B7010008D1020008A4
:10014000C5020008B7010008B7010008B7010008A0
:10015000B7010008B7010008B7010008B70100089F
:10016000B7010008B7010008B7010008B70100088F
:10017000B7010008B7010008B7010008000000003F
:10018000B7010008B7010008DFF80CD000F07AF8DA
:10019000004800471D290008B00700200648804796
:1001A00006480047FEE7FEE7FEE7FEE7FEE7FEE75C
:1001B000FEE7FEE7FEE7FEE765210008890100088B
:1001C0002DE9F05F0546002092469B46884606468C
:1001D000814640241BE0284641464746224600F01F
:1001E00041F853465A46C01A914110D31146184659
:1001F000224600F028F82D1A67EB01084F462246E8
:100200000120002100F01FF817EB00094E41201ECD
:10021000A4F10104DFDC484631462A464346BDE8E6
:10022000F09FD2B201E000F8012B491EFBD27047CB
:100230000022F6E710B513460A4604461946FFF7B2
:10024000F0FF204610BD202A04DB203A00FA02F11C
:10025000002070479140C2F1200320FA03F31943B4
:1002600090407047202A04DB203A21FA02F0002156
:10027000704721FA02F3D040C2F1200291400843B6
:1002800019467047064C074D06E0E06840F0010350
:1002900094E8070098471034AC42F6D3FFF778FF94
:1002A0001C2B00083C2B0008FEE70000014800F072
:1002B00031BB00007C000020014800F02BBB000097
:1002C0007C000020014800F025BB0000C000002099
:1002D000014800F01FBB0000C000002010B500293D
:1002E00058D0826B4FF4D873046803EB0113E458C1
:1002F00014F0040494600468E4584DD0E408546099
:100300000468E35803F00203D3604FF4DA7304681F
:1003100003EB0113E45804F00F0414611162046844
:10032000E358C3F30723D3614FF4DC73046803EB92
:100330000113E45814750468E458240A54750468D9
:10034000E458240C94750468E3581B0ED3754FF4DD
:10035000DE73046803EB0113E45814760468E45870
:10036000240A54760468E458240C94760468E3580C
:100370001B0ED3760368202289B11A610268536983
:1003800023F05003536190F83C20222A0DD0322AEA
:100390000BD00FE0426BA5E7640D1460B0E7DA60A4
:1003A0000268536923F00A03ECE70268536923F4F7
:1003B0000F43536112220123002990F83C1006D00C
:1003C000522915D0622916D0722906D115E042298A
:1003D0000ED0622908D0722908D080F83C3000BFC6
:1003E00000F022FD002010BD322107E0522105E07F
:1003F00080F83C20F4E7222100E0422180F83C1004
:10040000EEE7000070B5104A0168136B1960136BBA
:1004100000219960136BD960136B41681961002149
:1004200006E04418257A01F11404491C1D5589B2CF
:10043000136B1C698C42F4D83221034800F040FD54
:10044000002800D0012070BDC000002070470000CF
:10045000044806220346417B5B7E8B4200D04270FB
:10046000704700000401002010B5002100F0D2F810
:10047000002010BDF8B500245D48264625460460DE
:1004800024215C48FFF7D4FE5A4800231A464562EF
:100490008562C56246F24001184601F0EAFD0A2075
:1004A00000F0F5FD322000F0F2FD8221002001F085
:1004B0009BFD322000F0EBFD0022642341F2170186
:1004C000104601F0D6FD0A2000F0E1FD00220323D2
:1004D00046F20701104601F0CCFD0A2000F0D7FDDE
:1004E0000022052346F25A01104601F0C2FD0A20FF
:1004F00000F0CDFD0223012241F22901002001F08C
:10050000B8FD0A2000F0C3FD3B4B012241F2160169
:10051000002001F0AEFD642000F0B9FD00231A4672
:100520004FF4D051184601F0A4FD0A2000F0AFFDB1
:1005300000231A4641F60121184601F09AFD0A20CF
:1005400000F0A5FD052000F0A2FD0121002001F032
:100550004BFD052000F09BFD00231A4627A11846FD
:10056000009501F062FD022000F091FD00230125BD
:100570001A4623A11846009501F057FD012000F00E
:1005800086FD00231F4F1A461FA11846009701F051
:100590004CFD012000F07BFD00231A461BA11846EC
:1005A000009701F042FD012000F071FD00230227B9
:1005B0001A4617A11846009701F037FD012000F0F8
:1005C00066FD00231A460DA11846009501F02DFD89
:1005D000084800BF04EB440100EB8101641CE4B255
:1005E0004F70022CF6D9022000F051FD3046F8BDC4
:1005F0001800002004010020960015004D4F000057
:10060000504D000000E1F505414300004443000067
:10061000554D00002DE9F04389460446304900EB72
:10062000440001EB80070026787889B0022825D0A5
:10063000884648B100231A462AA12046009601F0B8
:10064000F4FC022000F023FD022500231A4626A117
:100650002046009501F0E9FC012000F018FD012082
:10066000002300901A461FA1204601F0DEFC022064
:1006700000F00DFD44B37D70FFF7EAFE00231A463B
:100680001AA12046CDF8009001F0CFFC012000F027
:10069000FEFC04F5407200920422019214A0422252
:1006A0008DF8082040788DF809008DF80A60214601
:1006B0008DF80B606846FFF7A5FE012000F0E7FC0F
:1006C00009B00020BDE8F0830020414600EB400265
:1006D00001EB8202401C55700228F7D9CEE70000DA
:1006E000040100204D4F0000554D00004A56000007
:1006F0004247000038B500240546234622460EA195
:10070000009401F092FC022000F0C1FC0B4945B1BD
:1007100005EB450001EB80004470FFF799FE0020D7
:1007200038BD002000EB400201EB8202401C5470F7
:100730000228F7D9F3E700004D4F00000401002024
:10074000F8B5064600200D4603460246009014A167
:10075000304601F06AFC022000F099FC01240023DD
:100760001A4610A13046009401F05FFC012000F011
:100770008EFC00231A460CA13046009501F055FC72
:10078000012000F084FC00231A4605A130460094A5
:1007900001F04BFC022000F07AFC0020F8BD0000C4
:1007A0004D4F0000504D000041430000F8B5064693
:1007B00000200D4603460246009014A1304601F089
:1007C00034FC022000F063FC012400231A4610A12F
:1007D0003046009401F029FC012000F058FC002371
:1007E0001A460CA13046009501F01FFC012000F0D4
:1007F0004EFC00231A4605A13046009401F015FC7A
:10080000022000F044FC0020F8BD00004D4F000025
:10081000504D00004443000010B5087D0122824085
:100820003A48D0F8003243F00103C0F80032D0F863
:10083000003223F47C53C0F80032D0F800324C6A06
:1008400043EA0423C0F80032D0F81C329343C0F8C6
:100850001C32CB69B3B9D0F80C329343C0F80C32D8
:100860008C894B6864F31F434C6900EBC404C4F8E3
:1008700040320C890B6864F31F434C6900EBC404DD
:10088000C4F84432CB69012B16D1D0F80C32134393
:10089000C0F80C320C884B6864F31F434C6900EBC2
:1008A000C404C4F840320C89CB6864F31F434C691C
:1008B00000EBC404C4F844328B69002BD0F8043236
:1008C00005D01343C0F804320B6913B106E093431B
:1008D000F8E7D0F814329343C0F814320B69012BB7
:1008E00004D1D0F814321343C0F81432096A012934
:1008F00004D1D0F81C121143C0F81C12D0F8001219
:1009000021F00101C0F80012002010BD0064004079
:10091000704700002DE9F041044600680026C168D8
:10092000C1F300134169C1F3C002102113B10AB130
:100930004E01C160206802694369C2F30012C3F32B
:1009400080131AB113B146F48066016121684869C9
:100950004FF00105C043C0074ED18A6876489043E6
:1009600023D000208B68754A9A4320D000228F68DC
:10097000734BBB431DD00023104318433CD0886801
:100980008A68C0F340008B68C2F34022C3F340433F
:100990001043184329D04A69204622F001024A61D7
:1009A00094F83C10122906D00AE00120DAE701226F
:1009B000DDE70123E0E701684A6922F40F424A615A
:1009C00090F83C10422908D0522908D0722908D04A
:1009D00080F83C5000F05AFB09E0222102E032216D
:1009E00000E0622180F83C10F4E746F400662068DD
:1009F0008168544A114381602168C868496910F0D0
:100A0000030FC1F3400104D019B100212046FFF7C4
:100A100065FC21680869496910F0030FC1F30011F2
:100A200004D019B101212046FFF758FC206C304357
:100A3000206420688169426911F0010F4369C2F3A3
:100A40000022C3F3C03305D022B11BB1216C41F0A9
:100A5000010121648169C1F340034169C1F340226E
:100A60004169C1F3C0312BB122B119B1216C41F000
:100A7000020121648169C1F3800341694269C1F3C4
:100A80008021C2F3C0322BB121B11AB1216C41F0E7
:100A900004012164816911F0700F08D000224169BE
:100AA000C1F3C0234169C1F3C03112B121E0012279
:100AB000F5E7F3B1E9B1816901F0700140292FD068
:100AC00006DC102909D020290BD030290DD123E0D4
:100AD000502929D0602908D12AE0216C41F0080171
:100AE00002E0216C41F010012164816921F0700164
:100AF0008161206C00280DD021680420486084F8B2
:100B00003C502068416948F65B7291434161204640
:100B1000FFF7FEFEBDE8F081216C41F02001E3E724
:100B2000216C41F04001DFE7216C41F08001DBE7FF
:100B3000216C41F48071D7E7030000040003000832
:100B400000000310190501002DE9F041040004D054
:100B500094F83C00002518B107E00120BDE8F081C1
:100B600084F83D50204600F093F8022084F83C00C1
:100B70002068016821F0020101602068016841F0ED
:100B80000101016000F074FB0746032605E000BF89
:100B900000F06EFBC01B0A2863D820684068C007BD
:100BA000F6D020684168C90768D0A16901290168A9
:100BB0003FD021F080010160E069012820680168D0
:100BC0003AD021F040010160206A012820680168C4
:100BD00035D021F020010160606A01282068016899
:100BE00030D021F010010160A06A0128206801685E
:100BF0002BD021F008010160E06A0128206801681B
:100C000026D021F004010160D4E902010843D4E9AF
:100C10000412114308436168491E08432168C861F2
:100C20002068016821F00101016000F021FB074606
:100C30001CE041F08001BEE741F04001C3E741F014
:100C40002001C8E741F01001CDE741F00801D2E7EB
:100C500041F00401D7E700BF00F00AFBC01B0A28DF
:100C600004D904F83C6F0320657077E7206840687A
:100C7000C007F1D120684068C00703D0042084F881
:100C80003C006AE72564012084F83C00002065E709
:100C9000F0B5334ADFF8C4C00768116802230324A3
:100CA000092530480026491C87B0674523D11160CB
:100CB000012907D1016841F000710160006800F06E
:100CC000007005904FF4C0508DE8490069462648F1
:100CD000CDE9034500F0EAF900221146132000F0A7
:100CE0003BFB132000F02CFB00221146142000F0E7
:100CF00033FB14202EE0DFF874C067452CD1076861
:100D000047F0806707600768012907F0806705974B
:100D1000116007D1016841F000710160006800F0C6
:100D2000007005904FF440508DE849006946104826
:100D3000CDE9034500F0BAF9002211463F2000F04A
:100D40000BFB3F2000F0FCFA00221146402000F08F
:100D500003FB402000F0F4FA07B0F0BD006400404F
:100D600014000020403802400000024000680040AB
:100D70000004024030B511B1012925D010E090F8EF
:100D80003C20222A28D090F83C20422A24D000BFC0
:100D900090F83C20622A1FD090F83C20722A1BD089
:100DA00090F83D20012A17D0012280F83D206222D0
:100DB00090F83C40722389B1122C19D0222C18D003
:100DC000422C19D0322214E090F83C20322A03D071
:100DD00090F83C20522ADBD1022030BD122C05D0E5
:100DE000322C06D0522C07D0222202E0422200E010
:100DF000522280F83C2001E080F83C30002202645E
:100E000003685C6948F601752C435C6180F83D20FD
:100E100000680029416904D041F05001416100207F
:100E200030BD41F00A01F9E738B51749884225D1AC
:100E3000486B02680A2A21D2016908291ED1134988
:100E40004A60027DC37D447D02EB0362837D1B0407
:100E500003EB042313448B60027EC47E457E02EBC9
:100E60000462847E240404EB05242244CA600092B8
:100E700000F11402016806A001F0C4FBBDE838408F
:100E800000210148FFF776BF7C000020040000200D
:100E90005374644964203A2025780D0A52784D73C2
:100EA00067203A2025730D0A466C6167203A202599
:100EB000690D0A56616C7565203A2025690D0A0096
:100EC0002DE9F05F0E46016804468868400105D4AC
:100ED0008868000102D48868C0006FD594F83D008E
:100EE00001280CD0012784F83D7094F83C0022289A
:100EF00008D0322808D062280ED0122005E0022047
:100F0000BDE8F09F422000E0522084F83C00886851
:100F1000400103D5002507E07220F6E7886800014C
:100F200001D5012500E002254FF4C07000EB05104B
:100F30000A5802F001020A50216B8A68EAB3D4F819
:100F400000C05CF800301343CA68496842EAC10136
:100F50000B434CF80030216B0A7C02F00F020A614F
:100F60004FF4C271226801EB0511535823F00F03AF
:100F7000535022685358D4F830C0DCF810C043EA0C
:100F80000C035350216B4FF4C47303EB05130A7D1C
:100F9000D1F8151042EA01222168CA50216B4FF4A2
:100FA000C67303EB05130A7ED1F8191042EA012239
:100FB0002168CA5021680A5801E00DE05AE042F069
:100FC00001020A5000F054F981464FF00008DFF8A2
:100FD000B0A0DFF8B0B026E022681358D1F80CC0FA
:100FE000098843EA0C0343EA41511150B3E7701CEE
:100FF00019D02EB100F03CF9A0EB0900B04212D993
:10100000032084F83C004DB1012D09D04FF40000BD
:101010002168886084F83D80032071E78020F7E72D
:101020004FF40040F4E7ADB12068012D816816D07F
:10103000154888430028DAD194F83C00422811D0A2
:10104000522811D0722813D084F83C7084F83D8067
:10105000002055E7206881682AEA0100EAE72BEAC8
:101060000100E7E7222000E0322084F83C00EDE7B1
:101070006220FAE7042084F83C00012040E70000E9
:10108000030000040003000800000310704731B59E
:1010900000F0EEF8009C0546601C00D0641C00F0D7
:1010A000E7F8401BA042FAD338BD00002DE9F84F05
:1010B000DFF87CB100224FF001084FF0030A4FF037
:1010C0000F090BF1040E00BF0B6808FA02F423406D
:1010D000A3426ED14D68022D01D0122D0ED1D5083C
:1010E00000EB850CDCF820505607F70E09FA07F6DE
:1010F000B5430E69BE402E43CCF82060066855000B
:101100000F790AFA05FC07F0030726EA0C06AF4040
:10111000374307604E68012E05D0022E03D0112EF2
:1011200001D0122E0ED18668CF6826EA0C06AF4099
:10113000374387604668A6430C79C4F30014944093
:1011400034434460C6688C6826EA0C06AC403443DD
:10115000C4604C68E40065D5364C256845F480458C
:101160002560246822F0030504F480440094324C86
:101170002E19D6F8084895072F0F09FA07F5AC4342
:101180002E4DA84201D1002524E02D4DA84201D1C9
:1011900001251FE02B4DA84201D102251AE02A4D5E
:1011A000A84201D1032515E0284DA84202D104250B
:1011B00010E037E0264DA84201D105250AE0254D73
:1011C000A84201D1062505E0234DA84201D10725FB
:1011D00000E00825BD402543C6F80858DBF800406C
:1011E0005D464E689C43F60300D51C432C60DEF838
:1011F000004075464E689C43B60300D51C432C60E6
:101200000B4D08352C684E689C43F60200D51C43F4
:101210002C60074D0C352C684E689C43B60200D5F7
:101220001C432C60521C102AFFF44EAFBDE8F88F0F
:10123000003C0140443802400030014000000240C0
:101240000004024000080240000C0240001002406E
:101250000014024000180240001C024042694A404B
:10126000426170470AB1816170470904FBE70000E1
:101270000148006870470000000000200248016833
:10128000491C016070470000000000200B4810B5A9
:10129000016841F400710160016841F480610160FE
:1012A000016841F480710160032000F075F80020AE
:1012B00000F006F800F018F8002010BD003C0240D5
:1012C00010B5044607484FF47A710068B0FBF1F09E
:1012D00000F0E7FA00222146501E00F03DF8002001
:1012E00010BD00001C00002010B5032000F054F8D1
:1012F000002211466FF00B0000F02EF8002211467C
:101300006FF00A0000F028F8002211466FF0090083
:1013100000F022F800221146501F00F01DF80022B4
:101320001146101F00F018F800221146901E00F020
:1013300013F80022BDE810401146501E00F00CB812
:1013400000F01F02012191404009800000F1E020DF
:10135000C0F8001170470000F0B40E4B1B680C463B
:10136000C3F30223C3F10705042D00D90425191D79
:10137000072901D2002300E0DB1E012606FA05F151
:10138000491E214099409E40761E16403143F0BCD4
:1013900000F03ABE0CED00E0064900F007020868D4
:1013A0004FF6FF03184040EA0220034A104308604A
:1013B000704700000CED00E00000FA052DE9F04751
:1013C0000E46050065D0DFF81481D8F80000F7B2AA
:1013D00000F00F00B04207D288F80070D8F8000083
:1013E00000F00F00B04254D128683D4C810712D55F
:1013F000400703D5206840F4E050206028780007BB
:1014000003D5206840F4604020602068A96820F07F
:10141000F000084320602878C0072DD03049686864
:101420000839012812D0022813D0032811D00968E6
:10143000890700292DDA216821F003010143216089
:10144000FFF716FF814641F2883A0EE009688903EA
:10145000EFE709688901ECE7FFF70AFFA0EB090154
:10146000514502D90320BDE8F0872068696800F083
:101470000C00B0EB810FEFD1D8F80010404601F01E
:101480000F01B14207D90770006800F00F00B042A9
:1014900001D00120E7E72878400705D52068E968F2
:1014A00020F4E050084320602878000706D5206823
:1014B000296920F4604040EAC100206000F03CF857
:1014C0002168084AC1F30311515CC840064908600D
:1014D0000020FFF7F5FE0020C5E70000003C0240B9
:1014E00008380240042B00081C0000200148006856
:1014F000704700001C000020044805490068096886
:10150000044AC1F38221515CC84070471C0000208E
:1015100008380240142B000804480549006809688F
:10152000044AC1F34231515CC84070471C0000209E
:1015300008380240142B0008154810B5006810F058
:101540000C02144813D04110042A0FD0082A0ED1DF
:101550000F4C241F2268236802F03F025B0207D56C
:101560002068C0F38810A0FB010106E0084610BD0A
:101570002168C1F38811A1FB00010023FEF720FEC2
:101580002168C1F30141491C4900B0FBF1F010BDD5
:10159000083802400024F4002DE9F84F050071D00E
:1015A000DFF8D0922878A9F1040BC007ABF104044E
:1015B0004AD0D9F800104846C1F38101012908D06A
:1015C0000068C0F3810002280AD1DBF80000400265
:1015D00006D52068800337D568680028DFD033E05F
:1015E0006868B0F5803F10D0B0F5A02F206810D00B
:1015F00020F480302060206820F48020206068681B
:10160000A8B1FFF735FE06460DE0206840F48030B3
:10161000F4E740F480202060F7E700BFFFF728FEE2
:10162000801B642873D820688003F7D50CE0FFF78F
:101630001FFE064605E000BFFFF71AFE801B642868
:10164000F0D820688003F7D428788B4F80074FF0BC
:10165000010A4FF000083DD5D9F80010484611F0B6
:101660000C0F08D00068C0F3810002280BD1DBF812
:101670000000400207D42068800715D5E8680128DB
:1016800000D111E0F3E0E868B0B1C7F800A0FFF7BF
:10169000EFFD064605E000BFFFF7EAFD801B0228CC
:1016A00035D820688007F7D52068296920F0F80030
:1016B00040EAC10020600DE0C7F80080FFF7D8FDC8
:1016C000064604E0FFF7D4FD801B02281FD82068DF
:1016D0008007F7D42878000724D56848696981B164
:1016E000C0F800A0FFF7C4FD064604E0FFF7C0FD08
:1016F000801B02280BD85F486C3000688007F5D546
:1017000010E0C0F80080FFF7B3FD064605E074E086
:10171000FFF7AEFD801B02286FD856486C3000687A
:101720008007F5D42878400753D5524838300168EF
:1017300041F080510160006800F0805000905048F6
:10174000016841F480710160FFF792FD064604E0F4
:10175000FFF78EFD801B02284FD849480068C0055E
:10176000F6D5444EA868683601280FD005283068A1
:1017700010D020F001003060306820F004003060AC
:10178000A868B8B1FFF774FD00900FE0306840F032
:101790000100F4E740F004003060F7E7FFF768FD70
:1017A0000099411A41F28830814258D83068800748
:1017B000F4D50EE0FFF75CFD009007E0FFF758FD61
:1017C0000099411A41F28830814248D83068800738
:1017D000F4D4A86990B3D9F80010C1F381010229AB
:1017E00045D00228C7F8608003D0FFF741FD0546C9
:1017F00038E0FFF73DFD064605E030E0FFF738FD35
:10180000801B02282BD820688001F7D4D5E9070176
:101810000843A96A1B4A490802EB01416A6A41EA86
:101820008211084395F82C1040EA0161CBF80010B2
:10183000C7F860A0FFF71CFD054606E015E000BFF5
:10184000FFF716FD401B022809D820688001F7D554
:101850000BE000BFFFF70CFD401B022802D903205C
:10186000BDE8F88F20688001F4D40020F8E701205B
:10187000F6E700000838024000004742800E474269
:10188000007000400000FFFF4FF0E02104280869CD
:1018900003D020F004000861704740F00400FAE72C
:1018A000704710B5401EB0F1807F01D3012010BDFC
:1018B0004FF0E02460610F21601700F0A5FB0020CD
:1018C000A06107202061002010BD10B5FFF7E8FFE0
:1018D00010BD7047704730B590F83820012A20D0ED
:1018E000012280F83820022380F8393003685C68D0
:1018F00024F070045C6003685C680D682C435C60D5
:1019000003689C6824F080049C6003689C684968B4
:101910000C439C6080F83920002180F8381008467C
:1019200030BD022030BD10B5040003D094F839005A
:1019300010B107E0012010BD002084F838002046D7
:1019400000F00CF8022084F83900211D206800F016
:1019500039FC012084F83900002010BD08B500686A
:101960000B49884212D10B48016841F00201016025
:101970000068002200F00200009011461D20FFF7D1
:10198000EBFCBDE808401D20FFF7DABC08BD0000F5
:1019900000040040403802400168CA6842F0010279
:1019A000CA600068016841F00101016000207047D1
:1019B0000168CA6822F00102CA600068016A41F247
:1019C0001112114207D1016A9210114203D101682C
:1019D00021F0010101600020704770B5044690F8C5
:1019E0003800012817D0012584F83850022084F8E7
:1019F00039002068826822F0770222F47F428260F8
:101A00000868502837D00DDC202859D005DC88B371
:101A1000102841D151E0022070BD302853D0402819
:101A20003AD13FE060282ED070280BD0B0F5805F0F
:101A300003D0B0F5005F2FD110E02068816821F05D
:101A4000070115E0CB68D1E90121206800F01AFCFC
:101A50002168886840F0770088601DE0CB68D1E994
:101A60000121206800F00EFC2068816841F480416B
:101A7000816011E01EE0CA684968206800F014FC2B
:101A80005021206806E0CA684968206800F01DFC03
:101A90006021206800F000FC84F83950002084F8B0
:101AA000380070BDCA684968206800F0FDFB40211D
:101AB0002068EFE700212068ECE710212068E9E7C3
:101AC00020212068E6E730212068E3E7704770B501
:101AD0000446006801694FF00005C943890715D421
:101AE000C168C943890711D4E91E0161012020762C
:101AF000206880698007204602D0FFF7E7FF04E0F6
:101B000000F098F8204600F096F8257620680169E4
:101B1000C943490717D4C168C943490713D46FF0B3
:101B200004010161022020762068806910F4407F62
:101B3000204602D0FFF7CAFF04E000F07BF8204601
:101B400000F079F8257620680169C943090716D4A1
:101B5000C168C943090712D46FF00801016104206C
:101B600020762068C0698007204602D0FFF7AEFFCC
:101B700004E000F05FF8204600F05DF8257620686C
:101B80000169C943C90617D4C168C943C90613D43A
:101B90006FF010010161082020762068C06910F400
:101BA000407F204602D0FFF791FF04E000F042F8AA
:101BB000204600F040F8257620680169C943C9072E
:101BC00008D1C168C943C90704D1891E01612046F3
:101BD00000F032F820680169C943090609D4C168D8
:101BE000C943090605D46FF0800101612046FFF763
:101BF00070FE20680169C943490609D4C168C94318
:101C0000490605D46FF040010161204600F02CF830
:101C100020680169C94389060BD4C168C943890694
:101C200007D46FF0200101612046BDE87040FFF746
:101C300051BE70BD7047704710B50749006809680C
:101C4000884208D101210548FFF708FBBDE8104094
:101C500003A000F0D7BC10BD3401002000080240F2
:101C60002D31730D0A000000704770B5040004D0D8
:101C700094F83900002510B106E0012070BD84F809
:101C80003850204600F022F8242084F839002068DB
:101C9000C16821F40051C160204600F029FB206892
:101CA000016921F4904101612068416921F02A0114
:101CB00041612068C16841F40051C160E5632020A2
:101CC00084F8390084F83A00002070BD00B500683F
:101CD0000E4987B0884217D10D48016841F01001C4
:101CE00001600068694600F0100005904FF4C06084
:101CF0000090022001900120029003200390072011
:101D000004900448FFF7D2F907B000BD001001406D
:101D100044380240000002402DE9F843044690F8A0
:101D200039001F4616460D46202850D1A5B19EB158
:101D300094F8380001284AD0012084F838004FF088
:101D40000008C4F83C80212084F83900FFF790FA9D
:101D5000A6848146E68426E00120BDE8F883E08C75
:101D6000401EE084A0684B46B0F5805F4FF0000253
:101D70004FF080012046009703D000F00FFCE8B937
:101D80000DE000F00BFCC8B928882168C0F30800FA
:101D90004860206908B16D1C05E0AD1C03E02168B6
:101DA00015F8010B4860E08C0028D8D14B46002282
:101DB00040212046009700F0F1FB08B10320CCE75A
:101DC000202084F8390084F838800020C5E70220FC
:101DD000C3E7FEE7104810B50E49016003214160DA
:101DE00000214FF400228160C0E903124FF4401239
:101DF000C0E90521C161016241628162C162FEF7F1
:101E0000A3FE002805D0BDE81040462103A000F045
:101E1000F8BB10BD006400407C0000202E2E2F5324
:101E200072632F63616E2E6300000000104810B5CE
:101E30000E4901600321416000214FF400228160BE
:101E4000C0E903124FF44012C0E90521C1610162EB
:101E500041628162C162FEF777FE002805D0BDE8CD
:101E600010405C2103A000F0CCBB10BD0068004016
:101E7000C00000202E2E2F5372632F63616E2E63DD
:101E8000000000002DE9F041224886B000240168DE
:101E900041F080010160016801F080010591016855
:101EA00041F004010160016801F00401059101683D
:101EB00041F002010160016801F002010591016831
:101EC00041F0010101600068134F00F0010005902E
:101ED00001220D213846FFF7C5F90122DFF83C80C9
:101EE000960231464046FFF7BDF90D2000900125CE
:101EF000CDE90154694638460394FFF7D7F80096B8
:101F0000CDE90154694640460394FFF7CFF806B087
:101F1000BDE8F08130380240000802400004024071
:101F200010B5184886B01649016042F2CF0100246E
:101F3000C0E9011442F20F71C0E90314FFF7F3FC8A
:101F400018B13E2110A000F05CFB4FF480500090CF
:101F500069460C48FFF741FD18B144210AA000F082
:101F600050FB049404A907480594FFF7B4FC00282B
:101F700003D04B2104A000F044FB06B010BD0000CC
:101F800000040040340100202E2E2F5372632F7462
:101F9000696D2E63000000000D4810B50B4901600B
:101FA0004FF4E1314160002181600C22C160C0E941
:101FB00004128161C161FFF758FE002805D0BDE819
:101FC0001040422103A000F01CBB10BD00100140D6
:101FD000700100202E2E2F5372632F75736172745F
:101FE0002E630000FEE7704700B589B000228DF82F
:101FF0000810009202228DF80900014601926846FD
:10200000FEF700FA09B000BD0907090E002806DA3C
:1020100000F00F0000F1E02080F8141D704700F17F
:10202000E02080F800147047704730B589B000F5A3
:1020300040750095082501950C9C0D788DF8085089
:1020400049788DF809108DF80A20D9018DF80B1008
:102050008DF80C40210A8DF80D10210C8DF80E1012
:10206000210E8DF80F1001466846FEF7CBF909B036
:1020700030BD10B588B000F5C06400940824019408
:1020800022248DF808408DF80910090A8DF80A10ED
:102090008DF80C30190A8DF80D10190C8DF80E10F2
:1020A000190E8DF80F1001468DF80B206846FEF7CB
:1020B000A9F908B010BD704710B5FFF7DFF8BDE80B
:1020C0001040FFF702BC000030B5244893B0002553
:1020D000016841F080510160006800F0805011906B
:1020E0001F48016841F4804101600068022400F447
:1020F0008040119001200090000401908001CDE902
:10210000064008AA0420A82182E813000B90684624
:10211000FFF742FA00B1FEE70CA90F2081E8310079
:102120004FF4A0500F904FF48050109005210CA850
:10213000FFF744F900B1FEE7FFF7D8F94FF47A71E1
:10214000B0FBF1F0FFF7ADFB0420FFF79DFB002291
:102150001146501EFFF700F913B030BD4038024061
:10216000007000401048016841F4700101600F48A0
:10217000016841F0010101600C4A00210832116040
:1021800002680B4B1A400260031D0A4A1A6002687B
:1021900022F48022026005480C3001600249580692
:1021A000803908607047000088ED00E00038024088
:1021B000FFFFF6FE103000240148FFF788BC000046
:1021C00034010020F0B50268234B244D244E254FE6
:1021D000254C4FF0804C984209D0604507D0A8426A
:1021E00005D0B04203D0B84201D0A04204D122F0C1
:1021F000700E4A6842EA0E0298421BD0604519D020
:10220000A84217D0B04215D0B84213D0A04211D086
:10221000164DA8420ED0164DA8420BD0154DA8421F
:1022200008D0154DA84205D0144DA84202D0144D37
:10223000A84203D122F44075CA682A4302608A6822
:10224000C2620A688262984201D0A04201D1096943
:10225000016301214161F0BD000001400004004024
:1022600000080040000C0040000401400040014014
:10227000004401400048014000180040001C00409C
:102280000020004010B5846842EA032224F47F4411
:102290000A432243826010BD826822F070020A4322
:1022A00042F007018160704710B5036A046A24F0A8
:1022B00001040462846924F0F00444EA021423F067
:1022C0000A020A438461026210BD10B5036A23F05A
:1022D000100303628369046A23F4704343EA023201
:1022E00024F0A00343EA01118261016210BD0000E5
:1022F0002DE9F04104460068016921F44052E1688B
:10230000114301612168C86849F20C629043236956
:10231000A268E5691A4363692B431A430243CA6002
:102320002168486920F44072A06910434861E1695E
:102330006425B1F5004F9748974A21684FF032085D
:102340003FD0914201D081427CD1FFF7E5F800EB0C
:10235000C00101EB001061688900B0FBF1F6FFF7E6
:10236000DBF800EBC00101EB001061688900B0FBF5
:10237000F1F0B0FBF5F06FF01801484306EB800177
:1023800008EB0110B0FBF5F000F0F006FFF7C4F821
:1023900000EBC00101EB001061688900B0FBF1F0B7
:1023A000B0FBF5F006EB0016FFF7B6F800EBC00146
:1023B00001EB001061688900B0FBF1F7FFF7ACF8A2
:1023C000D2E0914201D081423DD1FFF7A5F800EB68
:1023D000C00101EB001061684900B0FBF1F0B0FBF7
:1023E000F5F00601FFF798F800EBC00101EB0010D3
:1023F00061684900B0FBF1F7FFF78EF800EBC00110
:1024000001EB001061684900B0FBF1F0B0FBF5F0A2
:102410006FF01801484307EB800108EBC100B0FBE7
:10242000F5F000F0F80006EB4006FFF775F800EB5A
:10243000C00101EB001061684900B0FBF1F7FFF744
:102440006BF83CE055E0FFF757F800EBC00101EBFB
:10245000001061684900B0FBF1F0B0FBF5F0060137
:10246000FFF74AF800EBC00101EB0010616849007A
:10247000B0FBF1F7FFF740F800EBC00101EB0010F3
:1024800061684900B0FBF1F0B0FBF5F06FF01801A6
:10249000484307EB800108EBC100B0FBF5F000F00A
:1024A000F80006EB4006FFF727F800EBC00101EB50
:1024B000001061684900B0FBF1F7FFF71DF800EB71
:1024C000C00101EB001061684900B0FBF1F0B0FB06
:1024D000F5F06FF01801484307EB800108EBC100ED
:1024E000B0FBF5F000F00700216830448860BDE8DB
:1024F000F081FFF701F800EBC00101EB001061680B
:102500008900B0FBF1F6FEF7F7FF00EBC00101EB2D
:10251000001061688900B0FBF1F0B0FBF5F06FF0DE
:102520001801484306EB800108EB0110B0FBF5F001
:1025300000F0F006FEF7E0FF00EBC00101EB001039
:1025400061688900B0FBF1F0B0FBF5F006EB001616
:10255000FEF7D2FF00EBC00101EB001061688900BB
:10256000B0FBF1F7FEF7C8FF00EBC00101EB001074
:1025700061688900B0FBF1F0B0FBF5F06FF0180175
:10258000484307EB800108EB0110B0FBF5F000F0C9
:102590000F00A9E700140140001001402DE9F041AF
:1025A000984617460E460446069D1DE0681C1BD043
:1025B0002DB1FEF75DFEA0EB0800A84214D92068FB
:1025C000C16821F4D071C1602068416921F0010126
:1025D0004161202084F8390084F83A00002084F812
:1025E00038000320BDE8F0812068006836EA00006A
:1025F00004D00020B842D9D00020F3E70120F9E749
:10260000FEE7FEE70FB4054B10B503A9044A029894
:1026100000F018F810BC5DF814FB00000529000854
:102620002000002002E008C8121F08C1002AFAD1C9
:1026300070477047002001E001C1121F002AFBD142
:10264000704700002DE9FF4F8DB09B460F460446B2
:10265000002606E025280BD05A460F999047641CA7
:10266000761C20780028F5D111B03046BDE8F08FF7
:102670000025A8460122984900E0054314F8013FCF
:10268000203B02FA03F00842F7D120782E2817D118
:1026900014F8010F45F004052A280ED06FF02F0220
:1026A0002078A0F1300109290AD808EB880102EB53
:1026B000410100EB0108641CF2E757F8048B641C2D
:1026C00020786C280DD004DC4C2812D06A2811D157
:1026D00004E074280DD07A280CD10AE045F40015E6
:1026E00007E0617845F48015814202D1641C05F54C
:1026F0008015641C2278692A45D008DC002AB3D0F2
:10270000582A69D0632A10D0642A08D13BE0702A85
:1027100067D0732A13D0752A5CD0782A5CD0104613
:102720005A460F999047761CD3E017F8040B8DF8A2
:10273000000000208DF80100E946012003E057F871
:10274000049B4FF0FF3069074FF0000501D40AE009
:102750006D1C45450DDA8542FADB19F80510002994
:10276000F6D106E06D1C8542FCDB19F80510002946
:10277000F8D12E4404E019F8010B5A460F999047FE
:102780006D1EF8D2A5E00A200021CDE90801C5F3AD
:10279000025002280DD001CFC117031E71F10003B2
:1027A0000DDA4FF0000CD0EB0C006CEB01012D2387
:1027B00008E0FF1D27F00707F7E80201EDE72B050A
:1027C00004D52B238DF8283001233BE0EB0739D0CB
:1027D0002023F7E70A2000E010200021CDE90801BE
:1027E00007E01020002145F00405CDE908014FF075
:1027F0000808C5F3025002280FD001CF00214FF086
:10280000000A2B071FD5702A0DD0DDE908C38CF014
:10281000100C5CEA030C0CD015E0FF1D27F0070735
:10282000F7E80201EBE740228DF828204FF0010A7B
:102830000BE050EA010306D030238DF828308DF8E4
:10284000292002239A46582A04D024A20DF12009F7
:102850000B9209E026A2F9E7DDE90823FDF7B0FCB9
:102860000B9B9B5C09F8013D50EA0102F4D1ADEBF2
:10287000090020300890680701D44FF0010808993A
:10288000884502DDA8EB010000E00020804600251D
:1028900006E00AA85A46405D0F9990476D1C761CC9
:1028A0005545F6DB04E030205A460F999047761CD8
:1028B000B8F10001A8F10108F5DC05E019F8010BF9
:1028C0005A460F999047761C0899481E089000298F
:1028D000F4DC641CC5E60000092801003031323305
:1028E000343536373839616263646566000000004C
:1028F0003031323334353637383941424344454636
:102900000000000013B54FF6FF730122694602482C
:10291000FFF702FA00981CBD70010020242000F08F
:10292000BBF8574C60631C2000F0B6F820632420ED
:1029300000F0B2F8534C60631C2000F0ADF8206347
:10294000FEF7A4FCFFF7C0FBFFF79CFAFFF742FA83
:10295000FFF7E6FAFFF720FBFFF768FA4A48002581
:1029600001264561C0E90656056045608560C56081
:102970000E240561C0E9086401464148FDF74CFF9B
:102980004148283000F1140181E87000056045607D
:102990008560C5600662014605613A48FDF73CFF67
:1029A00000213748FEF7E6F9384F00220821384663
:1029B000FEF758FCFDF75EFD012208213846FEF7C0
:1029C00051FC3348FEF7E8FF324CA06806280ED2CF
:1029D000DFE800F00D03081015192079E168FDF714
:1029E00019FE03E02079E168FDF7AAFEA5602068E2
:1029F00068B125E02079E168FDF7D8FEF6E7207997
:102A0000FDF732FDF2E72079FDF774FEEEE70A21CB
:102A10001C48FEF755FA98B11D48FEF7C9FF012280
:102A200011463846FEF71EFC012208213846FEF703
:102A300019FC002204213846FEF714FC2660C4E786
:102A400020680128C1D10A210E48FEF739FA002872
:102A5000BBD1002208213846FEF704FCFDF70AFD31
:102A6000012208213846FEF7FDFB0948FEF794FFD6
:102A7000012204213846FEF7F5FB2560A5E700009A
:102A80007C000020C00000202C0000200008024034
:102A90003401002004000020F0B50B30154D20F06B
:102AA00007010024144A0FE003688B420BD38B42CA
:102AB00005D95E1A43184768C3E9006700E0436818
:102AC000136002C004E0021D10680028ECD120460B
:102AD000002802D1286808B10020F0BD064A074846
:102AE0001060074A121A22F00702C0E900240120F0
:102AF0002860D7E72800002024000020B40100202F
:102B0000B0030020000000000000000001020304E8
:102B10000607080900000000010203043C2B00081E
:102B2000000000202C00000024260008682B00086C
:102B30002C0000208407000034260008000000005C
:102B40000000000000000000000000000000000085
:102B500000000000000000000024F400000000005D
:082B600000000000000000006D
:040000050800018965
:00000001FF
