:020000040800F2
:1000000000000820B1B20408532C0408412C040855
:10001000552C0408652C0408752C04080000000009
:10002000000000000000000000000000852C040813
:10003000872C040800000000892C04088D2C04087B
:10004000FDB20408BD2D0408CF2D0408D52D0408E9
:100050004D2D0408FDB20408512D0408572D040845
:100060005D2D0408632D0408692D04082955040832
:1000700039550408495504085955040869550408B8
:100080007955040889550408FDB20408FDB2040836
:100090008D2E0408952E0408FDB204086F2D040867
:1000A000E92D0408EF2D0408012E0408072E04088A
:1000B0000D2E0408132E0408192E0408AD2E040872
:1000C000B32E0408FDB20408FDB20408FDB2040812
:1000D000FDB20408692E04086F2E0408752E04086A
:1000E000932D0408C32D0408D92C0408452E0408B8
:1000F0004B2E0408632E04085D2E0408995504084D
:10010000FDB20408FDB20408212E0408FDB2040863
:100110007B2E0408812E0408392E04083F2E040883
:10012000A9550408B9550408C9550408D955040847
:10013000E9550408FDB20408C92D0408FDB20408FD
:100140009D2E0408A52E0408FDB20408CD2C040839
:10015000F95504080956040819560408872E04089E
:10016000B92E0408BF2E0408FDB20408FDB204082D
:10017000FDB20408FDB20408FDB20408000000004E
:10018000FDB20408FDB20408FDB20408FDB2040883
:10019000FDB20408FDB20408FDB20408FDB2040873
:1001A0000000000000000000FDB20408FDB20408D9
:1001B000FDB20408FDB20408FDB20408FDB2040853
:1001C000FDB20408FDB20408FDB20408FDB2040843
:1001D000FDB20408FDB20408FDB20408FDB2040833
:1001E00042884378007843EA022340EA03207047BC
:1001F0000B0A017043700B0C090E8370C1707047BD
:10020000036A0239023B99423DBFC389406B01FB3F
:1002100003000020704700F10B010023DA0142EADD
:10022000530310F8012B52FA83F38842DBB2F5D165
:100230001846704737B50D46044618B90023092003
:100240002B6018E00368002BF8D05A79002AF5D00B
:10025000598982889142F1D10DF10702062118686F
:1002600002F006FB0028E9D19DF8070010F001001C
:10027000E4D123682B6003B030BD0328CA7E8B7E97
:1002800008BF487D43EA022302BF0A7D42EA0022FA
:1002900043EA024318467047C2F307238A76CB76B7
:1002A0000378032B01BF120C0A75120A4A757047B6
:1002B000F8B5856B00F13C07044601232A46394610
:1002C000006802F0ADFAA0B9E36A626AEB1AE07165
:1002D000934201D30020F8BDA679012EFAD9636AB2
:1002E00039462068013E1D4401232A4602F098FA4F
:1002F000F3E70120F8BDC3790BB1FFF7D9BF18466A
:100300007047F8B50446FFF7F6FF0546002842D1CE
:100310006379032B37D1277A012F34D104F13C06BE
:1003200001464FF4007230463DF0C8FC552341228F
:10033000722184F83A32AA2384F83F2004F5097028
:1003400084F83B32522384F8222284F83C3084F82B
:100350003D30612384F8201284F83E3084F8233243
:1003600084F82112A169FFF743FF616904F50A705F
:10037000FFF73EFFA26A3B46314601322068A26386
:1003800002F04EFA257200222068114602F070FA3F
:10039000003018BF0120F8BD836B8B4270B5064654
:1003A0000D4611D0FFF7A7FF044670B92A46012376
:1003B00006F13C01306802F00FFA00281CBF4FF034
:1003C000FF350124B56300E00024204670BD000025
:1003D000002310B5C3714FF0FF3304468363FFF76A
:1003E000DBFF30BB94F83B2294F83A3243EA022315
:1003F0004AF6552293421ED194F83C30E92B05D0A1
:10040000E36B104A03F0FF13934216D104F172001C
:10041000FFF7E6FE0C4B20F07F4098420FD004F12E
:100420008E00FFF7DDFE094B984214BF022000202A
:1004300010BD042010BD032010BD022010BD0020FF
:1004400010BD00BFEB0090004641540046415433BC
:100450002DE9F041437986B0044601F0FE05ABB1C9
:100460000DF107020621006802F002FA9DF807303C
:10047000D8070BD4002D00F0098103F0040303F02A
:10048000FF00002B00F025810A2022E10023052136
:100490000DF107022068637102F0EAF99DF8073058
:1004A000D90700F1F5800DB15A07EDD4002120469F
:1004B000FFF78EFF0228034604D0012800F2E180F6
:1004C00025795DB304F20225002102AF15F8040C72
:1004D00010B12846FFF784FE47F82100013110359E
:1004E0000429F3D1267906B1013E57F826502DB1E3
:1004F00029462046FFF76CFF034600E003232279DC
:1005000012B1042B06D1BFE0012B07D90136032E0F
:10051000EBD9B6E0012B01D90D20DAE094F84820A0
:1005200094F8473043EA0223B3F5007FF4D194F8FE
:10053000536094F8523053EA062604D104F1600067
:10054000FFF74EFE064694F84C80666208F1FF33D2
:1005500084F80680012BDFD894F849108BB2E38130
:10056000002BD9D04B1E0B42D6D194F84D3094F8C5
:100570004E7043EA07273B07A781CDD194F850007E
:1005800094F84F3053EA002003D104F15C00FFF7E8
:1005900027FE94F84B3094F84A2052EA0323BBD04C
:1005A00006FB08FE03EB171272448242B4D8801A8D
:1005B000B0FBF1F00028AFD04FF6F5712B442A4480
:1005C000884200F1020165D840F6F57C2162A562FF
:1005D0006045E362626374D8002F9DD073440127A5
:1005E000236301EB410301F0010101EB530101F22F
:1005F000FF11B6EB512F8FD34FF0FF33032FA361C1
:1006000063614FF0800323722FD194F86D2094F82A
:100610006C3043EA0223012B27D1691C2046FFF7E7
:10062000BBFE10BB94F83B2294F83A32207243EAA6
:1006300002234AF65522934217D104F13C00FFF7FA
:10064000CFFD254B984210D104F50870FFF7C8FD87
:10065000224B984209D104F50970FFF7C1FDA06152
:1006600004F50A70FFF7BCFD60611D4A0020677148
:100670001388E06101339BB213806381194B2361BE
:1006800027E0042B7FF448AF012022E0284620E039
:1006900003201EE0E362626394F8663094F86720FA
:1006A000216253EA0223A5627FF436AF002F7FF464
:1006B00033AF04F168000327FFF792FD2063890040
:1006C00095E7002F3FF428AF7344490002272363C6
:1006D0008DE706B0BDE8F08152526141727241610E
:1006E000760002207800022001292DE9F047064615
:1006F0000C46154670D9036A99426DD24379022B94
:100700003DD0032B4DD0012B66D101EB5108C16ABE
:1007100001EB5821FFF740FE074600285DD114F099
:10072000010406F13C0A08F10109C8F3080808BFF2
:10073000EBB230461FBF1AF8083003F00F022B014E
:1007400003F0F00318BF13430AF808300123F16ADD
:10075000F37101EB5921FFF71FFE0746E8BBC9F310
:10076000080914B1C5F3071506E01AF80910C5F316
:10077000032521F00F010D430AF8095029E0C16A51
:1007800001EB1421FFF708FE074630BB640006F1B9
:100790003C0304F4FF741D551A19C5F30725557061
:1007A00017E0C16A01EBD411FFF7F6FD0746A0B9C7
:1007B000A40006F13C0325F0704504F4FE741C44CB
:1007C0002046FFF70DFD00F0704120462943FFF75A
:1007D0000FFD0123F37100E002273846BDE8F087E2
:1007E0000129F8B505460C4652D9036A99424FD201
:1007F0004379022B29D0032B38D0012B48D101EBB0
:100800005106C16A01EB5621FFF7C6FD10B14FF04A
:10081000FF30F8BD771CC6F30806E96A28462E4467
:1008200001EB572196F83C60FFF7B6FD0028EED1AA
:10083000C7F30807E3073D4495F83C0046EA00206B
:100840004CBF0009C0F30B00F8BDC16A01EB1421D5
:10085000FFF7A2FD0028DAD164003C3504F4FF74F0
:100860002B1958782B5D43EA0020F8BDC16A01EBD3
:10087000D411FFF791FD0028C9D1A40005F13C0077
:1008800004F4FE742044FFF7ABFC20F07040F8BD88
:100890000120F8BDB1F5001FF8B505460C4601D39F
:1008A0000220F8BDCA06FBD182680668296162B9D8
:1008B0007379022B01D9336B33B9B389B3EB541F6E
:1008C000EED9336BAB6116E01A46F7897F02BC4262
:1008D00011460CD32868FFF783FF431C024618D04B
:1008E0000128DDD9336A9842DAD2E41BEFE73046BB
:1008F000FFF786FCA861AB696A61002BD0D003EBDF
:1009000054233C36C4F308040020AB613444EC614A
:10091000F8BD0120F8BD2DE9F041804605680F467D
:1009200031B96E69A6B12B6A9E4228BF012610E03C
:100930002846FFF755FF012845D9431C03D14FF046
:10094000FF30BDE8F0812B6A98423DD33E4600E07F
:100950000126344601342B6A9C4205D3012E02D86D
:100960000020BDE8F08102242146D8F80000FFF7FE
:1009700037FF30B1012826D00130E0D0B442E9D1B0
:10098000EEE74FF0FF3221462846FFF7ADFEC0B933
:1009900047B92A6AAB69023A6C6193420AD2013BB9
:1009A000AB6107E0224639462846FFF79DFE002846
:1009B000EFD006E02B7A204643F001032B72BDE80E
:1009C000F0810128BBD00120BDE8F081F8B50D46CB
:1009D00007461146012D01D80220F8BD0468236A9C
:1009E0009D42F9D22AB14FF0FF322046FFF77CFE3C
:1009F00008BB29463868FFF7F3FE064608B9002011
:100A0000F8BD0128E8D0431C14D000222946204616
:100A1000FFF76AFE78B9226AA369911E8B4205D25C
:100A20000133A361237A43F00103237296423546D2
:100A3000DFD3E4E70120F8BD2DE9F0410025D0F82F
:100A4000008006460C468D758369002B62D0C36A10
:100A5000013316D001F11507D8F8103033F815001E
:100A600060B100213DF0A8F928B1FF2D05D0013576
:100A700007F8010FF0E7054600E0002525440023B4
:100A8000AB750023A17D2E251A46F769501CBA5C70
:100A9000202A21D0052A08BFE522092804D1E71819
:100AA00001B9BD7501337D7204EB030E8EF8092088
:100AB00089B9A2F14107192F0BD8F769082897F8CF
:100AC0000CC08CBF102708271CEA070F1CBF203260
:100AD000D2B28EF8162001330B280246D5D131B997
:100AE000E2189175F269127B002A08BF00230022E8
:100AF00023445A72F369DB7A2372F16901F11C0015
:100B0000FFF76EFB206001F11600FFF769FBE08044
:100B1000000CA080BDE8F08183692DE9F04705460F
:100B20000F46002B6DD0026902F12008B8F5001FB6
:100B300067D2C8F308090468B9F1000F59D101332D
:100B40004169836131B9A389B3EB581F51D80023A0
:100B5000AB6156E0E389013B13EA582349D12046B3
:100B6000FFF73EFE0128064602D80220BDE8F087C6
:100B7000421C02D10120BDE8F087236A984232D39B
:100B8000002FE4D069692846FFF7C5FE0646002815
:100B90003AD00128E9D0431CECD02046FFF7ABFB4C
:100BA00007460028E6D101464FF4007204F13C00EC
:100BB0004FF0010A3DF082F831462046FFF720FB56
:100BC000A063E3899F420BD284F807A02046FFF779
:100BD0006FFB0028CED1A36B01370133A363F0E78D
:100BE000A36BDF1BA7636E6131462046FFF708FB4E
:100BF000A8613C34C5F8108000204C44EC61BDE88D
:100C0000F0870420BDE8F0870720BDE8F087F8B53D
:100C10000F46002104460668FFF73CFEA8B90546CA
:100C2000A1693046FFF7B8FB78B9E3691B78E52B7B
:100C300000D01BB90135BD4201D1F8BD05460121E7
:100C40002046FFF769FF0028EAD0042808BF0720E4
:100C5000F8BD00002DE9F84F4FF0FF080746046883
:100C60000D46C1460420454EB969002978D020467A
:100C7000FFF792FB002874D1F8690278002A78D037
:100C8000C37AE52A03F03F03BB7160D02E2A5ED001
:100C900023F02001A1F1080CDCF1000141EB0C0173
:100CA000A94254D10F2B46D1510605D5396902F01E
:100CB000BF02437BF96202E0914548D1434690F878
:100CC0000D80984542D1C17E837E43EA01231BB249
:100CD000002B3CD101784FF00D0CD4F810E04FF010
:100CE000010901F03F014FF6FF7A01390CFB01FCCD
:100CF000995D00EB010B415C9BF801B041EA0B21CF
:100D0000B9F1000F08D0BCF1FE0F20D82EF81C104E
:100D100089460CF1010C01E0514518D101330D2B2E
:100D2000E6D103785B0620D5BCF1FE0F0FD8002377
:100D30002EF81C3019E0B9F1000F03D1FFF76BFA60
:100D4000804518D04FF0FF33FB6214E098464FF017
:100D5000FF0900213846FFF7DFFE002884D000E0BD
:100D600048B10023BB61BDE8F88F531E5FFA83F9D9
:100D7000EFE70420F5E70020BDE8F88F1230060801
:100D8000C16A4B1C2DE9F04104460568066903D190
:100D9000E5274FF001080FE0FFF77CFDA8B9F7E762
:100DA000E3691F7085F8078023699E420DD90146CB
:100DB0002046FFF7B1FE28B9A1692846FFF7ECFAF3
:100DC0000028EDD0042808BF0220BDE8F081000013
:100DD0002DE9F04F002185B00446D0F80090FFF7D0
:100DE00059FD002840F09C80FF264FF0FF33B046AD
:100DF000E3620093A1694846FFF7CEFA002840F06D
:100E00008F80E5692F78002F7FD0EA7AE52F02F0F6
:100E10003F03A3716DD0120702D50F2B69D101E0FA
:100E20000F2B53D194F82B30580666D4790605D58C
:100E3000236907F0BF076E7BE36201E0B8455AD132
:100E40006B7BB34257D1EE7EAA7E42EA062636B2CB
:100E5000002E5ED195F800800121D9F810B008F07D
:100E60003F0808F1FF324FF00D0808FB02F82E4A48
:100E7000B25CA81815F802A040784AEA002AB1B17D
:100E8000B8F1FE0F45D8504603933CF0B3FF08F18C
:100E9000010202903BF8180001923CF0ABFF02996E
:100EA000039B814235D1019A5146904603E04FF6AB
:100EB000FF7292452DD101360D2ED8D12A785206D7
:100EC00029D541B33BF818202AB322E0B8F1000F2E
:100ED00004D12846FFF79FF9864218D094F82B30AA
:100EE000DB0706D40B2204F1200128463CF008FF62
:100EF000B0B1009BE3624FF0FF0800212046FFF7EE
:100F00000BFE00283FF476AF0AE0042008E04046DC
:100F100006E01E46EFE7013F1E465FFA87F8ECE762
:100F200005B0BDE8F08F00BF123006082DE9F04F84
:100F300090F82BA089B005461AF0A00440F0DF809D
:100F400007683A6932F814300BB10134FAE705F159
:100F500020060DF114091AF0010F96E8070089E840
:100F6000070065D040234FF001084FF07E0B85F855
:100F70002B303346D7F810E0B8F1050F99E8070099
:100F800003C323F8022B4FEA12421A7001D84346DA
:100F900015E0AEF10201434631F8022F7AB110207C
:100FA00002F0010E52080EEB430313F4803F1CBF06
:100FB00083F4883383F021030138F1D1ECE7072271
:100FC00003F00F00013A00F13001392988BF00F128
:100FD000370103A81B0910444170F1D108A911443D
:100FE00001F814BC9A4204D0F15C202901D00133ED
:100FF000F8E73344072A97BF08A92021891801324E
:1010000098BF11F8141C03F8011B991B0729F1D98B
:101010002846FFF7DDFE30B908F10108B8F1640F8A
:10102000A7D1072089E0042840F0878085F82BA00D
:101030001AF0020F28461BBF0C340D230124B4FB09
:10104000F3F418BF01342146FFF7E1FD002874D105
:10105000013C56D029692846A1EB4411FFF71AFC40
:1010600000286AD13046FFF7D6F88046A96938468D
:10107000FFF792F9864600285FD1EB694FF00F0227
:10108000E1B2D7F810C0DA724FF6FF7918734A1E32
:101090009876D8760D2083F80D80424370460192F1
:1010A00048451FBF019A3CF8120001320192244AC0
:1010B0001EF802A00EF1010E03F80A0003EB0A0B62
:1010C0004FEA102A002808BF4846BEF10D0F8BF8E2
:1010D00001A0E5D14FF6FF7E704503D0019A3CF8A0
:1010E00012200AB941F0400119700123002128465D
:1010F000FB71FFF711FD00BB013CB7D101E00620F9
:101100001BE0A9693846FFF747F90446A0B9202239
:101110002146E8693CF0D2FDEB6903CE18605960C6
:10112000B27831889A72198195F82B30EA6903F008
:10113000180313730123FB71204609B0BDE8F08F3B
:10114000123006082DE9F74F0B7806468846D0F88E
:1011500000B02F2B01D05C2B01D1424602E0DBF81E
:101160001C3007E01378904601322F2BFAD05C2B0D
:10117000F8D00023B36098F800301F2B5DD880238F
:101180000021304686F82B3003B0BDE8F04FFFF762
:1011900081BB2F285AD05C2858D0B4F5807F00F04E
:1011A000328101213CF008FE002800F02C817F28CC
:1011B00004D8994A12F8013F002B53D1254627F84D
:1011C000020F1AF8010F6C1C1F28E2D81F28A04438
:1011D0008CBF00240424012D47D1B9F800302E2BF8
:1011E00049D1002306F11F0229F815309D4294BF12
:1011F00020212E2101330B2B02F8011FF6D144F0E0
:10120000200486F82B403046FFF7E2FD96F82B309D
:10121000002840F0D8805A0700F1FB80B379DB0644
:1012200040F1E58033690BF13C019BF80500C3F305
:1012300008031944FFF721F8B060336808F1FF3A5A
:101240000025D3F81090A9F10207BAE708EB0403D0
:1012500001E05C2ABAD1C8EB030413F8012B2F2A52
:10126000F7D1F8E79842A5D1CDE0022D03D1B9F826
:1012700002302E2BB1D009EB450304E033F8022DE8
:10128000202A03D1013D002DF8D101E02E2AF9D00A
:10129000002109EB450329F81510002D00F0B3805B
:1012A0004FF0203070623062C6F8270039F8112004
:1012B000202A01D10131F9E72E2AFBD021B144F0D7
:1012C000030401E0013D03D033F8022D2E2AF9D1A9
:1012D00000234FF0080A1F4639F811004A1C002865
:1012E0004DD0202803D02E2805D1AA4208D044F0A2
:1012F00003041146F0E7534505D2AA4217D184E012
:101300005345C0F08280BAF10B0F04D144F00304BE
:101310004FF00B0A33E0AA4202D044F003042ED867
:10132000BF002A464FF00B0A0823FFB2E1E77F28EF
:101330000ED900218DE80C003CF03EFD9DE80C002C
:1013400018B13649084410F8800C44F0020430B15A
:10135000DFF8CCE01EF8011F29B18842FAD144F031
:1013600003045F2006E0A0F1410189B2192940D8A9
:1013700047F00207F118013381F82000B9E796F829
:101380002030E52B04BF052386F82030BAF1080F82
:1013900004BFBF00FFB207F00C030C2B03D007F013
:1013A0000302032A01D144F00204A1073FF529AF4B
:1013B00007F00307012F08BF44F01004042B08BFF7
:1013C00044F008041DE7042823D113F0200F03F094
:1013D000040307D0002B3FF430AF8023002086F8B1
:1013E0002B3016E0002B14BF0420052011E005204F
:1013F0000FE0A0F1610189B219299EBF203847F0A2
:10140000010780B2B6E7062003E0BAF10B0F87D1DF
:101410007CE703B0BDE8F08FCD2F06081F3006082B
:10142000D62F060800214171FFF712B82DE9F04FC1
:1014300006468DB092461D460C46002900F0B58048
:1014400003F03F084146FFF703F80746002840F045
:10145000B6800DF13009514649F8306D4846FFF726
:1014600071FE20B99DF92B30002BB8BF062015F076
:101470001C0F4CD040B1042802D14846FFF756FD5E
:1014800048F0080848B197E09DF8063013F0110FB6
:1014900040F091806D0700F18A8018F0080F45D068
:1014A00049F0AAF9024601460798B2460E30FEF707
:1014B0009FFE079811461630FEF79AFE079B2022E2
:1014C000DA72DDF81CB01AF8050F5946FEF7D5FEA2
:1014D0000022054659465046FEF7DEFE079B0022D5
:1014E0001A775A779A77DA770123F371E5B12946AB
:1014F0004846D6F838A0FFF769FA00285CD1013DCC
:1015000051463046FEF748FF756150B154E000285F
:1015100052D19DF80630D8064BD4A90701D5DA0779
:1015200049D418F0080F01D048F04008B36B079D6C
:101530002362656229467079FEF79FFE0146A0602E
:1015400005F11C00FEF74CFE738918F0200F0546CC
:10155000A3804FF00003E060266084F8108063747D
:10156000E36163612FD070B3B6F80E8060614FEA1B
:101570004828A8450CD22068C8EB0505FFF730F9CC
:101580000128014603D9431CF3D1012700E00227BB
:10159000A161A7B9C5F30803ABB13046FEF730FE31
:1015A00060B100EB5520E0610DE009200CE008205F
:1015B00002E0042000E00720074600E002270023A5
:1015C0003846236000E000200DB0BDE8F08F2DE923
:1015D000F74F984600230F4601A9C8F8003005468A
:1015E0001446FEF727FE002840F08280687C002821
:1015F0007ED12B7CDA077AD5EB686869181A8442A9
:1016000028BF0446002C70D06B69C3F30802002A7F
:1016100048D1019AB2F80E9009F1FF3919EA53291D
:1016200010D10BB9A86803E0A9692868FFF7D8F8BA
:10163000012801D8022002E0431C02D10120687475
:1016400056E0A861DDF804B0A9695846FEF7D8FD58
:101650000028EFD0660A09EB000A21D0BBF80E3053
:1016600009EB06023946DBF800009A42524688BF71
:10167000C9EB0306334601F0AFF80028DED101992B
:10168000CB795BB1886BCAEB0000864206D94FF478
:1016900000723C3107EB40203CF0D1FA760219E0B1
:1016A000C5F81CA06E69E969C6F308060198C6F57D
:1016B0000076A64228BF2646FEF76EFE0028BDD162
:1016C000019932466B6938463C31C3F3080319442B
:1016D0003CF0B5FA6B693744A41B33446B61D8F80E
:1016E00000303344C8F800308CE7204600E0072083
:1016F00003B0BDE8F08F2DE9F74F9B4600238946E4
:1017000001A9CBF8003004461646FEF793FD0028E9
:1017100040F0AC80607C002840F0A880237C9A07D1
:1017200040F1A3806369F3424DD3DE434BE063692C
:10173000C3F30802002A7BD1019AD789013F17EA37
:10174000532743D00198E369826B9A425DD0DDF85C
:1017500004A0A1695046FEF753FD002848D0750A41
:1017600007EB000856D0BAF80E307A19DAF8000004
:1017700049469A42424688BFDD1B2B4601F050F88D
:101780008246002838D1019FB96BC8EB01018D4218
:1017900009D94FF4007209EB412107F13C003CF0FC
:1017A0004EFA87F807A06D026369A944E268761BC8
:1017B0002B4463619A422CBFE260E360DBF80030A7
:1017C0002B44CBF80030002EB1D109E01BB9A06842
:1017D00060B9014600E0A1692046FFF79CF828B9EE
:1017E000237C002043F0400323743FE0012801D113
:1017F000022002E0431C02D10120607436E0A3689D
:10180000A061002B9ED1A0609CE7FEF774FD00282C
:101810009DD0F1E76269E3689A4207D35046FEF72C
:101820006AFD0028E8D1019BC3F83880C4F81C8009
:101830006569E169C5F308050198C5F50075B5420C
:1018400028BF3546FEF7A8FD0028D5D101982A46C5
:10185000636949463C30C3F3080318443CF0EFF990
:10186000019B4FF00102DA719EE7072003B0BDE84B
:10187000F08FF7B501A90446FEF7DCFC054660BB16
:10188000237C5B0629D548F0B7FF216A07460198FB
:10189000FEF782FD054600BB666AF37A314643F0E7
:1018A0002003F3722068A2680530FEF7F5FCE168BA
:1018B00006F11C00FEF79CFC394606F11600FEF707
:1018C00097FC01230198B574F574C371FEF719FDF7
:1018D000237C054623F040032374284603B0F0BD63
:1018E00013B50446FFF7C5FF28B901A92046FEF746
:1018F000A1FC00B9206002B010BD70B50E468CB0DE
:1019000000210546FEF7A4FD0446E8B90CA83146BF
:1019100040F8305DFFF716FC044680B99DF92B3086
:10192000002B02DA029BEB610EE09DF80630DB062D
:1019300009D507996879FEF7A0FCE86104E004285E
:1019400008BF052400E0052420460CB070BD2DE939
:10195000F0470E460021D2B0814631709046FEF726
:1019600077FD0746002873D1D9F81C304546CDF8DD
:1019700000900293DDF808A0BAF1000F4DD02021AD
:101980006846FEF787FF044600285AD10699484664
:10199000FEF702FD0446002853D1079999F8050087
:1019A000FEF76BFC214602906846FEF773FF044683
:1019B000002846D100216846FFF74CF9044600286C
:1019C00042D1079999F80500FEF757FC824504D1EA
:1019D0000CA96846FFF730F807E021466846FFF794
:1019E0009BF804460028E5D02EE00CAB23449B7DF9
:1019F0000BB10134F9E7E31C9D4221D32A1B234696
:101A000032442BB1013B0CA91944897DD154F8E72C
:101A1000E4432F2325447355ACE7454503D12F22DA
:101A2000731C327009E072193346AD1B12F8011BAA
:101A300003F8011B59194145F8D300221A7007E039
:101A4000112427463346F8E7042C08BF0224F8E7A0
:101A5000384652B0BDE8F08773B50D4601A904467B
:101A6000FEF7E8FB002875D1607C002872D1E3689E
:101A7000AB4204D2227C12F0020F08BF1D460022A6
:101A800063696261002D63D0019AD68976026BB1D9
:101A9000013B6A1EB3FBF6F1B2FBF6F28A4205D3B4
:101AA0007242A16913406361ED1A10E0A16869B93F
:101AB0002046FEF730FF0128014601D1022002E056
:101AC000013002D10120607444E0A160A161B1B98C
:101AD00000232BE06369AD1B33446361237C9A07C9
:101AE00010D52046FEF717FF014680B14B1CE9D008
:101AF0000129E3D9019B1B6A9942DFD2A161B5425A
:101B0000E8D805E02068FEF76BFE0146EEE70546E3
:101B100063692B446361C5F30803002BD8D0019897
:101B2000FEF76EFB0028C9D000EB5523E26865691B
:101B3000954281BF227CE56042F040022274C5F3E9
:101B4000080038B1E26900209A4218BFE36101E061
:101B50002B46F4E702B070BD70B5054616460C463C
:101B600011B30021FEF774FCD8B925603146204638
:101B7000FFF7E8FAF0B994F92B30002B07DBA379D3
:101B8000DB060DD56879E169FEF777FBA0606B890C
:101B900000212046A380FEF77DFE0428034605D1E0
:101BA00005200023236070BD092070BD002BF8D1F3
:101BB000184670BD0428F3D0F3E713B501A9044615
:101BC000FEF738FB00B9206002B010BD73B50E46B9
:101BD00001A90546FEF72EFB0446C0B9014628467A
:101BE00016B9FEF757FE11E0FFF734F810F0FB0FBF
:101BF0000CD131462846FEF71FFF21462846FEF746
:101C00008BFF042814BF0446002400E0044620464D
:101C100002B070BD70B504468CB00E46002115466A
:101C2000FEF716FC0094044680B931466846FFF77B
:101C300089FA044650B99DF92B30002B05DB2DB1F4
:101C400029466846FEF7F8FE00E0062420460CB060
:101C500070BD2DE9F0478A4600210446FEF7F8FBE7
:101C60000546002856D1D4F82090A369A9F10202B4
:101C7000934202D8CAF800304CE06379012B10D1AE
:101C80000227064639462046FEF7AAFD431C35D0FA
:101C9000012835D000B901360137236A9F42F1D3BC
:101CA00031E0E16A074680460646B8F1000F0AD1E6
:101CB000204601F10108FEF76FFB18BB414604F115
:101CC0003C074FF400786379022B09D17A78A8F1A8
:101CD00002083B78023753EA022308BF013609E0C5
:101CE0003846FEF77DFA20F0704000B9013604371F
:101CF000A8F10408B9F10109D7D104E0012502E0F7
:101D0000022500E00546CAF80060237AA66143F088
:101D1000010323722846BDE8F087F0B5054699B067
:101D20000E460221FEF794FB00950446002841D19F
:101D300031466846FFF706FA044600283AD19DF876
:101D40002B30980606D41A0604D49DF80670F907BD
:101D50002FD401E006242DE007996879FEF78DFA6B
:101D6000FB06064612D5EB699E4222D021460CA8FE
:101D70000C950E96FEF78EFD0446D8B901460CA8C8
:101D8000FEF768FF0446A0B1042813D16846FEF7A9
:101D9000F7FF044670B926B92846FEF7B2FA0446A2
:101DA00008E0024631466846FEF710FE044608B9D0
:101DB000F2E70724204619B0F0BD2DE9F04F0446A4
:101DC0008DB00E460221FEF743FB00940546002825
:101DD00040F0A78031466846FFF7B4F9054658B190
:101DE000042840F09E809DF82B3003F0200303F080
:101DF000FF011BB1062594E0082592E06846FEF736
:101E00008AFDE38906465B02039340B1012E04D0AC
:101E1000731C40F08180012502E0022500E00725C7
:101E200048F0EAFC8246002D56D104F13C073146C9
:101E3000204604F10508FEF7E3F94FF40072294645
:101E4000814638463BF03AFF4FF02033514604F1CB
:101E50005200E3637B60C7F807302E2384F83C30E0
:101E6000102384F84730FEF7C3F93246394640461E
:101E7000FEF712FA04F15C013B460A4653F8040BE4
:101E80008B4242F8040BF9D12E23029A84F85D307C
:101E90006379032B03D1236B9A4208BF002240468B
:101EA000FEF7FAF9B4F80EB0D944CBEB0902BBF156
:101EB000000F17D04FF00103A2632046E371FEF735
:101EC000F7F9054640B901464FF4007238460BF168
:101ED000FF3B3BF0F3FEE8E7002231466846FEF7A1
:101EE00075FD1EE06846FFF721F805460028F3D18E
:101EF000079D514605F11600FEF77AF9294632464C
:101F00004046FEF7C9F910232046EB720123E37126
:101F1000FEF7F7F9054604E02046FEF7ECF9054622
:101F20007EE728460DB0BDE8F08F2DE9F0410C4664
:101F30009EB0022106469046FEF78AFA002840F03D
:101F400085801EAF214647F8606D3846FFF7FAF8E6
:101F500000287BD19DF8433013F0A00F69D10D9973
:101F60006A4601F10B0301F11B041868083353F8AA
:101F7000041C1546A34203C52A46F6D1186812ACC4
:101F800028601B792B713D460FCD0FC40FCD0FC4B8
:101F900095E80F0084E80F00414612A8FFF7D2F839
:101FA00040B9089B149A9A4245D10A9B169A9A42C4
:101FB00041D101E0042849D112A8FEF7B7FF00285B
:101FC00044D119990DF102030DF1120001F10D0236
:101FD00053F8044B834242F8044BF9D1188801248A
:101FE00010809B7893709DF8003043F02003CB72F3
:101FF000F471CB7ADB0622D5149B089A9A421ED044
:102000007079FEF73AF901463046FEF7F9F80146D5
:1020100098B13046FEF7C0F9C0B996F85D302E2B66
:102020000DD1149A06F15C01701DFEF735F9F471BB
:1020300005E006200AE0082008E0022006E0384615
:10204000FEF79EFE10B93046FEF75BF91EB0BDE804
:10205000F08100002DE9F0410E4692B002210746C2
:10206000FEF7F6F9002840F0838032460697931B6E
:1020700012F8011B1F29FAD83344B342A3EB06041C
:102080001CD013F8012D202AF7D00025B0468DF87A
:102090000050012118F8010B3BF08EFE3BF0AAFE28
:1020A00000213BF089FE08B9062061E0324A12F8AF
:1020B000013F002B36D09842F9D1F5E700240021EA
:1020C00006A80891FEF7E6FB002851D1012106A8D9
:1020D000FEF7C0FD20B90D9AA4B9E523137019E0ED
:1020E000042845D1E4B1012106A8FEF790FD00289F
:1020F0003ED1202201460D983BF0E0FD08220D9BC9
:10210000DA720D9A6B4603CB1060516019889B7888
:102110001181937201233846FB71FEF7F2F827E034
:10212000204625E0FF2820D9092DBDD812AB020A90
:102130002B44013503F8482C12AA6B1C1544C6EB3E
:102140000802944205F8480C01D91D46A1E76A46E9
:102150006B442020991A0A2902D803F8010BF9E7E9
:102160009DF80030E52BAAD19EE70A2DE4D99BE724
:1021700012B0BDE8F08100BFAF2F06082DE9F04F87
:102180001C46002391B0D0F80080437115460379B6
:102190000DF13702049140460521039300F068FBDE
:1021A0009DF83730DF0700F1DA825E0700F1D9824F
:1021B0000EAA0321404600F05BFB30B90E9A531E75
:1021C000B3F5004F01D21A4201D001230E9335B16D
:1021D000A5F50072A14B9A4201D91320D2E26A1EE2
:1021E0002A40FAD11A9B5B0A06935B020793069B6F
:1021F0000BB90E20C6E2039B2BB3012321464046B8
:1022000000F0EAFA002840F0AC8194F8FF2194F83D
:10221000FE3143EA02234AF655229342E9D1039B59
:1022200004EB031191F8B23101F5D771002BE0D026
:1022300001F10800FDF7D4FF834601F10C00FDF722
:10224000CFFF0F9015E00FAA0121404600F010FBD0
:10225000002840F08681049B13F0080F0F9B0CBFF1
:102260004FF03F0B4FF0000B9B45C2D8CBEB030365
:102270000F93DDF83C90B9F1310FBAD96A0A802A80
:10228000ABD8049B03F0020303F0FF0C3BB1049BAB
:1022900003F00703022B07D0049BD80704D5049B47
:1022A000D9079AD5022700E003274FEA1933032FF5
:1022B0004FF6F57E08930E9B03F1FF31C3F1000347
:1022C00009934FEA59430A910B9376D14AB964496D
:1022D000012631F8023F2BB10B9D9D4202D37600BF
:1022E000F7E716465F49B9FBF6F39D00A3F57F4378
:1022F000F63B05F207258B424FEA55253FF679AFAD
:1023000000234FF0200A029320E0089D9D4204D351
:10231000760031F8023F002BF7D1B9FBF6F540F615
:10232000F5734FF0010A9D424FF0200393BF05EB78
:10233000450502350227012794BF01356D00029340
:102340009CBF6D08033505F2FF156D0A0BEB0A0300
:102350000998032F0193029B01992B440B440A997E
:10236000194401EA000108BF0198A1EB030105BF70
:1023700040188A446D18014608BF0191CBEB061145
:102380000B449945FFF435AFCAEB09030299032FBB
:10239000A3EB0503A3EB0103B3FBF6F3059312D004
:1023A000022F26D1059B734516D9002A40F0DB8108
:1023B0007600402E00F2DD81324612B92A4901260C
:1023C000A7E71646A9E773451AD8002A7FF411AF8C
:1023D00072083FF40EAF79E7059B40F6F5718B422A
:1023E0000ED8002A7FF405AF7200802A3FF601AFB5
:1023F000E3E740F6F573059A9A423FF6FAAE0127F5
:102400004FF40072002120463BF058FC174B032F7D
:1024100084F80EA01A68CAF3072A667322605A6805
:1024200084F80FA062601A899B7A22814FF0020221
:10243000A3724FF0000322734FF00102E372637442
:1024400018BF0223B9F5803F2274A37410D284F818
:102450001390C9F3072984F814900EE000FEFF00E2
:10246000BE2F0608FFFFFE0F9E300608DE2F06086F
:10247000494604F12000FDF7BBFEF8234FF00009A8
:10248000594604F11C0063753F2384F819902376A4
:10249000FF2384F81B90A376FDF7AAFE032F30D10B
:1024A00048F0AAF9014604F14300FDF7A1FE2946D0
:1024B00004F12400FDF79CFE022304F1470284F896
:1024C0002D9084F82C30012384F82E9084F830303D
:1024D000062384F82F9084F83230802384F83190DA
:1024E00084F84030292384F8339084F84230A74B95
:1024F00003F1100153F8040B8B4242F8040BF9D19D
:102500001BE048F079F9014604F12700FDF770FE61
:10251000C5F3072304F12B02A575E375802384F826
:102520002430292384F82630994B03F1100153F805
:10253000040B8B4242F8040BF9D119884FF0AA0A18
:102540009B7840461180214693704FF0550384F8E4
:10255000FFA15A4684F8FE31012300F061F981465B
:1025600008B101200EE1032F3FD101230BF1060238
:102570002146404600F054F94FF400724946204687
:102580003BF09CFB522341227221237004F5F4702E
:1025900063706123E270A37084F8E731059B84F8CF
:1025A000E41184F8E511591E84F8E621FDF720FEB8
:1025B00002230BF10702214684F8EC314FF055035A
:1025C00084F8ED91404684F8FE31012384F8EE91C1
:1025D00084F8EF9184F8FFA100F022F9012321464D
:1025E00040460BEB030200F01BF9079A002120463E
:1025F0003BF064FB032F0FD1F8232370FF2363709C
:10260000A370E37023716371A371E371237263722A
:10261000A3720F23E37207E0012F5E49204618BF23
:102620006FF00701FDF7E4FD069B2146019A404645
:10263000AB4228BF2B46994600F0F2F8014600282D
:102640008FD14FF4007220463BF038FB019BB5EB75
:1026500009054B440193E7D1029B032F08BF334682
:102660000293029B2146069A4046934228BF134696
:10267000019A1D4600F0D4F800287FF472AF019B48
:102680002B440193029B5B1B0293EAD1032F08D0DA
:102690000F9BB3F5803F06D2022F14BF01250425FE
:1026A00002E00C2500E00625039B83B100220123F4
:1026B0002146404600F090F8024600287FF451AFD2
:1026C000039B04EB031383F8B251012340E0049B06
:1026D0001B0708D500224046114600F0C9F800301B
:1026E00018BF01204EE04FF40072039920460126E6
:1026F0003BF0E4FA55230F9A594684F8FE31AA2399
:102700005A4404F5E37084F8FF319DF80C3084F8E6
:10271000BF6184F8BE3184F8C13143F6C16384F8E7
:10272000C06184F8C251B2FBF3F2FE2384F8C521E4
:1027300084F8C331930843F03F0384F8C431FDF7B4
:1027400057FD0F9904F5E570FDF752FD3346039AE6
:102750002146404600F064F80028BBD001E7032082
:1027600010E00A200EE0BCF1000F3FF442AD032759
:10277000ACE5BCF1000F01D00327A8E5802E3FF6A1
:1027800038AD19E611B0BDE8F08F00BFEA2F06089A
:10279000FE2F0608F8FFFF0010B5044608B9012017
:1027A00010BD83885B0705D4A369002B0CBF0420F0
:1027B000002010BD032300F1280200210363012340
:1027C0004363022028F09BFB024B9842ECD0430865
:1027D000EAD0E4E734B90508F8B50F4616460546D1
:1027E000E0B1808810F0010408D02C691A46314607
:1027F0003846A047003018BF0120F8BD56005802E7
:1028000046F001062E612AF0DFFD05F1080268613D
:102810002146022028F073FB2046F8BD0420F8BDB5
:10282000F8B50F4616460546F0B18269F2B18088C8
:1028300010F0010408D02C6A1A4631463846A047E9
:10284000003018BF0120F8BD7600580246F001069E
:102850002E622AF0B9FD05F11802686221460220B5
:1028600028F04DFB2046F8BD0420F8BD0220F8BD3D
:1028700010B5144600285BD083885B072AD506294B
:1028800056D8DFE801F0040D164655494E000723DF
:1028900000F128020021036301234363022027E0A3
:1028A000092300F12802002103630123436302206E
:1028B00025E00B2300F12802002103630123436379
:1028C000022028F01CFB1B4B83421ED029F04CFF3A
:1028D000208024E006292BD8DFE801F0040D171B27
:1028E0002A1E2300836AD3B1002100F12802084682
:1028F00028F005FB13E0002100F13002084628F023
:10290000FEFA29F031FF206009E04FF400732380C4
:1029100005E00123236002E0FFF73EFF2070002066
:1029200010BD8369002B0CBF042300232370F6E73E
:10293000042010BD34B9050808B543683BB1043024
:10294000FEF7CEFF18B1034B185C29F0D5F9024809
:1029500008BD00BFE0F7050834B905080868FFF7AF
:10296000EBBF000037B51C46043001AB1546FEF73F
:10297000C2FE10B1054B1B5C03E00198854203D0F9
:102980001C234FF0FF30236003B030BDE0F7050893
:1029900013B51C46043001ABFEF719FE28B1044BF9
:1029A0001B5C4FF0FF30236000E0019802B010BDC7
:1029B000E0F705082DE9F8438146506890460F4638
:1029C00000242FF0A9FC254A013810F8013F0BB371
:1029D000722B13D008D8612B19D0622B0CD02B2B63
:1029E000F3D144F00304F0E7772B0AD0782B0BD017
:1029F000742B08BF1746E8E7194FE6E744F00104D7
:102A0000E3E744F00A04E0E744F00604DDE744F0BD
:102A10001204DAE72C201DF041FB0646054646F875
:102A2000047BD8F800002FF077FC31460246E3B271
:102A300009F13800FEF7FAFC074630B128461DF0D0
:102A400047FB084BD85D29F057F9E30603D5296900
:102A50003046FFF701F82846BDE8F88380F80508FE
:102A600044F80508E0F7050830B587B00546084684
:102A7000114603AC1A46064B01940093032329F038
:102A80000FFB224629460020FFF794FF07B030BD18
:102A9000C8F7050870B50C460546084629F088FDBC
:102AA0002346024602492846BDE8704001F014B8AA
:102AB00000F80508022970B5044615461E4615D1D2
:102AC0005368012B04D0022B06D05BB9116806E0D5
:102AD00013683BB15F2313E0016913681944201D9B
:102AE000FEF7BAFFA36900202B6070BD012906D153
:102AF0000430FEF7BEFE30B1034B1B5C00E0162332
:102B00004FF0FF30336070BDE0F705081FB5054B8F
:102B10000191029201AA04490393FFF74BFF05B00C
:102B20005DF804FB34B9050880F8050830B500F1FC
:102B30000C04C7B0054669462046FFF747F8014632
:102B400038BB9DF8163023B3032030F0BDFE2B7A3E
:102B500004460DF116003BB13BF0E4F801460DF1DF
:102B600016002FF081F806E03BF0DCF801460DF18D
:102B700016002FF01BF9A06020469DF80830DB06F8
:102B80004CBF48F201034FF00113E36001232361BE
:102B900003E02046FFF711F8002047B030BD0000E9
:102BA000F8B505463C200E4617461DF069FA0A4B5B
:102BB00004460772036000F10C01084B3246436083
:102BC00005F13800FEF7C8FF18B1054B185C29F075
:102BD00093F82046F8BD00BF54B805082D2B000817
:102BE000E0F7050800B5C7B038306A46FFF712F8BD
:102BF00038B99DF8083013F0100F14BF01200220DF
:102C000000E0002047B05DF804FB00000000000079
:102C100007292DE9F74F9DF830500ED8012904D926
:102C20003F23013000F8013C00E009B100230370AC
:102C3000012994BF0020012021E210EE904A002CCF
:102C40000ADAB4EE400BF1EE10FA05D62D25441C3D
:102C5000B1EE400B057004E015B1441C057000E0B6
:102C60000446B0EEC07B02F0200C01905FFA8CF5B8
:102C70009FEDCD6BB4EE467BF1EE10FA0ADD85F0E8
:102C80004903E11C237085F04E0385F0460563700F
:102C9000A5700DE0B4EE400BF1EE10FA0CD785F004
:102CA0004E03E11C85F04105DBB265702370A37013
:102CB0000023081A0B70E2E1002B42F0200201F120
:102CC000FF31A4EB0005B8BF0623672AA1EB05017D
:102CD00008D1B5EE400B002B08BF0123F1EE10FA2E
:102CE00011D01BE0B5EE400BF1EE10FA16D1662ABA
:102CF00009D15D1C0027A942BE463D46D8BF8B1EA8
:102D000066215E1CD4E05D1D0026A942D8BF8B1F42
:102D1000652A114640F0BF802B27BDE0B7EE007B4F
:102D2000B4EEC70BF1EE10FA67D50026DFF890E29B
:102D30004FF48077DFF88C9235469FED9D6BB4EEB3
:102D4000C60BF1EE10FAACBF4FF031084FF030086F
:102D5000BEEC025BB4EEC05BF1EE10FA06DD09EBEF
:102D6000060A3D449AED005B20EE050B08367F1005
:102D7000482EEDD1B4EEC70BF1EE10FA0BD5B4EE40
:102D8000C60BF1EE10FA07DB002DB7EE000B14BFF7
:102D90002D272B2706E004D5B2EE047B013520EE6B
:102DA000070B2D27662A03D0672A1ED1042D1CDCB1
:102DB000672A84F8008004BF05F1FF369B195E1C6A
:102DC000B142D8BF8B1E002B00F03E812E211E4643
:102DD000023404F8011C3021013D60D01EB104F81A
:102DE000011B013EF8E737465AE08E1F9E4200F372
:102DF0003181672A58D0CB1F57E00026DFF8C4E1A5
:102E00004FF48077DFF8B8813546BEEC027BB4EE34
:102E1000C07BF1EE10FA06D808EB06093D4499EDA7
:102E2000007B20EE070B08367F10482EEDD1B2EE66
:102E3000047BB4EEC70BF1EE10FA04DB01359FED15
:102E40005E7B20EE070B662A0AD18D420ADAEE1865
:102E50000136B1421ADC491B8B1E17D54B1E15E0FB
:102E6000652A08D18E1F9E4225DC0026CB1F2B270A
:102E70006521B6461CE0672A22D15E1DB14200DC06
:102E80008B1F9D4280F2DC80691C5B1AEE18AE46F7
:102E90000027013606E03746B646354608E02F469D
:102EA0004FF0FF3E662103E0334611460026B6464A
:102EB00023EAE37308E02B274FF0000E652105E0BD
:102EC000002611462B27B646652901D15E1C06E077
:102ED000672904D113B90126334600E01E46B2EE3D
:102EE000046B4FF000084FF02E0A46451ADDBDEE88
:102EF000C07BF04504F1010917EE10BA0BF1300B5D
:102F000084F800B004D11BB104F1020984F801A0D7
:102F1000B8EEC77B08F101084C4630EE470B20EEB7
:102F2000060BE2E7662A02D1012D65DC97E0B1EEDF
:102F3000047BB4EEC70BF1EE10FA50DB661E4FF0C7
:102F40003009B04618F801E9BEF12E0F01D146460E
:102F5000F7E7AEF1300ABAF1090F01D9701C0CE0A5
:102F6000BEF1390F05D00EF1010E304686F800E0B3
:102F700003E0B04288F80190E9D10678302E2ED1D6
:102F800090F801E0BEF12E0F1ED166291CD02D2F26
:102F900080F800E0467003D1013D08BF2B2714E004
:102FA000013512E0AFF30080FFFFFFFFFFFFEF7F6F
:102FB0001450FFFFFFFFEF3F9A9999999999B93FF4
:102FC000409A0508F899050801342146884204D240
:102FD00011F8016C01F80169F8E731210170672AE5
:102FE0000AD14BB123461C46013B14F8012C302A70
:102FF000F9D02E2A08BF1C46EFB14CF0450C632DCA
:10300000677084F800C001DCA01C05E06423E01CAC
:1030100095FBF3F33033A3700A21044695FBF1F3DB
:1030200093FBF1F201FB135501FB123230353032C4
:1030300004F8022B457000232370019BE01A1EE068
:10304000672100262B2732E701341F464FF0FF3E51
:10305000662102E011464FF0000E002634E7B1EE83
:10306000047BB4EEC70BF1EE10FABFF667AF002F8A
:10307000E1D04CF0450C677084F800C0C4E703B0A1
:10308000BDE8F08F08B5044631B1054B8A6B03608B
:10309000002309682BF07AFA20461CF0D3FF00BF0A
:1030A0004CAD05082DE9FF471F46019246180AB9A5
:1030B00005460BE0023A222AFAD9384828F04AFCA1
:1030C000207801351EF0CAF8002855D0B5422C46AC
:1030D000F6D34FF00008311B204601AA002527F047
:1030E000C6FB0444A146B1454B461CD219F8012B3E
:1030F000A2F1300ABAF1090F07D942F02002A2F179
:10310000610119290FD8A2F1570A01998A450AD2FB
:10311000284635F083FAE0B9019B03FB05A595EA43
:103120004503E0D515E0B8F1000F00D06D426D0009
:1031300045F00105A34217D01C46B442234606D2EF
:10314000187801341EF08AF80028F6D10CE021D05E
:103150000AE004A8019B4246311B40F8044D2CF0C4
:103160003BFC039B0546E5E70D49019A0D482BF012
:103170006FF93946FFF786FF23782B2B02D12C46B7
:103180008046A8E72D2B0ABF2C464FF000084FF0D1
:103190000108A0E7284604B0BDE8F087889A050832
:1031A000AB9A050840A805082DE9F04F2DED028BDC
:1031B00083B0164600EB01080546DDF83890019310
:1031C00045452C4606D2207801351EF047F80028E8
:1031D000F6D15CE000270023B2EE045B25464FF0F9
:1031E0000A0B19469A461A469FED7D8B9FED7E6B22
:1031F000454549D295F800E0681CAEF1300CBCF1B1
:10320000090F18D8022A02D10BFB01C13AE0B4EE33
:10321000C68BF1EE10FA0BD507EE90CA012AB8EE74
:10322000E77BA8EE057BB0EE478B2BD1013B29E075
:1032300042BB013326E01AB9BEF12E0F02D120E0C5
:10324000022A14D04EF02002652A10D1804509D9F7
:103250006A782B2A01D1A81C04E02D2A04BFA81CDF
:103260004FF0010A404500F0818002220AE0F6B1E9
:103270004EF0200EBEF16A0F0ABF05460026012659
:1032800015E001220546B3E720462C460CE02378E2
:103290002B2B72D12C460746454519D300232846CF
:1032A0009FED4F8B19469A46254600260446BAF1F3
:1032B000000F00D04942CB18B2EE040B01EE103AD9
:1032C000B8EEC11B3DF088FF20EE088B19E00746E1
:1032D000237843F02003692B15D06E2B7FF47BAF4E
:1032E000A31C984512D9637843F02003612B0DD1BC
:1032F000A37843F020036E2B08D1E51C00269FED38
:103300003C8B57B107E0A31C98453BD877B32546C3
:1033100000269FED338BB1EE488BA54226D0454564
:103320002B4606D2187801351DF098FF0028F6D1FB
:103330001CE01BD126B1B0EE481B9FED290B05E028
:10334000019B53B1B0EE480B9FED251B03B0BDECC4
:10335000028BBDE8F04F2AF001BAB0EE480B03B083
:10336000BDEC028BBDE8F04F2BF02EBA2449254866
:103370002BF0CCF84946FFF785FE2D2BA7D12C4624
:10338000012789E7637843F020036E2BBED1A37831
:1033900043F02003662BB9D1E31DE51C98451AD9EB
:1033A000E37843F02003692B15D1237943F0200300
:1033B0006E2B10D1637943F02003692B0BD1A379D5
:1033C00043F02003742B06D1E37943F02003792BDB
:1033D00001D104F1080500269FED078B91E700BF9E
:1033E00000000000000000005A62D7D718E7746997
:1033F000000000000000F87F000000000000F07FE7
:10340000D39A050840A805080846114640F0A6B919
:1034100070B5054608460E463AF084FC044620B1D5
:1034200002466B68314628689847204670BD000008
:103430002DE9F74F0D9C914606460191A41A9DF87F
:10344000302012F0DF0F09D0302A0CAA244F0EBF13
:103450004FF0100817464FF0010802E0214F4FF0DF
:10346000100813F0800205D0022394FBF3F3E51A51
:103470001C4602E013F0010511D1002C12DDA2461A
:10348000D045C34673683946A8BFD3463068CBEBF6
:103490000A0A5A469847BAF1000FF1DC03E02546C4
:1034A000144600E00024B9F1000F05D04C447368C5
:1034B0004A46019930689847002D0DDD2C44A845F7
:1034C000C14673683946A8BFA9463068C9EB0505EF
:1034D0004A469847002DF2DC204603B0BDE8F08F45
:1034E000BB850508CC8505082DE9F04389B08046E9
:1034F000119E9DF84890139F0AB900220DE0002903
:1035000004DA2D2249428DF80F200EE0B00701D5D4
:103510002B2202E07207F0D520228DF80F2021B96E
:1035200008AC302304F8013D14E0109A08AC0DF10A
:10353000100EA2F10A05B1FBF3F003FB10120146D5
:10354000092ACCBF5219303204F8012D744501D03C
:103550000028F0D116F040039DF80F500DD0ADB10A
:103560000122CDF8009033460DF10F010192404643
:10357000FFF75EFF013F054608E03DB104AA944213
:1035800084BF04F8015C04F1FF341D4608AA0197CA
:10359000CDF800903346121B21464046FFF748FF06
:1035A000284409B0BDE8F0832DE9F04F11F0010F78
:1035B00091B0824689461A9D9DF86CB01C9EDDF83C
:1035C000748010D111F0030F03D109687F48814244
:1035D00009D048460593049229F0C6F84000059B9F
:1035E000049A40F0010915F0810106D1BBF1300FBA
:1035F00003D14645B8BF46468846484605930492DF
:103600002CF0F7F80028049A08A8059B0BDBAF07FD
:1036100001D52B2102E06C0705D520218DF8201063
:103620000DF1210400E00446E9061ED5022A05D169
:103630003027214601F8027B5F1C14E0082A0AD1DA
:10364000AF054FF03001217049BF03F10E01013485
:103650006170023409E0102A07D13027214601F8B1
:10366000027B03F1170767700C46002115F0200F4D
:103670000CAFDBB22170A4EB000409974FF01007E8
:1036800004940CBF0C462C24B8F1010F0A97C8BF54
:1036900045F040050B918DF81F1015F0400703947D
:1036A000029314D000230AA909A88DE80C004B4608
:1036B0000BAA2BF051FF037881462D2B18D18DF8E2
:1036C0001F3000F101090B9B013B0B9310E00190AF
:1036D0004B4600920AA90BAA09A82BF03DFFB8F1AE
:1036E000010F81466CDD0B9C4445B8BF44460CE09D
:1036F000B8F1010F63DD0B9C9DF81F304445B8BF46
:10370000444603B10134049B1C44A64208DD05F085
:103710000103341B002B16BF27460027002401E0BD
:1037200000273C4625F001054CB12023019428498F
:103730005046009300231A46FFF77AFE04464FF0E6
:10374000300B69061BD59DF81F3053B101220023B1
:103750000DF11F0150460192013E0093FFF768FEF4
:103760000444049B5BB10123049A08A950460193C9
:1037700000230093FFF75CFE049B0444F61AB8F1A3
:10378000010FC8BF4646CDF800B02B460B9A0196F4
:1037900049465046FFF74CFE04444FB120230197A1
:1037A0000B495046009300231A46FFF741FE04449C
:1037B00009980CAB984205D01CF08AFC02E0002767
:1037C0003C46BEE7204611B0BDE8F08F64B3050863
:1037D000AF3406082DE9F04316468BB08046994673
:1037E000B207129F05D416F0040F0CBF002320234C
:1037F00000E02B2300930A46139B202102A8FFF729
:1038000007FAF30505460DD5431C1F2B0AD80AAA53
:1038100000211544252205F8202C0AAA1D461A4429
:1038200002F8201C16F0400412D09DF808302F2B0F
:103830004FF000030ED8012202A9009340460192E6
:10384000013FFFF7F5FD013D04460DF1090103E0DD
:1038500002A901E002A91C4601973346CDF8009069
:103860002A464046FFF7E4FD20440BB0BDE8F08354
:103870002DE9F04F814689B0144600250E463346A7
:1038800013F8012B5AB9B1420DD2771AD9F8043086
:10389000D9F800003A463D449847314603E0252ACE
:1038A000F1D01E46EBE70B78002B00F00C810131C4
:1038B00020234FF000080F780E464A1C002F4AD0F4
:1038C0002D2F02D148F0010817E02B2F02D148F02C
:1038D000020812E0202F02D148F004080DE0212F49
:1038E00002D148F0080808E0302F03D000274FF03D
:1038F0000A0E04E048F040083B461146DBE70E465E
:1039000011F8012BA2F13000092803D80EFB07277C
:10391000303FF4E72E2A1ED172782A2A04D04FF0C5
:10392000000B4FF00A0E07E0D4F800B00236221D5B
:10393000BBF1000F12DB0CE00A780E460131A2F158
:103940003000092804D80EFB0B2BABF1300BF3E74A
:103950002246144605E04FF0FF3B02E014464FF0CC
:10396000000B32786C2A08BF01363178002900F04C
:10397000AA80642969D00ED850297BD005D8A1F13E
:103980004502022A40F2858091E0622912D022D8B5
:10399000582965D08BE0712928D004D8672978D9B7
:1039A000702967D083E0752945D0782958D07329CC
:1039B0002FD07CE0226804F1040A8DE88800434699
:1039C00012B10422424901E0052242494846FFF76C
:1039D0002FFD054474E0226808A904F1040A01F8E7
:1039E000042D01228DE888004346EFE707A92068EF
:1039F00005931DF042FABBF1FF3F059B04F1040A59
:103A0000014608BFDDF81CB08DE888005A464346E1
:103A1000DCE7BBF1FF3F04F1040A246805D120462E
:103A200005933AF07FF9059B83465A4621468DE877
:103A300088004346CAE70293612304F1040A03970E
:103A400000930A23CDF804801DE00293612304F162
:103A5000040A039700930122CDF804800A2313E09F
:103A6000173904F1040A0397C9B20293CDF8048010
:103A7000009107E0029304F1040A61230397CDF853
:103A8000048000931023002221684846FFF72CFD94
:103A90009FE707344246484624F007048DE8800833
:103AA00094ED000B04F1080AFFF794FE91E701354D
:103AB000A246D9F8043001223146D9F800009847CF
:103AC000711C5446DAE6284609B0BDE8F08F00BF05
:103AD000B0850508B58505080EB403B503AA52F8EC
:103AE000041B0192FFF7C4FE02B05DF804EB03B0C3
:043AF000704700001B
:020000040802F0
:10000000024B9A680260986000207047D804022072
:10001000024B9A6812689A60704700BFD8040220A9
:10002000C460056146618761C0F81C80C0F82090FB
:10003000C0F824A0C0F828B0C0F82CD0C0F808E060
:10004000FFF7DEBF0D4A08B593680BB922F0C0FA7E
:100050001968586091601846C468056946698769DF
:10006000D0F81C80D0F82090D0F824A0D0F828B088
:10007000D0F82CD0D0F808E001207047D804022036
:1000800010B50021044600F0ABFA18B914B12046AF
:100090000BF04AFC10BD002100F0A2BA10B50121FE
:1000A000044600F09DFA18B914B120460BF03CFC50
:1000B00010BDFFF7E5BF10B501220C4600F0D0FBE4
:1000C00018B914B120460BF02FFC10BD00F0C8BBCE
:1000D00000F058BB2DE9F047334C4FF0030CD4F837
:1000E000183304F50677254604F5467EBB4242D90F
:1000F0001E1FD4F80002002253F8041CC4F8186331
:1001000001328B184FEA930803F0030310F80880BC
:100110005B0048FA03F303F00303022BF0D0120153
:10012000D4F80C32900803EB0111D2B3043951F822
:10013000042F130719D1D4F80C329A4215D3D31ACD
:10014000D5F810624FEA1318B2424FEA931308F041
:1001500003020AD2D5F80092520019F803A04AFA15
:1001600002F606F00306012E07D00138DFD1D4F8DD
:100170001833BB42BCD8BDE8F0870CFA02F242EA61
:100180000A0209F80320D5F81833734503F1040275
:1001900004D2C5F81823C3F80080E6E7C5F8146256
:1001A000E3E73346A2E700BFD804022021F00F03A3
:1001B000184A002170B51C1A174D0646E400C5F810
:1001C0001032C5F80002A2FB0424640AA3EB8413D6
:1001D00026442246C5F80442C5F80C32C5F8086228
:1001E0001DF06CFDA2000021D5F808020732D208EC
:1001F0001DF064FD002301214FF0FF32C5F82833C4
:10020000A5F81E13C5F82423A5F81C33C5F8203320
:1002100070BD00BFF32C23FAD8040220034AB2F8C1
:100220001C330133A2F81C33704700BFD8040220EE
:10023000034AB2F81C33013BA2F81C33704700BFDD
:10024000D8040220034BB3F81C03003018BF012070
:10025000704700BFD80402202DE9F843264D002244
:100260004FF00309B5F81C3305F506712C1F05F591
:10027000F47601332F4605F54678C5F81813A5F82E
:100280001C33C5F82023C5F8142254F8043F1A077C
:1002900018D1D5F80C22934214D39A1AD7F8101219
:1002A00010098B424FEA921200F003030AD2D7F8EA
:1002B00000C25B001CF802E04EFA03F101F00301FA
:1002C000012905D0FFF706FFA642DED1BDE8F8837D
:1002D00009FA03F343EA0E030CF80230D7F8183397
:1002E000434503F1040203D2C7F818231860E9E775
:1002F000C7F81412E6E700BFD8040220002940D056
:100300002DE9F8431F4F0E46051F00244FF0030947
:1003100007F5467855F8043F1A0718D1D7F80C228C
:10032000934214D39A1AD7F8101210098B424FEA4D
:10033000921200F003030AD2D7F800C25B001CF847
:1003400002E04EFA03F101F00301012906D0013465
:10035000FFF7C0FEA642DDD1BDE8F88309FA03F33A
:1003600043EA0E030CF80230D7F81833434503F183
:10037000040203D2C7F818231860E8E7C7F814127C
:10038000E5E77047D80402202DE9F04F574E83B0BF
:10039000D6F8040206F50675D6F814323746800002
:1003A00043B30024C6F81853C6F8144218B946E0FF
:1003B000013484421AD2A208D6F8001204F00303D2
:1003C0008A5C5B0042FA03F303F00303032BEFD1D3
:1003D000D7F818331A1DC7F818231C600134FFF72B
:1003E00079FED7F8040280008442E4D3D6F81432B0
:1003F000002BD6D118B39C46DFF8F0804FF0030AEB
:100400001D4606E0032B64D0012B23D00135854225
:1004100015D2AF08D6F800E205F003041EF8072055
:100420000EEB0701640042FA04F303F00303022B0E
:10043000E8D1BCF1000F41D101358542E9D3B6F8CE
:100440001C330022013BC6F82823A6F81C3303B056
:10045000BDE8F08FD8F808024FEAD50B05F0070980
:1004600010F80BC000EB0B0E4CFA09F0C30725D5B2
:100470002A01D8F80C1288580A44A0B110460E215F
:100480006A460AF0A9FD009A3AB10BF06DFC9DE8AE
:1004900003000BF04FFC0BF07DFCD6F8082202EBBA
:1004A0000B0E12F80BC0012303FA09F32CEA030C1C
:1004B0008EF800C0D6F80032D919DA5D0AFA04F4D1
:1004C0004FF0010C22EA04020A70D6F80402800000
:1004D0009CE702234FF0000C03FA04F422EA040222
:1004E0000EF80720D8F8040298408FE7D8040220BD
:1004F0003A4A0023D2F810129C462DE9F047D2F870
:100500000C429946D2F804629846091BD2F8005270
:10051000B6001C469E461A468360C3600361436171
:10052000836180E80A001946970802F00303EF5D33
:100530005B0047FA03F303F00303012B3ED035D3EE
:10054000022B02D10134013144600132B2420CBFAE
:100550004FF0010A4FF0000A08D0970802F0030399
:10056000EF5D5B0047FA03F303F00303012B02D9AD
:10057000BAF1000FD8D0012924D0022926D049454C
:1005800001D989468161012B02D0BAF1000FCBD08D
:10059000E64502D9F446C0F80CE0B2421AD1240173
:1005A0004FEA081344608360BDE8F08708F1010852
:1005B0000EF1010E0021C0F80880C6E7013419468B
:1005C0004460C2E7076901370761D8E74769013727
:1005D0004761D4E74FF0000EA6E700BFD804022021
:1005E0000F302DE9F84F070900F0C780644EB6F8C8
:1005F0001C33002B40F0C180B6F81E330D46002B93
:100600000CBF4FF001094FF0000948D10024DFF87A
:100610007081D6F82823D6F80402824237D2D8F85F
:1006200000E20EEB02011AE00134BC4240D213F0AA
:100630000C0F1ED10134BC4280F0968013F0300FB5
:100640001CD10134BC4280F0928013F0C00F1AD14B
:100650000134BC4280F08E800132824217D211F800
:10066000013B13F0030FDFD013F00C0F4FF0000429
:10067000E0D013F0300F4FF00004E2D013F0C00FC1
:100680004FF00004E4D0013200248242E7D3B9F1F4
:10069000000F72D128F036F84FF00109B9E7D6F80B
:1006A0002023D6F824339A42B0D328F02BF8ADE7B4
:1006B0009300181B012C03F1010C00F101084ED02E
:1006C000012408F003024FEA98010230A2401EF80C
:1006D0000190834204FA02F242EA09020EF8012074
:1006E00011D34FF0020E00F003018408D6F8002267
:1006F0000130490012F8049083420EFA01F141EAF8
:1007000009011155EFD24FEA0814D6F80C92D6F829
:100710002033C8EB0C0209EB040A00211F4412012C
:100720005046DFF85CB0C6F820731DF0C7FA9DB1E3
:10073000DBF808524FEAD8010023012208F007082D
:10074000504649F8043002FA08F86B5C48EA03089E
:1007500005F80180BDE8F88F5046BDE8F88F4FEAF4
:100760009C02C6F82823ABE79200531CA1E7920035
:10077000931C9EE79200D31C9BE70020BDE8F88FF6
:10078000D8040220F0B41C4EB6F81C338BBB80B3E7
:10079000D6F80C220123D6F80852801A0409C109A0
:1007A00004F0070780096A5CBB40032722EA0303C1
:1007B0006B5404F00301D6F82833D6F8005298425F
:1007C00038BFC6F82803A0082A5C4900013407FA9C
:1007D00001F304F0030122EA03024B002A54A008AB
:1007E000D6F800522A5C42FA03F303F00303022B0B
:1007F000EBD0F0BC704700BFD8040220034610F0D5
:100800000F0029D1154AD2F80C128B4214D330B400
:10081000D2F81042A3420ED25B1AD2F80042190954
:100820009B0901F00305E25C6B0042FA03F303F05D
:100830000303012B01D030BC704701300B189A081C
:1008400003F00303A25C5B0042FA03F303F003032B
:10085000022BF2D00001EEE700207047D8040220FE
:100860002DE9F84F8E46002800F011818C4D0029AB
:1008700058D0B5F81C73002F40F08880D5F80C12C2
:100880000EF10F04D5F80432C1EB000924094FEA38
:10089000830C4FEA1916711C8C4540F2FE80D5F886
:1008A00000A24FF001084FEA910B01F003031AF880
:1008B0000BB05B004BFA03F303F00303022B00F0D1
:1008C00087802BB9013707EB08039C4200F2828036
:1008D000A0457BD000F28380474482467046BC42EC
:1008E00057D808EB06022644B24210D24FF0020E4F
:1008F00002F003039008D5F8007201325B00395C06
:10090000B2420EFA03F343EA01033B54F0D1C8EBC1
:1009100004020AEB0810002112011DF0CFF9504625
:10092000BDE8F88FB5F81C3383BBD5F80C12012352
:10093000D5F80862401A0409C10904F007078009C4
:10094000725CBB40032722EA0303735404F00301E3
:10095000D5F82833D5F80062984238BFC5F8280387
:10096000A008325C4900013407FA01F304F00301E6
:1009700022EA03024B003254A008D5F80062325C30
:1009800042FA03F303F00303022BEBD00020BDE88F
:10099000F88F4FEAD919D5F8083206F00706404F0C
:1009A00013F8091041FA06F606F00101002AEDD00D
:1009B000FFF716FE04460028E8D04FEA0812514619
:1009C0001DF03DF9B7F81C334BB32046BDE8F88F56
:1009D00008F1010801318C457FF465AF78E706EB3B
:1009E000040EB0444FF0030C744604F00303A70850
:1009F000D5F8002201345B00294ED15D44450CFA44
:100A000003F321EA0303D355EFD14FEA9E04D6F84E
:100A100028339C42DAD2C6F82843BDE8F88FD7F8CD
:100A20000C020122D7F808E2C0EB0A000609C1094E
:100A300006F0070C80091EF8013002FA0CF223EAD6
:100A400002030EF8013006F00301D7F828334FF007
:100A5000030E984238BFC7F82803B008D5F80072D3
:100A60003A5C490001360EFA01F306F0030122EA6E
:100A700003024B003A54B008D5F800723A5C42FACF
:100A800003F303F00303022BEBD020469EE701465D
:100A90007046BDE8F84FFFF7A3BD4FF0010817E718
:100AA000D804022030B58BB00B4C03A8FFF720FD13
:100AB000059D049B2046039A08490095E3F70CF82E
:100AC00009992046069C089B079A8DE81200044964
:100AD000E3F702F80BB030BDA88505086C390508AE
:100AE00090390508F8B5534E5349D6F80C225348AF
:100AF000E2F7F2FFD6F80402800000F081800024C3
:100B00001CE004F00305A7086D00D6F80032494A3E
:100B1000DB5D43FA05F505F00305022D6ED0032DCC
:100B20006AD0012D43D02E22454901344348E2F7D3
:100B3000D3FFD6F804028000A04261D9A506E0D117
:100B4000844267D2D6F800E2A70804F003051EF835
:100B500007306D002B41990721D1234605E01EF88F
:100B6000011041FA02F2920708D1013303F00302A7
:100B700083424FEA93014FEA4202F0D31A1B7F2AC5
:100B80000DD992092F492D4823F03F04E2F7A4FF25
:100B9000D6F80432B4EB830F32D2A7080025230124
:100BA000294A2A491A402548E2F796FFADE7D2F8CC
:100BB0000C122301264ACB58934227D0254A934250
:100BC00026D0254A93422AD0244A934229D0244A47
:100BD000934226D0234A934225D0234A934222D0DF
:100BE000224A934221D0224A934220D0214A934262
:100BF00014BF68224D2297E76D2295E73D2293E7C7
:100C00001D490E48BDE8F840E2F702BC54228BE7CC
:100C10004C2289E704F00305A7086D00BFE74422D2
:100C200082E7532280E741227EE746227CE7422288
:100C30007AE700BFD8040220D8390508A88505083E
:100C40001C3A0508F8390508F0FF0F00143A0508AA
:100C500064C7050864B40508B0A505083CC40508C8
:100C600080C40508E0A205081CA3050820AF0508FC
:100C7000DCB00508CCB50508F4390508054B5B69FF
:100C80005A68824201D91B68FAE7801A043053F887
:100C900020007047D8040220014441F205538842E5
:100CA00005D203EB431310F8012B5340F7E798B23A
:100CB000002808BF01207047034B044A5A610022F4
:100CC000C3F8EC21704700BFD80402200C0A0608C4
:100CD0002DE9F84F82468946FFF7DEFF134B834626
:100CE0005C6904B304F11007E6683D4607EB86062D
:100CF000B54216D2A84658F8040B03889B450ED17E
:100D0000837899450BD14A46514603301CF0F8FFD1
:100D100028B9E81B636803EBA000BDE8F88F4546DF
:100D2000E6E72468DDE72046BDE8F88FD804022016
:100D30002DE9F84F81460E46FFF7CAFF024600280C
:100D40007CD1404C351DD4F8EC01D0B1D4F8F4314D
:100D5000D4F8F0112B448B4213D92944FFF7B6F98C
:100D6000074648B90246D4F8F411D4F8EC01FFF76D
:100D7000ADF9C4F8EC7104E0D4F8F0312B44C4F8B8
:100D8000F031D4F8EC31C3B97F2D8CBF2F468027CA
:100D90003846FFF780F9C4F8EC0148B92846FFF758
:100DA0007AF9284BC3F8EC0108B928462FE02F4602
:100DB0000023C4F8F071C4F8F431D4F8F4A131463A
:100DC000D4F8ECB148465544DFF878800BEB0A07BD
:100DD000C4F8F451FFF760FF0BF80A00000ABE7078
:100DE000324600253E4478704946F81C1CF027FF27
:100DF000F57063699868DB68834215D30230C000E0
:100E0000FFF749F9D8F8143018B9986840000AF08B
:100E10008BFD5968DA6803609B680A44C5605B0013
:100E200042608360C8F814006269D1684B1C0431C9
:100E3000D36042F821705268013A1A441046BDE866
:100E4000F88F00BFD804022010B504461CF06AFFDA
:100E500001462046BDE81040FFF76ABF08B5FFF71E
:100E60000DFF008808BD08B5FFF708FF807808BDB2
:100E700008B5FFF703FF033008BD08B5FFF7FEFE16
:100E8000837803300B6008BD2DE9F8431D4600232D
:100E900007468846036016460B6013602B60164BAE
:100EA000DFF858905C690CB34C451FD03B680133A8
:100EB0003B60D8F80020E368134404F11002C8F83E
:100EC0000030E36802EB83018A4207D252F8043B08
:100ED00098783368043303443360F5E72046FFF71E
:100EE0008DFC2B68246818442860DCE72A68336886
:100EF00013442B60BDE8F883D80402200C0A0608CE
:100F0000F8B50C4B0C4F5C6994B1BC4210D004F1A5
:100F10001005E36805EB8306B54207D255F8042BAC
:100F2000064903320648E2F7D7FDF5E72468EBE708
:100F3000F8BD00BFD80402200C0A0608644F05085B
:100F4000A885050838B544680546036821449942D8
:100F500011D9037BDB0703D5002107480AF0DAFC2F
:100F600001F11004806824F0070408342146FFF7DB
:100F7000A2F82C60A86038BD7CA8050870B50546AD
:100F80000E4611461446FFF7DDFF6B68A86822463F
:100F9000314618441CF07AFE6B681C446C6070BDCE
:100FA00070B5466804468E42354628BF0D4601217D
:100FB000FFF7C8FFA368681C721B591918441CF07E
:100FC00065FE6368A06801332844636070BD38B56E
:100FD00004460025002914BF0846012065602060F2
:100FE000FFF74EF8237BA06065F30003237338BD41
:100FF00038B505460C460131FFF7E9FF6C6038BD96
:101000000023016082604360037B43F001030373AC
:101010007047000038B514460546FFF7D8FF024B6D
:101020002560636038BD00BF7D0F0208037BDB07CE
:1010300010B5044602D48068FFF74AF80023A36085
:1010400010BD38B505461020FFF71AF804462946AA
:10105000FFF7BDFF204638BD10B5044650B1037BF5
:10106000DB0702D48068FFF733F82046BDE8104064
:10107000FFF72EB810BD000038B5037B04460D46BF
:10108000DB0703D5002107480AF044FC01688068AB
:101090002944FFF710F82368A0601D441844256018
:1010A00038BD00BF7CA8050838B504460D46FFF7DB
:1010B00049FF6368A0681D441844656038BD90E826
:1010C0000C0010B59A42044602D10121FFF7D4FF6B
:1010D000A26800216368D154A06810BD10B50C4609
:1010E0000121FFF7E1FF047010BD7F29F8B50D461F
:1010F00004D80121FFF7D8FF0570F8BDB1F5006FE6
:101100004FEA911401F03F0609D264F03F0466F003
:101110007F060221FFF7C8FF04704670F8BDB1F5E5
:10112000803F4FEA11370ED204F03F0467F01F07EB
:1011300066F07F06032164F07F04FFF7B5FF0770B8
:1011400044708670F8BDAD0C07F03F0704F03F0413
:1011500066F07F0665F00F0567F07F0764F07F0497
:101160000421FFF7A1FF057047708470C670F8BDB9
:1011700038B505460C4608461CF0D4FD214602460B
:101180002846BDE83840FFF7F9BE10B51446FFF712
:1011900007FF047010BD10B51446FFF701FF04707F
:1011A00010BD43688B4234BF00235B1A4360704715
:1011B00038B51546426804460B468A420ED9294482
:1011C0008A4201D8436038BD8068D21A0144521B5C
:1011D00018441CF05BFD6268521B626038BD0378E6
:1011E0001A0613D503F07F034022134203D023EAEB
:1011F00002035208F9E710F8012F02F0C00180291C
:1012000004D102F03F0242EA8313F4E71846704724
:10121000421C10460132037803F0C003802BF8D043
:1012200070470023814207D911F8012D02F0C00256
:10123000802A18BF0133F5E718467047014403467A
:10124000002099421A4607D91278013302F0C002F1
:10125000802A18BF0130F4E7704700007F289DBF47
:10126000024B185CC0F3400000207047DD85050884
:101270007F289DBF024B185CC0F3C0000020704760
:10128000DD8505087F289DBF024B185CC0F38000F8
:1012900000207047DD8505087F289DBF024B185C44
:1012A000C0F3801000207047DD8505087F2809D82D
:1012B000064B1B5C13F00C0F06D1A0F15F035842E4
:1012C000584170470020704701207047DD850508B0
:1012D0007F289DBF024B185CC0F3001000207047B0
:1012E000DD8505087F289DBF024B185CC0F34010C8
:1012F00000207047DD85050808B50246FFF7E8FFC6
:1013000010B102F1200008BD104608BD08B5024624
:10131000FFF7E8FF10B1A2F1200008BD104608BD9C
:101320003038092884BF20F020000738704710B5F6
:1013300001440246E5240020914216D912F8013BEF
:1013400020B11B0615D50138C0B2F5E7BF2B09D96E
:10135000F72B0FD8DB0803F0060344FA03F303F07E
:101360000300E9E71B0605D4E6E7B0FA80F0400980
:1013700010BD002010BD023981420B4603D31A88EC
:101380000239002AF8D00233181A4010704770B59D
:101390001C09944215D2121B01EB440103F00F0308
:1013A00015460C6831F8026B012D08BF3446013D2B
:1013B00024FA03F4A4B220F8024BF2D11CB9501E57
:1013C00070BD002070BD104670BDF0B5059F0024B3
:1013D000D21B2546BC420AD031F814E033F8146021
:1013E0007644354420F814502D0C0134F2E76400A3
:1013F0000619023C3746214414463CB131F8023FFD
:10140000013C1D4427F8025B2D0CF6E706EB420376
:101410001DB10121023326F81210181A4010F0BD38
:10142000F0B4049F0024D21B2546BC420AD031F8F8
:101430001460354433F81460AD1B20F814502D149B
:101440000134F2E7640016460719023C0C443946A1
:101450003EB134F8023F013E1D4421F8025B2D14D9
:10146000F6E707EB4201F0BCFFF785BF2DE9F0433B
:10147000079C9E4608AB571E02398446C2EB0409FE
:1014800093E848017C1C21D031F8024F04F57F45D8
:1014900009EB0704FF35A74207F1FF372E4429BFA8
:1014A000BEF800504FF6FF740EF1020E05F57F44B2
:1014B00028BFFF34444486EA04054FEA1448360C3A
:1014C00013FA85F32CF8023B1B0CDBE700EB42011F
:1014D00013B1023120F81230BDE8F043FFF74BBFE3
:1014E00010B5044638B18068FEF7F2FD2046BDE82D
:1014F0001040FEF7EDBD10BD38B5044680680129E7
:101500008CBF0D46022518B12368B5EB930F07D9A0
:101510006900FEF7D0FD2368A06065F39F03236098
:1015200038BD38B505460C20FEF7AAFD03782A78A9
:10153000044662F300036FF34103037028682368D5
:10154000C0F39D0060F39F0323606B686360AB682A
:101550000BB9A3600AE04000FEF792FDA0602A6884
:10156000A968C2F39D0252001CF069FB204638BDF9
:101570004B0018441A4410B549B130F8023D32F816
:10158000024D1B1B002B04DB06D10139F4E7084692
:1015900010BD4FF0FF3010BD012010BD38B505461D
:1015A0000C460221FFF7A8FF002C2B78B5BF614243
:1015B000214643F001036FF30003B4BF2B702B707F
:1015C00000236B6039B16B68AA68581C686022F808
:1015D0001310090CF6E738BD037803F0FE036FF330
:1015E0004103037003686FF39F03036000234360AC
:1015F0008360704728B103789B0702D48068FEF7A8
:1016000067BD704738B505460C464968FFF774FF5B
:1016100022782B78A86862F300032B706368A168B6
:101620006B606268BDE8384052001CF008BB03469E
:1016300009B959607047FFF7B1BF08B5FFF7CCFF94
:10164000BDE80840FFF7F3BF30B405788160194664
:1016500005F0FE0545F002050570056862F39F057B
:1016600000220560426030BCFFF7E1BFF8B50446D8
:101670009DF8185004211F461646FFF73DFF2378BA
:1016800055B1002E77F1000206DA43F001037242F1
:10169000237067EB470304E06FF3000332462370C7
:1016A0003B460021616052EA03010CD06168A068EA
:1016B0004D1C656020F81120110C180C41EA034103
:1016C00003460A46EFE7F8BD2DE9F84F53EC102B1F
:1016D00019460378814610EE105ACA0F62F30003D0
:1016E0000370C1F30F4323F00F035B045B0C23B9BA
:1016F0000023C9F80430BDE8F88F47F6F072934232
:10170000F6D0C1F30A53A3F2FF32002AF0DB04D172
:101710000121BDE8F84FFFF741BFA3F2EF381024D5
:10172000C1F31307332A2E4647F4801798FBF4F8C9
:101730000ADC284600253946C2F1340232F0FEF8B0
:101740002C4606460F4606E0A3F233430C3293FBC9
:10175000F4F402F00F0541464846FFF7CDFEC9F804
:1017600004802CB162000021D9F808001CF0A6FA10
:101770009DB1D9F808B02A463046394604F1010A2D
:1017800032F0E8F839462BF81400C5F11002304663
:1017900032F0D4F8544606460F4664004FEA480833
:1017A00044450AD0D9F808303A0C1E53330C0234A1
:1017B00043EA074317461E46F2E7BDE8F88F2DE9D6
:1017C000F8438F180D46C2F35B0104469846089E05
:1017D0000131FFF791FE2278B8F1000F02D042F0FC
:1017E000010201E068F3000200232846B1B2227032
:1017F0006360B84230D2027800F1010EA2F13003EA
:10180000092B0CD9A2F14103192B02D8A2F13703FD
:1018100005E0A2F16103192B1ED8A2F15703B342D0
:101820001AD2A0689BB2D4F804C08046624642B186
:10183000B8F80090013A09FB013328F8023B1B0C71
:10184000F5E700EB4C0213B1023220F81C30121AFB
:10185000704652106260CCE7401BBDE8F883F8B5D3
:10186000044615461E4621B1531E4FF0FF371E4455
:1018700000E00127E90020460F310909FFF73CFE8F
:10188000237800216FF3000361602370ADB1002362
:101890000F290ADC3278013D3E4402FA01F201F1DF
:1018A000080143EA02039BB2F2D162681039501C6E
:1018B0006060A06820F81230E8E7A068616800EB7B
:1018C0004101FFF758FD6060F8BD0A46416838B530
:1018D00009B95368C3B11378047803F0010304F025
:1018E00001055B1B10D15368994205D307D8926854
:1018F0008068FFF73DFE03E04FF0FF3000E001207D
:10190000E30702D5404238BD184638BD884210B5BD
:10191000044601D0FFF776FE23786FF300032370AF
:1019200010BD884210B5044601D0FFF76BFE237846
:10193000C3F30002C2F1010262F30003237010BD81
:1019400088421FB5044601D0FFF75CFE626842B9C9
:1019500001212046FFF7D0FD0123A26813806360B8
:1019600021E02378D9070ED56FF30003A168237017
:1019700001230846ADF80E3000930DF10E03FFF77A
:101980004FFD606013E0511C2046FFF7B5FD0123B9
:10199000A168ADF80E30009308460DF10E036268A1
:1019A000FFF713FD6060237843F00103237004B058
:1019B00010BD2DE9F0470F4649680646144601B1AF
:1019C0002AB939463046BDE8F047FFF71BBE02F1A1
:1019D0000F052D092944FFF78FFD796814F00F02D8
:1019E0006FF0010C05EB010801F1004EB3680CFB30
:1019F00001FC08F100440EF1FF3EB86808BF102258
:101A0000013C0CEB4E0EC2F11002640070444FF02A
:101A1000000E23449A4659B130F81190013949EA31
:101A20000E0929FA02FE2AF802E94FEA094EF2E706
:101A30002EFA02FE03EB0C0905F10042023423F8F2
:101A40000CE06B00013AC3F10203520099444C448C
:101A500048461CF033F9B8F1000F05D034F8023DC8
:101A600013B908F1FF38F6E73378C6F804803A78FE
:101A700062F300033370BDE8F087F0B50E464968A5
:101A800085B00546144601B122B931462846FFF714
:101A9000B9FD45E0FFF730FD23467268B168A868DC
:101AA000FFF775FC2B7868600246317861F300031C
:101AB0002B70DB0734D5002321097768ADF80E3091
:101AC000BB4212D08B4210D0B06830F8130050B136
:101AD0000123B942ADF80E3009D30123A968C2B978
:101AE0000B806B601CE00133EAE7B94218D2B3689F
:101AF00004F00F0433F81110012303FA04F4013C3D
:101B0000214218BFADF80E30BDF80E30002BE4D1E5
:101B100006E0009308460DF10E03FFF756FC6860DF
:101B200005B0F0BD73B553680C46496806461546C6
:101B3000994206D308D89268A068FFF719FD0028DB
:101B400002DA23462C461D4622782B7861685340E2
:101B5000DB070CD430460131FFF7CEFC6B68B06870
:101B60000093AB686268A168FFF72FFC0AE030467B
:101B7000FFF7C2FC6B68B0680093AB686268A1684D
:101B8000FFF74EFC33787060227862F30003337005
:101B900002B070BDF7B553680C4649680646154655
:101BA000994206D30AD89268A068FFF7E1FC0028A2
:101BB00004DA234601272C461D4600E00027227840
:101BC0002B7861685340DB070CD530460131FFF7B5
:101BD00093FC6B68B0680093AB686268A168FFF71C
:101BE000F4FB0AE03046FFF787FC6B68B0680093AF
:101BF000AB686268A168FFF713FC706033782278E5
:101C00001FB1C2F30002C2F1010262F3000333709C
:101C100003B0F0BD2DE9F04F16464A680C46054664
:101C2000736885B09A423EBF0B4634461E46237801
:101C3000D80722D4337813F001071ED161682846F3
:101C4000FFF75AFCA868A4683B46D6F808E071681C
:101C5000994208D034F813603EF81320324020F83F
:101C600013200133F4E700EB4101FFF784FB2B78ED
:101C700068606FF300032B7067E0616828460131EC
:101C8000FFF73AFCAB68327800932378D4F804E08D
:101C900083EA020703F0010302F00102A16807F0E2
:101CA00001077068C2F1000CA1F1020A87F0010778
:101CB000CEEB0001D6F808901FFA8CFC5FFA87F88B
:101CC0007F42DDF800B0BFB2039102975F42BFB21E
:101CD00001970EF1FF37791C1FD03AF8021F0198C7
:101CE000414002980B44039939448F4207F1FF3772
:101CF00029BFB9F80010614609F102098CEA010117
:101D00000A4403EA0201120C1B0C414018FA81F14B
:101D10002BF8021B4FEA1148DDE7009B03EB4E0155
:101D2000B8F1000F04D00123009A023122F81E30CE
:101D30000098FFF720FB686033782278C3F3000334
:101D400013402A7863F300022A7005B0BDE8F08FD3
:101D50002DE9F84F17464A680C4606467B689A42BA
:101D60003EBF0B463C461F462378DA0733D43B7808
:101D700013F001052FD16168FFF7BEFB62687B6835
:101D8000D6F808E0D01AD4F808C0D7F808802A4658
:101D9000934208D03CF8124038F8121021432EF834
:101DA00012100132F4E75B0001460EEB0302023B26
:101DB0001446634429B133F8025F013924F8025B09
:101DC000F8E702EB40023378CEEB020261F3000346
:101DD0005210726048E0616830464FF001090131ED
:101DE000FFF78AFB7B682578D7F808803F7805F0F5
:101DF0000105616807F00107B068C5F1000CA4682F
:101E0000C7F1000E4A1E1FFA8CFC023C1FFA8EFE20
:101E10008246C1EB030B531C1ED034F8023F83EA09
:101E20000C031D440BEB02039A4202F1FF3229BF5F
:101E3000B8F80030734608F102088EEA03031F4425
:101E400045EA07033F0C2D0CDB4319FA83F32AF80C
:101E5000023B4FEA1349DEE700EB4101FFF78BFA43
:101E60003378706043F001033370BDE8F88FF0B54C
:101E700016464A680C4685B0736805469A423EBFCE
:101E80000B4634461E462778616833785F4017F06A
:101E9000010739D1FFF730FB227812F0010223D17C
:101EA00073686168A868A768C91AD6F808E0934201
:101EB00008D037F812603EF81240744020F8124003
:101EC0000132F4E75B000A46C418023B26463B4455
:101ED0002AB133F8027F013A26F8027BF8E704EBD7
:101EE0004101FFF748FA0AE00397029701977368E8
:101EF000A8680093B3686268A168FFF7B7FA2B7807
:101F000068606FF300031CE00131FFF7F5FA3378E6
:101F1000A86803F0010383F001030393237803F01F
:101F2000010383F00103029301230193736800937B
:101F3000B3686268A168FFF799FA2B78686043F08C
:101F400001032B7005B0F0BD4B682DE9F04F04463E
:101F500085B00E4615460BB1536823B90023636064
:101F600005B0BDE8F08F814206D1FFF7DAFAAE4244
:101F7000074608D1054606E0824206D1FFF7D1FAAE
:101F80000546074602E03E4600E000276B68204613
:101F900071681944FFF7B0FA22680021A068C2F303
:101FA0009D0252001BF08AFEA368D6F804C001937C
:101FB000B368D5F808900293019B6A6803EB4C0064
:101FC0006FF0010303FB0CF303930023039900EB71
:101FD000010822B3029BE6460021A3F1020ABEF1EA
